:020000040800F2
:10000000A8540020A10200080D74000859630008DC
:10001000A1700008FB0A00082995000800000000F4
:10002000000000000000000000000000DD010008EA
:100030000F22000800000000390200081D7C0008A3
:10004000BB020008BB020008BB020008BB0200089C
:10005000BB020008BB020008BB020008BB0200088C
:10006000BB020008BB020008BB020008BB0200087C
:10007000C5200008BB020008D5200008E5200008C4
:10008000F5200008BB020008BB020008BB02000804
:10009000BB020008BB020008BB020008BB0200084C
:1000A000BB020008BB020008BB020008BB0200083C
:1000B000BB020008BB020008BB020008BB0200082C
:1000C000BB020008BB020008BB020008BB0200081C
:1000D000BB020008BB020008019400084594000818
:1000E000BB020008BB020008BB020008BB020008FC
:1000F000BB020008557D0008BB020008BB020008D7
:10010000BB020008BB020008BB020008BB020008DB
:10011000BB020008E5870008457D0008BB02000817
:10012000BB020008BB020008BB020008BB020008BB
:10013000BB020008BB020008BB020008BB020008AB
:10014000BB020008BB020008BB020008BB0200089B
:10015000BB020008BB020008BB020008559400085F
:10016000BB020008BB020008BB020008BB0200087B
:10017000BB020008BB020008BB020008BB0200086B
:10018000BB020008BB020008758900080D8A000840
:10019000BB020008BB020008BB020008BB0200084B
:1001A000BB020008BB020008BB020008BB0200083B
:1001B000BB020008BB020008BB020008BB0200082B
:1001C000BB020008BB020008DFF80CD000F058FCAE
:1001D0000048004739AC0008A85400202D4B19688E
:1001E0000868B0E8F04F80F30988BFF36F8F4FF0D5
:1001F000000080F311887047000000000848006884
:10020000006880F308884FF0000080F3148862B61D
:1002100061B6BFF34F8FBFF36F8F00DF00BF00BF2A
:1002200008ED00E0DFF80C00016841F470010160A6
:10023000704700BF88ED00E0EFF30980BFF36F8FD8
:10024000144B1A681EF0100F08BF20ED108A20E929
:10025000F04F106009B44FF0500072B680F311886F
:10026000BFF34F8FBFF36F8F62B60BF07DFF4FF080
:10027000000080F3118809BC19680868B0E8F04FE5
:100280001EF0100F08BFB0EC108A80F30988BFF38E
:100290006F8F704700020020EFF305807047000069
:1002A0000648804706480047FEE7FEE7FEE7FEE710
:1002B000FEE7FEE7FEE7FEE7FEE7FEE7317D00082A
:1002C000C90100082DE9F05F0546002092469B46D3
:1002D00088460646814640241BE02846414647465C
:1002E000224600F090FA53465A46C01A914110D364
:1002F00011461846224600F077FA2D1A67EB0108DE
:100300004F4622460120002100F06EFA17EB00094B
:100310004E41201EA4F10104DFDC484631462A4646
:100320004346BDE8F09F2DE9F0410024061B254619
:1003300071F1000605DA01240027D0EB070067EB16
:100340000101161E73F1000605DA0027D2EB070241
:10035000012567EB0303FFF7B5FF86460E461746F8
:100360009C46AC4204D00025D0EB050E65EB01069F
:1003700024B10020D2EB000760EB030C704631463D
:100380003A466346BDE8F08140EA01039B0703D08B
:1003900009E008C9121F08C0042AFAD203E011F8C4
:1003A000013B00F8013B521EF9D27047D2B201E086
:1003B00000F8012B491EFBD270470022F6E710B56A
:1003C00013460A4604461946FFF7F0FF204610BDC3
:1003D00010B5002200E0521C835C8C5CA34201D16A
:1003E000002BF8D1D8B2E1B2401A10BD034611F883
:1003F000012B00F8012B002AF9D1184670472DE98E
:10040000FE4F804681EA0300C00F0C46009021F0A9
:10041000004123F00045B8EB0200A94105D2404657
:10042000214690461C460B46024623F000401043EE
:1004300047D0270DC7F30A00C3F30A510290401AB0
:10044000019040286BDAC3F3130040F4801B00983E
:10045000924620B10023D2EB030A63EB0B0B019809
:100460005946C0F14002504600F0BEF906460D461E
:1004700050465946019A00F0D6F910EB0800614148
:10048000002487EA115284EAE7731A4340D0009AA5
:1004900062B3019A012A4FEA075215DC001B61EB97
:1004A00002014FF0004202EA0752CDE90042001C6F
:1004B00041F5801132462B4600F00DFA03B0BDE83D
:1004C000F08F40462146F9E7001B61EB0201001C5A
:1004D00041F5801300185B412018A2F5001747EB87
:1004E000030140EAD570B6196D4111E06D084FEA7D
:1004F000360645EAC0754FEA0752001B61EB020160
:10050000001C41F5801149084FEA300000195141A3
:1005100032462B4603B0BDE8F04F00F0CDB900984D
:10052000012240000023D0EB020263EBE07300984D
:1005300021464FEAE074B8EB000061EB0401E9E703
:1005400083F000435BE781F0004158E72DE9FE4F5F
:1005500081EA030404F0004421F0004100944FF0CC
:10056000000B23F0004350EA01045ED052EA03047A
:100570005BD0C3F30A54C1F30A552C44A4F2F334FC
:100580000194A0FB0254C1F3130141F48011C3F3A1
:10059000130343F4801301FB024400FB034E840A5F
:1005A000970A44EA815447EA8357A4FB07680295F7
:1005B0008D0A05FB07854FEA932C04FB0C54270595
:1005C000029D4FEA065847EA1637B5EB08056EEB71
:1005D000070C870E920E47EA811742EA8312A7FBA7
:1005E0000201B6EB0B0164EB00042B0D43EA0C3364
:1005F0005E1844EB1C50DA465146E7FB0201C5F396
:1006000013044FEA0B3343EA14534FEA0432019CBC
:1006100043EA0603A4F10C040294009CCDE900B463
:1006200000F059F903B0BDE8F08F00200146F9E76A
:10063000F0B4CA17CB0F50405140C61841F1000525
:100640004FEAC372314628004FF0960303D0B62319
:10065000F0BC00F003B930460021F9E70EB5C10F38
:1006600080EAE0700844CA07002140F233438DE875
:100670000E000A460B4600F02EF903B000BD10B57F
:1006800000F0004420F00040C20DC0F3160040F41A
:1006900000007F2A02DA0020014610BD0021962AC0
:1006A00003DCC2F19602D04002E0963A00F09CF8DA
:1006B000002CF2D00023D0EB030063EB010110BD4E
:1006C00070B5C1F30A5201F000450024C1F31301D3
:1006D00040F2FF3341F480119A4201DA002070BDEC
:1006E00040F233439A42A2F2334203DC524200F01A
:1006F0008AF800E090402C43F1D0404270BD00F0F9
:10070000004230F000400AD0C10D01F56071C0F325
:10071000160042EA0151C208400711437047002009
:100720000146704730B5041E71F1000404DB4FF040
:100730000044404264EB0101141E73F1000405DB28
:100740001C464FF00043524263EB04038B4208BF48
:10075000824230BD30B5041E71F1000404DB4FF05D
:100760000044404264EB0101141E73F1000405DBF8
:100770001C464FF00043524263EB0403994208BF0A
:10078000904230BD01F0004330B421F0004150EA06
:10079000010206D00A0DA2F56072C1F31301002A0E
:1007A00002DC30BC00207047440F44EAC104C100A1
:1007B000E01830BC00EBC25000F047B830B50B4633
:1007C000014600202022012409E021FA02F59D4281
:1007D00005D303FA02F5491B04FA02F52844151E55
:1007E000A2F10102F1DC30BD202A04DB203A00FA3C
:1007F00002F1002070479140C2F1200320FA03F378
:10080000194390407047202A04DB203A21FA02F075
:100810000021704721FA02F3D040C2F1200291403A
:10082000084319467047202A06DBCB17203A41FAC5
:1008300002F043EAE07306E041FA02F3D040C2F16D
:10084000200291400843194670470029A8BF70470D
:10085000401C490008BF20F00100704710B4B0FAF6
:1008600080FC00FA0CF050EA010404BF10BC704791
:1008700049B1CCF1200421FA04F411FA0CF118BFAB
:10088000012121430843A3EB0C01CB1D4FEA00617A
:100890004FEA102042BF002010BC704700EBC3504D
:1008A00010440029A4BF10BC7047401C490008BF79
:1008B00020F0010010BC704710B5141E73F1000445
:1008C00008DA401C41F1000192185B411A4301D142
:1008D00020F0010010BD2DE9F04D92469B4611B16C
:1008E000B1FA81F202E0B0FA80F220329046FFF7CE
:1008F0007BFF04460F4640EA0A0041EA0B015346DB
:100900005A46084313D0114653EA010019D0C8F1E2
:1009100040025046FFF777FF05460E4650465946BF
:100920004246FFF761FF084305D0012004E020465E
:100930003946BDE8F08D0020054346EAE0762C43B9
:1009400037430A986305E40AA0EB08000022FD0A79
:1009500044EA47540A3002D500200146E9E7010580
:1009600010196941DDE9084500196941BDE8F04DFC
:10097000A2E72DE9F04D81EA030404F0004B21F0D9
:10098000004514464FF0000A23F0004150EA0502EA
:1009900020D054EA01021DD0C5F30A570246C5F320
:1009A0001303C1F31300C1F30A5640F4801543F456
:1009B0008013A7EB0608101BD64608F2FD3873EB30
:1009C000050002D308F1010801E092185B41B8F17B
:1009D000000F03DA00200146BDE8F08D00204FF43F
:1009E0008011064684460EE0171B73EB050705D3FE
:1009F000121B63EB050306434CEA010C49084FEA5E
:100A0000300092185B4150EA0107EDD152EA030031
:100A100012D082EA040083EA0501084305D0101BC6
:100A2000AB4106D20122002306E000224FF0004332
:100A300002E06FF0010253101AEB06004CEB085174
:100A400010EB0A0041EB0B01BDE8F04DFFF734BF9E
:100A5000C1F30A52C1F3130140F2FF3341F4801194
:100A60009A4202DA00200146704740F233439A422C
:100A7000A2F2334202DC5242FFF7C5BEFFF7B4BE1A
:100A8000064C074D06E0E06840F0010394E80700DB
:100A900098471034AC42F6D3FFF79AFB74CF0008A6
:100AA00094CF000870B58C1810F8015B15F007039F
:100AB00001D110F8013B2A1106D110F8012B03E0F7
:100AC00010F8016B01F8016B5B1EF9D12B0705D4FF
:100AD0000023521E0DD401F8013BFAE710F8013B48
:100AE000CB1A921C03E013F8015B01F8015B521E64
:100AF000F9D5A142D8D3002070BD00BFFEE70000A9
:100B00002DE9F04F8DB007460E4647A005F086FA56
:100B10004748D0F800804748D0F800904648D0F8C1
:100B200000A04648D0F800B0304609F049F84448E3
:100B3000037842480068A0EB0B003F490968A1EB2D
:100B40000A013C4A1268A2EB0902CDE90303CDE990
:100B5000012137480068A0EB08000090394803687D
:100B600039A2202105A809F09DF83F48007840B13E
:100B700005A93EA005F042FA05A93EA005F07EFBBE
:100B800007E005A93CA005F049FA05A93CA005F03D
:100B900075FB3CA005F042FA022009F0D7FFAA201D
:100BA0000BF032F93AA005F039FA002009F008F804
:100BB00039A005F033FA142008F02AFE384602F076
:100BC0006BF9044624B1012C04D0022C04D104E0BA
:100BD000222505E0002503E000BF6FF01F0500BFE0
:100BE00000BF21462EA005F019FA284605F072FD37
:100BF0002EA005F013FA192008F0E2FF2DA005F051
:100C00000DFA012009F0B6FF96200BF0FDF82CA09C
:100C100005F004FA002008F0D3FF012009F096FF48
:100C20000DB0BDE8F08F00007A2063617463680046
:100C30002C010020140100201801002010010020C8
:100C40002801002034010020256C756D7320462595
:100C50006C752043256C752045256C752052256CDC
:100C60007520545825750000300100207A20746FDB
:100C7000202573005A544F007A206F6B2025730093
:100C80005A4F4B00636C617720636C6F7365000093
:100C90007A207570000000007920686F6D65000093
:100CA0007475726E20776820256400007A20707554
:100CB00074000000636C6177206F70656E00000047
:100CC0007A2073616665000002460B4600210846E3
:100CD000511A73EB000004DA0021504261EB03016A
:100CE000704710461946FBE770B52DED048BB0EE4A
:100CF000408AF0EE608AB0EE419A04460D46012C1F
:100D000008D1B0EE491AF0EE680AB0EE480A00F0D9
:100D100015FD13E0022C09D12846B0EE491AF0EE79
:100D2000680AB0EE480A00F04DFC07E0B0EE491A40
:100D3000F0EE680AB0EE480A00F08CFDBDEC048BC2
:100D400070BD000038B50446002003460246014647
:100D5000009005F041FA204606F012FA20B903A0EF
:100D600005F0A6F9002038BD0120FCE76D6F746F17
:100D7000722070756C7365207374617274206C6F6F
:100D8000737400002DE953459FB0209818B11AA83C
:100D900006F0F6F960B900200346024601460090CD
:100DA00005F01AFA44A005F083F921B0BDE850859A
:100DB000002010E01AA951F82010CA171F9B53F801
:100DC0002030C91A62EBE37212AB03EBC00306C317
:100DD00000F10101C8B20428ECDB0021DDE912209A
:100DE000534261EB0000DDE9142C991840EB0C0034
:100DF000DDE9162389185841DDE91823891A60EBCB
:100E0000030004220023CDE9001008460199FFF7F2
:100E10008AFA0446DDE9143CDDE91220D11840EBE2
:100E20000C00DDE916238A1A60EB0300DDE91831B6
:100E30009A1A61EB0001CDE90021042200230098F9
:100E4000FFF771FA064602A800F012FB4FF480305B
:100E50000023DDE90A12A1FB00CE02FB00E001FB4A
:100E600003004EF66022CDE900C060460199FFF70D
:100E70005AFA82464FF480314FF0000CDDE90C0342
:100E8000A0FB012E03FB01E100FB0C10CDE90020CB
:100E90004EF660226346DDE90001FFF744FA804622
:100EA00001200090B6EB0803B4EB0A02314620465D
:100EB00005F092F900BF78E76D6F746F722070755E
:100EC0006C736520656E64206C6F737400000000A5
:100ED0002DE9F0412DED068BB0EE408AF0EE608AF0
:100EE0000446B0EEC80AF0EEE80A80FE200AB0EE32
:100EF000409A00210E460F46002529E000EE105AC8
:100F0000B8EE400ADFED160A60EE200A00EE104A45
:100F1000B8EE400A80EE801AB0EE41AAB0EE4A0A5E
:100F200008F01EFFF6EE000AB6EE001A41EE000AC7
:100F3000F0EE609A29EE290ABDEEC00A10EE100A02
:100F400000EB8000861947EBE07705F1010085B2E0
:100F5000A542D3DB30463946BDEC068BBDE8F081B7
:100F6000DA0F494010B52DED048BB0EE408A0446EF
:100F70002046B0EE480A00F03BFD0F48D0ED000AD5
:100F8000B0EE600A09F0A6FFB0EE409AF0EE480A13
:100F900009F024FEF0EE408AB0EEE80ADFED070A21
:100FA000B4EEE00AF1EE10FA03D80120BDEC048B98
:100FB00010BD0020FAE7000000100020CDCCCC3D91
:100FC00010B52DED028B0446B0EE408AF0EE608A3B
:100FD000B0EEC80AF0EEE80AB4EEE00AF1EE10FA5C
:100FE00007DBD4E908211046FFF76EFEBDEC028B4B
:100FF00010BDD4E90A211046FFF766FEF6E70000AF
:1010000000B591B0684600F033FA04A00E9B0A9A2E
:10101000089905F003F811B000BD000050205825D4
:101020006C642059256C6420256C756D730000007C
:1010300070B52DED068BB0EE408AB0EE609AB0EE42
:1010400041AAF0EE618AF5EEC08AF1EE10FA09D9F4
:10105000B5EEC08AF1EE10FA0FD1B5EEC09AF1EEFE
:1010600010FA0AD19FED261ADFED250A9FED240A1A
:1010700006F022F9BDEC068B70BDB5EEC08AF1EE2C
:1010800010FA10D0B5EEC09AF1EE10FA0BD01DA0F8
:1010900004F0B4FF9FED1A1ADFED190A9FED180A4C
:1010A00006F00AF9E6E7B5EEC08AF1EE10FA9FED18
:1010B0001A0ADFED1A0A40FE809A9FED190AF4EE33
:1010C000C08AF1EE10FA01DB642000E050200646F1
:1010D000B6EE000A08EEA90A10EE101A0846FFF74D
:1010E000CEFA04460D46324620462946B0EE4A1A4C
:1010F000F0EE490AB0EE480A00F088F800BFB9E700
:101100000000000064697374616E63652061786932
:1011100073206572726F72000008204500E81A455E
:1011200000002042F0B52DED068B81B0B0EE408A74
:10113000F0EE608AB0EE41AAB0EE619A06460F4624
:10114000B5EEC09AF1EE10FA09D9B5EEC08AF1EE0B
:1011500010FA10D1F5EEC08AF1EE10FA0BD19FED26
:10116000231ADFED220A9FED210A06F0A5F801B04F
:10117000BDEC068BF0BDB5EEC08AF1EE10FA10D0D2
:10118000F5EEC08AF1EE10FA0BD019A004F036FF8C
:101190009FED161ADFED150A9FED140A06F08CF884
:1011A000E5E7B5EEC08AF1EE10FA9FED160ADFED25
:1011B000160A40FE809AB6EE000A09EE290A10EEE1
:1011C000101A0846FFF75BFA04460D4601203B461D
:1011D0003246009020462946B0EE4A1AF0EE680AE0
:1011E000B0EE480A00F032F800BFC0E7000000008F
:1011F00064697374616E63652061786973206572D8
:10120000726F72000008204500E81A4570B52DED98
:10121000048B82B0B0EE408AF0EE608AB0EE419A64
:1012200005460E46144601202346224600902846D5
:101230003146B0EE491AF0EE680AB0EE480A00F006
:1012400005F802B0BDEC048B70BD00002DE9F04F35
:101250002DED048B99B0B0EE408AF0EE608AB0EECE
:10126000419A04460D4690469946DDF898A09FEDB8
:10127000490A8DED010A00210846091BA84109DA37
:10128000B5EEC08AF1EE10FA11D1F5EEC08AF1EE9A
:1012900010FA0CD19FED3F1ADFED3E0A9FED3D0A9B
:1012A00006F00AF819B0BDEC048BBDE8F08F02A877
:1012B000FFF748FD834600F053FD0BF041FB17900C
:1012C000179816904846F0EE680AB0EE480AFFF705
:1012D000FFFD06460F4601A8534616AA17A900901F
:1012E0004046B0EE492AF0EE681AB0EE481ADFED3B
:1012F000290A9FED280A00F01DFB1DE006A800F05A
:10130000B7F8F0EE680AB0EE480A06A8FFF758FEF4
:1013100080197941001BA94100DB0EE001A950466C
:10132000B0EE491AF0EE680AB0EE480AFFF7DCFCAE
:1013300016A917A800F0F2FCE0E700BF01A8534689
:1013400016AA17A900904846B0EE492ADFED111AF7
:101350009FED101AF0EE680AB0EE480A00F0EAFAC3
:101360009FED0C1ADFED0B0A9FED0A0A05F0A4FFB2
:1013700014200AF049FD594602A8FFF703FDFFF7C4
:101380003FFEB0EE490A00F0EFFC32200AF03CFDCF
:1013900000BF87E7000000002DE9F04705460C4636
:1013A00090460DB9BDE8F0874FF000090FE004EB5F
:1013B000C9000A220023D0E900613046FEF7B3FFDE
:1013C00005EBC90203C209F1010000F0FF09B9F100
:1013D000040FECDB0023D4E90001424263EB01007F
:1013E000D4E9021C531840EB0C00D4E9041259183C
:1013F0005041D4E906238E1A60EB03012822002312
:101400003046FEF790FFC5E90801D4E90030D4E981
:1014100002219A184841D4E90431D21A60EB010044
:10142000D4E906319E1A61EB0001282200233046E0
:10143000FEF779FFC5E90A01D4E9023CD4E90020AE
:10144000D11840EB0C00D4E9042389185841D4E9A1
:1014500006238E1840EB0301282200233046FEF7B6
:1014600062FFC5E90C01C5F8388000BF9AE70000AB
:1014700070B5044602F0D6F8054600F041F803487E
:10148000034902682046FFF787FF70BD580000201F
:10149000E00B002010B504460AF006FC044805499C
:1014A00002682046FFF778FF0AF02CFC10BD000010
:1014B00058000020E00B00200748008840B906488B
:1014C000408828B90448808810B90348C08808B10A
:1014D000012070470020FCE74A00002010B502F010
:1014E000A1F8044600F00CF820210348FEF765FF40
:1014F00000200249086010BDE00B002058000020C9
:101500002DE9F04188B0054600F0F0FC264800784F
:1015100038B92648056001202349087008B0BDE8A5
:10152000F081224800682C1A2048056014B1FFF7AA
:10153000C3FF00B9F2E7002028E01D4B33F910305B
:10154000DF170026A3FB041807FB048703FB0672C2
:101550006B4603EBC00306C3164B03EBC003D3E992
:10156000006376185341134F07EBC007C7E90063C8
:10157000114B03EBC003D3E90063761853410E4FC0
:1015800007EBC007C7E90063411CC8B20428D4DBDD
:101590000A48006820440949086009480068204456
:1015A0000749086000BFB9E7600000205400002030
:1015B0004A000020E00B0020000C00205800002012
:1015C0005C00002010B52DED0C8BF0EE409AB0EED3
:1015D00060AAF0EE418A04465148D0ED000AB0EE10
:1015E000600A09F077FCF0EE40BA38EEEB0AB0EE94
:1015F000408A05E09FED4B0A38EE400AB0EE408A83
:101600009FED490AB4EEC08AF1EE10FAF2DC05E073
:101610009FED440A38EE000AB0EE408A9FED430A7F
:10162000B4EEC08AF1EE10FAF2D39FED410A28EE33
:10163000000ADFED3D0A80EE20CAB0EE4C0A08F049
:101640008FFB60EE29DAB0EE4C0A08F031FCF0EEC8
:101650006DCA4AEE00CAB0EE4C0A08F029FCF1EE61
:10166000690A60EE20DAB0EE4C0A08F079FBB0EEC1
:101670006DDA0AEE00DAF0EE680AB0EE6B0A09F0F5
:10168000ADFAF0EE40AAB0EEEA0ADFED2A0AB4EEB7
:10169000E00AF1EE10FA02D89FED27BA11E0B0EEA1
:1016A000680A00F0D1FDB0EE40BAB5EEC0BAF1EE76
:1016B00010FAB0EE000AF8EE000A20FE200AB0EEA2
:1016C00040BA94ED000A3BEE409AB6EE000AB4EE42
:1016D000C09AF1EE10FA04DDB6EE000AB0EE409AC0
:1016E0000AE0BEEE000AB4EEC09AF1EE10FA03D2A0
:1016F000BEEE000AB0EE409A94ED000A30EE090A00
:1017000084ED000A94ED000AB0EE401AF0EE6C0A87
:10171000B1EE4D0A05F0D0FDBDEC0C8B10BD000004
:10172000001000200000B44300003443000034C324
:10173000DA0F4940CDCCCC3D0000000010B52DEDB6
:10174000048BF0EE408AB0EE609AB0EE418AF0EE83
:10175000481AB0EE481AF0EE490AB0EE680A00F0F6
:1017600003F8BDEC048B10BD10B52DED0C8BF0EE25
:10177000408AB0EE609AF0EE419AB0EE61AA30482D
:10178000D0ED000AB0EE600A09F0A4FBF0EE40CA0A
:1017900039EEEC0AB0EE408A05E09FED2A0A38EEF9
:1017A000400AB0EE408A9FED280AB4EEC08AF1EEFE
:1017B00010FAF2DC05E09FED230A38EE000AB0EEE5
:1017C000408A9FED220AB4EEC08AF1EE10FAF2D3FD
:1017D0009FED1F0A28EE000ADFED1B0AC0EE20AACB
:1017E000B0EE6A0A08F0BCFA20EE28DAB0EE6A0A17
:1017F00008F05EFBB0EE4DBA09EE00BAB0EE6A0A30
:1018000008F056FBF1EE680A20EE20DAB0EE6A0A24
:1018100008F0A6FAB0EE4DCA09EE00CAB0EE4A0AC8
:1018200000F012FDF0EE40BAB0EE6B1AF0EE4B0A8B
:10183000B1EE4C0A05F040FDBDEC0C8B10BD000074
:10184000001000200000B44300003443000034C303
:10185000DA0F494010B52DED0A8BF0EE408AB0EE5C
:10186000609AF0EE419A2D48D0ED000AB0EE600A81
:1018700009F030FBF0EE40BA39EEEB0AB0EE408AE8
:1018800005E09FED270A38EE400AB0EE408A9FED52
:10189000250AB4EEC08AF1EE10FAF2DC05E09FED05
:1018A000200A38EE000AB0EE408A9FED1F0AB4EE1F
:1018B000C08AF1EE10FAF2D39FED1C0A28EE000A5E
:1018C000DFED180A80EE20AAB0EE4A0A08F048FAC6
:1018D00020EE28CAB0EE4A0A08F0EAFAF0EE4CAA66
:1018E00049EE00AAB0EE4A0A08F0E2FAF1EE680A00
:1018F00020EE20CAB0EE4A0A08F032FAB0EE4CBA36
:1019000009EE00BA9FED0A1AF0EE6A0AB1EE4B0A30
:1019100005F0D2FCBDEC0A8B10BD000000100020C9
:101920000000B44300003443000034C3DA0F4940E0
:10193000000000002DE9F0472DED0A8BB0EE408A43
:10194000F0EE608AB0EE419AF0EE619AB0EE42AAF3
:1019500004460E4617469846DDF848901CB9BDEC83
:101960000A8BBDE8F08700253BE000EE105AB8EE88
:10197000400ADFED1E0A60EE200A00EE104AB8EEC3
:10198000400A80EE801AB0EE41CAB0EE4C0A08F070
:10199000E7F9F6EE000AB6EE001A41EE400AF0EE64
:1019A00060AA79EE480AB0EE480A00EEAA0AB0EE44
:1019B00040BA79EEE80AB0EE680A00EEAA0AF0EE44
:1019C00040BA49464046B0EE4A1AF0EE6B0AB0EE15
:1019D0004B0AFFF789F93946304600F09FF9681C39
:1019E00085B2A542C1DB00BFB9E70000DA0F49406C
:1019F0002DE9F0412DED048BF0EE408A044601F014
:101A000011FE07462046B0EE680A00F033F820B910
:101A10000020BDEC048BBDE8F0811448D0ED000A35
:101A2000B0EE600A09F056FAB0EE409AF0EE680A9D
:101A300009F0D4F8B0EE408AB0EEC80ADFED0C0A27
:101A4000B4EEE00AF1EE10FA01D80120E1E701F06E
:101A5000E9FDC51BA54201D30020DAE7661B30462D
:101A6000B0EE680A00F006F8D3E70000001000208E
:101A7000CDCCCC3D70B52DED0A8B82B0F0EE40BAE6
:101A8000044601F0CFFD064600259FED9B0AB0EE0F
:101A9000408A9FED990AF0EE408A9FED970AF0EE9A
:101AA000409A964890ED030AB1EE400AF0EE40AA43
:101AB0000AF046FF01900198009009E18F48D0EDAF
:101AC000000AB0EE600A09F005FAB0EE40CAF0EE86
:101AD0006B0AB0EE4C0A09F081F8B0EE40BA8748C4
:101AE00090ED030AB1EE400AF0EE40CA7CEEEA0A3D
:101AF000B5EE001AB0EE6A0A01EE200AF0EE40AA36
:101B0000B0EECB0ADFED7E0AB4EEE00AF1EE10FA99
:101B100024D8681CC5B29FED780AF0EE408A9FED8C
:101B2000761ADFED750A9FED740A05F0DAFB0A2DCF
:101B30000FD39FED711ADFED700A9FED6F0A05F06C
:101B4000D0FB64200AF060F9012002B0BDEC0A8BE2
:101B500070BD694601A800F0E1F8B9E00025B0EEDB
:101B6000081A2BEE011AB0EE410A9FED661AB4EE88
:101B7000C10AF1EE10FA04DD9FED621AB0EE410ADF
:101B80000AE09FED611AB4EEC10AF1EE10FA03D239
:101B90009FED5D1AB0EE410A70EE6A0ADFED5B1A46
:101BA000B0EE691A00EEA11AF0EE419AB3EE0E1AE9
:101BB000F4EEC19AF1EE10FA04DDB3EE0E1AF0EE77
:101BC000419A0AE0BBEE0E1AF4EEC19AF1EE10FA59
:101BD00003D2BBEE0E1AF0EE419ADFED4D1A80EE05
:101BE000211ADFED4C1A01EEA01ADFED4B1A01EEBF
:101BF000A91AB0EE418A9FED431AB4EEC18AF1EE04
:101C000010FA04DD9FED3F1AB0EE418A0AE09FED25
:101C10003E1AB4EEC18AF1EE10FA03D29FED3A1AE1
:101C2000B0EE418A28EE280AB5EEC00AF1EE10FAAD
:101C30000BDBB0EEC80AF0EEE80AB4EEE00AF1EE13
:101C400010FA02DDB0EE000A01E0B1EE000AB0EEDB
:101C5000409A38EE680AB0EE40AAB4EEC9AAF1EE96
:101C600010FA02DDB0EE49AA0AE0B1EE490AB4EE7C
:101C7000C0AAF1EE10FA03D2B1EE490AB0EE40AAC2
:101C800038EE8A0AB0EE408AB0EEC80AF7EE000AD3
:101C9000B4EEE00AF1EE10FA0BD2B5EEC0BAF1EEF6
:101CA00010FAB7EE000AFFEE000A30FE200AB0EE8E
:101CB000408AF0EE488AB0EE481ADFED0F0A9FED39
:101CC0000E0A05F00EFB694601A800F027F800BFD8
:101CD00001F0A8FC801BA042FFF4F0AE9FED061AB5
:101CE000DFED050A9FED040A05F0FBFA64200AF017
:101CF0008BF8002029E70000000000000010002001
:101D0000CDCCCC3D00001643000016C30AD7A33B40
:101D10003D0A873FCDCC4C3E9A99193E2DE9F041C2
:101D200007460C46052138460AF09EF80AF008FEE0
:101D300006462068351A266007480068854201D9A2
:101D400005480560052D04D904480068401C034976
:101D50000860BDE8F0810000200000201C00002089
:101D600010B5FFF7BBFB10BD00B52DED088B91B092
:101D7000B0EE408A6846FFF77BFBDDE9082110469C
:101D8000FEF756FC00EE100AF2EE040A20EE200ADE
:101D9000DFED2A0A80EE201AF0EE418ADDE90A2101
:101DA0001046FEF745FC00EE100AF2EE040A20EEA3
:101DB000200ADFED230A80EE201AB0EE419A9FED53
:101DC000210A28EE000ADFED200A80EE201AF0EE4C
:101DD000419AB0EE690A07F0C3FF20EE28BAB0EED0
:101DE000690A08F065F809EE00BAB0EE4BAAB0EE49
:101DF000690A08F05DF8F1EE680A20EE20BAB0EE4C
:101E0000690A07F0ADFF09EE00BAF0EE4BAA09F03F
:101E10004BFF0E4890ED040A30EE0A0A80ED040AEA
:101E200090ED030A30EE2A0A80ED030A09F06AFFFA
:101E3000FFF754FB11B0BDEC088B00BD0008204536
:101E400000E81A45DA0F494000003443C00B002077
:101E500010B52DED048BF0EE408AB0EE609AF0EEF6
:101E6000419A1B4890ED000AB0EE408A05E09FEDD4
:101E7000190A38EE400AB0EE408A9FED170AB4EE18
:101E8000C08AF1EE10FAF2DC05E09FED120A38EE9E
:101E9000000AB0EE408A9FED110AB4EEC08AF1EE5E
:101EA00010FAF2D309F000FF0D48C0ED048A80ED6E
:101EB000039AC0ED059A0B4880ED008A01200A497B
:101EC000087009F01FFFFFF709FBBDEC048B10BD84
:101ED000001000200000B44300003443000034C36D
:101EE000C00B002064000020680000202D4890ED09
:101EF000001AB0EE410A05E09FED2B1A30EE411AB0
:101F0000B0EE410A9FED291AB4EEC10AF1EE10FAC3
:101F1000F2DC05E09FED241A30EE011AB0EE410A22
:101F20009FED231AB4EEC10AF1EE10FAF2D3214864
:101F3000007848B9204880ED000A204880ED050A65
:101F400001201C49087070471B4890ED001A70EE84
:101F5000410A05E09FED141A30EEC11AF0EE410A75
:101F60009FED121AF4EEC10AF1EE10FAF2DC05E070
:101F70009FED0D1A30EE811AF0EE410A9FED0C1A1A
:101F8000F4EEC10AF1EE10FAF2D30C4890ED051A06
:101F900031EE201A80ED051A074880ED000A00BFD7
:101FA000D1E70000001000200000B44300003443DB
:101FB000000034C36800002064000020C00B002033
:101FC0002DE9F04705460C4616461F46DDE908890F
:101FD000022D02DD0020BDE8F087012008F0CAFDD7
:101FE000002007F0EDFDB9F1000F03D0022D01D163
:101FF000214802E0284600F039FF8246504604F0AE
:1020000069FB142007F004FC1E2007F0D9FD022014
:1020100008F0B0FD642009F0F7FE002007F0D0FDC5
:10202000B8F1000F05D0322C03D15F2007F0F0FB90
:1020300004E0322C02D1002007F0EAFB304604F025
:1020400049FB384607F0E4FB204607F0B9FD0120C4
:1020500008F090FD642009F0D7FE322C06D1012053
:1020600008F074FD142007F0ABFD02E0322007F009
:10207000A7FD0120AFE7000076FEFFFF10B50120AD
:1020800008F064FD002007F09BFD6FF0B30004F042
:1020900021FB052007F0BCFB322007F091FD10BDAD
:1020A00010B5012008F052FD002007F089FD6FF007
:1020B000B30004F00FFB122007F0AAFB142007F076
:1020C0007FFD10BD10B5024800F084FF10BD000078
:1020D0003C0A002010B5024800F07CFF10BD000053
:1020E0007C09002010B5024800F074FF10BD00000C
:1020F0009C0A002010B5024800F06CFF10BD0000E3
:10210000DC0900200146087810381823B0FBF3F2F0
:102110000848805CC865032A05D908686FF3090080
:10212000001D886503E008686FF309008865886D05
:102130007047000040CF0008014600208A6A8B6982
:10214000CBB932B1012A0DD0022A03D0032A10D113
:102150000EE000BFCB6A03F08073B3F1807F00D143
:10216000012007E0CB6AB3F1C07F00D1012001E07C
:1021700000E000BF34E08B69B3F5005F1AD132B1E3
:10218000012A07D0022A03D0032A11D10AE000BF96
:1021900001200EE0CB6A03F08073B3F1807F00D1A1
:1021A000012006E0CB6AB3F1C07F00D1012000E03E
:1021B00000BF15E032B1012A05D0022A04D0032A5B
:1021C0000CD103E000BF00BF012008E0CB6A03F0A0
:1021D0008073B3F1807F00D1012000E000BF00BF19
:1021E000704730B50468246824F4802405682C60A6
:1021F000046863608468402C04D10468A2600468A9
:10220000E16003E00468A1600468E26030BD7047EB
:1022100010B5064802F064FB04480068C06840F04E
:10222000010002490968C86010BD00009405002043
:10223000044A118800BF034A1288521A92B282429D
:10224000F9DD70474601002010B52DED048BB0EE8E
:10225000409A1C48D0ED000AB0EE600A08F03AFE41
:10226000F0EE408AB0EE498A05E09FED170A38EE9D
:10227000400AB0EE408A38EE680ADFED140AB4EE88
:10228000E00AF1EE10FAF0DC05E09FED0F0A38EEFF
:10229000000AB0EE408A38EE680ADFED0D0AB4EEAF
:1022A000E00AF1EE10FAF0D3F0EE680AB0EE480A58
:1022B000084805F0ADF8F0EE409AB1EE690ABDECC1
:1022C000048B10BD001000200000B4430000344314
:1022D000000034C3F00D002072B600BFFEE70146D7
:1022E000002901DA484270470846FCE700B585B08E
:1022F0004FF4FA7009F088FD03F0BEFC03F012FE03
:1023000052A153A003F0BAFF54A003F064FF55A0FC
:1023100003F0B5FF54A003F05DFF9FED550B53ECA8
:10232000102B55A003F07AFE6FF04C0007F0F0FB85
:10233000002829D153480078B0B15248037852A2FE
:102340001421684607F0AEFC694641A003F096FFF1
:1023500051A003F03FFF684603F032FF494801787F
:1023600050A003F04BFE0CE053A139A003F086FF10
:1023700051A003F02FFF50A003F022FF52A003F062
:102380003DFE002005B000BD54A003F023FF6FF018
:10239000330154A003F042FE6FF0330007F0F2F96E
:1023A000002828D137480078B0B13648037850A2C9
:1023B0001421684607F076FC694625A003F05EFF0D
:1023C0004FA003F007FF684603F0FAFE2D4801789E
:1023D0004EA003F013FE0CE051A11DA003F04EFF30
:1023E0004FA003F0F7FE4EA003F0EAFE50A003F06A
:1023F00005FE0020C6E753A003F0ECFE222154A006
:1024000003F00CFE222004F065F94FF47A7009F015
:10241000FBFC53A003F0DEFE04F08AF9012007F074
:1024200087F9142009F0F0FC022007F081F914204C
:1024300009F0EAFC4DA106A003F020FF4DA003F037
:10244000C9FE4FA003F0EAFD01209BE752554E0064
:1024500041524D20494E49540000000053544F5002
:10246000000000004F4646005A20494E49540000E3
:1024700000000000006053C0696E6974207A202556
:1024800064000000280100205A2054582046414989
:102490004C3A2575000000005A2054582046414906
:1024A0004C000000696E6974207A2074782066619F
:1024B000696C2025750000005A2052582054494D5F
:1024C000454F555400000000696E6974207A2072EF
:1024D000782074696D656F75740000005920494E4D
:1024E00049540000696E6974207920256400000059
:1024F00059205458204641494C3A257500000000A7
:1025000059205458204641494C000000696E6974B6
:102510002079207478206661696C202575000000A0
:10252000592052582054494D454F55540000000041
:10253000696E697420792072782074696D656F7591
:10254000740000004A4F494E5420494E495400003F
:102550006A6F696E7420256420646567000000005E
:10256000534554205A45524F00000000444F4E45F9
:10257000000000005A45524F20444F4E45000000D5
:1025800061726D20706F736520696E697420646F6D
:102590006E6500000146012904D0022904D00329F8
:1025A00006D103E003A0704703A0FCE704A0FAE70C
:1025B00005A0F8E752454400475245454E0000004B
:1025C000424C5545000000004241440010B52DED3D
:1025D000028BB0EE408A0EA003F0FDFD02E00EA0DB
:1025E00003F066FD4FF47A60B0EE480AFEF7BAFCDD
:1025F0000028F4D09FED0B1ADFED0A0A9FED090ABF
:1026000004F05AFE00F0BEFABDEC028B10BD0000D3
:10261000414C49474E000000616C69676E2072654D
:102620007472790000000000F8B50446204604F0FA
:102630001BF8022C0AD11648007816490870144875
:10264000007948701248007A887009E012480078D2
:10265000104908701048007948700F48007A887057
:102660000C498878FFF796FF05460A494878FFF736
:1026700091FF064607490878FFF78CFF0746334667
:102680003A46214605A0009503F0C8FCF8BD0000BD
:10269000BC10002014000020B0100020522564203F
:1026A00025732025732025730000000070B52DEDE3
:1026B000028B04460D462046FFF711FEA84204DCBB
:1026C0009FED230ABDEC028B70BD00EE104AB8EE00
:1026D000C00AF5EE000A20EE208AB3EE040AB4EE3A
:1026E000C08AF1EE10FA04DDB3EE040AB0EE408ABF
:1026F0000AE0BBEE040AB4EEC08AF1EE10FA03D28F
:10270000BBEE040AB0EE408AB5EEC08AF1EE10FAD4
:102710000BDDB0EE000AB4EEC08AF1EE10FA04D27E
:10272000B0EE000AB0EE408A0FE0B5EEC08AF1EEDE
:1027300010FA0AD2B8EE000AB4EEC08AF1EE10FA2E
:1027400003DDB8EE000AB0EE408AB0EE480AB9E701
:102750000000000010B505A003F060FC0121084650
:102760009FED060A00F056F810BD000070726F630E
:10277000657373696E67206172656100000034C320
:1027800010B52DED048BF0EE408AB0EE609AB0EEFD
:10279000418AF0EE481A9FED0A1AF0EE490AB0EEAF
:1027A000680AFEF745FC0748006810B9064800684B
:1027B00018B10120BDEC048B10BD0020FAE7000029
:1027C00000000000800100208401002010B500F00E
:1027D000A1FA0120FFF728FF10BD000070B50446E4
:1027E00000F020FF05460AE00848006810B90848D4
:1027F000006808B1012070BD142009F005FB00F04D
:1028000011FF401BA042EFD30020F4E7800100201D
:10281000840100202DE9F04F2DED028B81B0B0EE48
:10282000408A07468846022F01D1322000E08A20E4
:102830008146022F04D1B8F1000F01D1012000E040
:10284000002000907A480078032809DA7848017857
:1028500078A003F0D3FB01B0BDEC028BBDE8F08F94
:10286000002077490870774908700220764908707F
:1028700006F03CFE06F0BCFE0098A0B17D2174205D
:1028800005F092F906F0EEFE4FF4967009F0BCFAEE
:10289000FFF706FC0122B0EE480A6CA1022007F007
:1028A00033F8012412E07A21732005F07DF906F057
:1028B000DEFE4FF4967009F0A7FAFFF7DFFBB0EEEB
:1028C000480A62A1022005F04FFC04466CB30025C3
:1028D00028E06048465D5C480078864200D000BF32
:1028E000032E03D1022D01DA012000E000208246F0
:1028F000012E06D1012000F0CFFA022801D10120DB
:1029000000E0002083465B4652464946304604F0CC
:102910008DFE00B908E04A480078401C484908701C
:10292000681CC5B2032DD4DB00BF454800780328DE
:1029300009DA4348017848A003F060FB06F09CFEEA
:1029400006F051FE87E747A003F068FBB8F1000FDF
:102950001CD106F091FE06F046FE9FED451ADFED14
:10296000440A9FED430A04F0A7FC002007F028F971
:10297000002006F04DFF002003F0ACFEB0EE480A48
:10298000FFF724FE3BA003F049FB64E706F0AEFD31
:102990009FED371ADFED360A9FED350A04F08CFC07
:1029A00006F06AFE06F01FFE002514E02948465D89
:1029B0004946304604F06DFE22480078401C21490B
:1029C00008703046FFF7E6FD824651462CA003F022
:1029D00025FB681CC5B2032DE8DB06F04DFE06F0B2
:1029E00002FE9FED231ADFED220A9FED210A04F07B
:1029F00063FC002007F0E4F8002006F009FF002047
:102A000003F068FEB0EE480AFFF7E0FD64202049BD
:102A100008700C480078032803DB1EA003F0FEFAC0
:102A200004E0084801781FA003F0E8FA00BF12E7AD
:102A3000170000206361756768742025640000003A
:102A400018000020190000201A00002047524545B8
:102A50004E00000014000020706C61636564202546
:102A600064000000616C6C20706C61636564000040
:102A7000000000006172656120646F6E65000000F7
:102A80007265636F766572202573206F6B0000009E
:102A900008000020616C6C207265636F766572655A
:102AA000640000007265636F76657265642025645A
:102AB0000000000010B5FFF719FC00B910BD4FF47D
:102AC000FA7009F0A1F903F02DFA24A003F0A6FA98
:102AD00000202649087026490870264908700220FF
:102AE0002549087004F0F0FDFFF770FE04F034FE95
:102AF00000F086F804F062FEFFF72CFE1D48007817
:102B0000032800DADAE704F0BFFE012000F062F8E3
:102B100017480078032800DAD0E704F02FFF0020E0
:102B2000124908700220FFF77FFD00F069F804F0F9
:102B300045FEFFF70FFE0F480078032800DABDE7D7
:102B400004F0A2FE022000F045F8094800780328AE
:102B500000DAB3E704F08AFF00BFAFE77461736B7C
:102B600020666C6F77207374617274001700002008
:102B700018000020190000201A00002010B503F0F2
:102B800007FB10BD10B52DED028B88B00D48D0EDC0
:102B9000000AB0EE600A08F09DF910EE104A2046D7
:102BA000FDF7ADFD41EC180B8DED008B06A2182151
:102BB00002A807F077F802A803F00DFB08B0BDECFF
:102BC000028B10BD001000205941573A252E326665
:102BD0000000000010B5044604A003F01FFA002115
:102BE00020469FED060AFFF715FE10BD73746F7245
:102BF000616765206172656100000000000087C3A5
:102C000070B506F073FC7D21742004F0CDFF06F052
:102C1000EFFC06F027FD4FF4967009F0F5F806F08A
:102C200065FF4FF4FA7009F0EFF8002546E02D48F3
:102C3000445D2D480470012C01DB032C04DD21468A
:102C40002AA003F0DBF93BE02046FFF7A3FC064691
:102C500000229FED2A0A3146204606F055FE9FEDE0
:102C6000271ADFED260A9FED250A04F025FB1F2019
:102C7000234908702D212046FDF742FF20202049DE
:102C8000087020480078401C1E4908702046FFF755
:102C900081FC064631461CA003F0C0F9022D0BDA78
:102CA00028201749087006F021FF2C2014490870CD
:102CB0004FF4967009F0A8F8681CC5B2032DB6DB76
:102CC00000BF06F0D9FC06F08EFC9FED0C1ADFED7C
:102CD0000B0A9FED0A0A04F0EFFA002006F070FFDD
:102CE00070BD000014000020090000206261642013
:102CF000636F6C6F7220256400000000000000000C
:102D000008000020170000206361746368202573A9
:102D1000206F6B0010B500204749086047490860E4
:102D200047A003F0ACFA48A003F078F96DE04FF447
:102D30007A70FFF753FD00B168E0B0EE001ADFEDE6
:102D4000440AB1EE040AFFF71BFD00B15EE04FF448
:102D50007A70FFF743FD00B158E0B0EE001ADFEDE6
:102D60003C0AB9EE040AFFF70BFD00B14EE0B0EEED
:102D7000001ADFED370AB9EE040AFFF701FD00B1D2
:102D800044E04FF47A70FFF729FD00B13EE0B0EE69
:102D9000001ADFED2F0AB1EE040AFFF7F1FC00B1D3
:102DA00034E0B0EE001AF1EE040A9FED290AFFF7B5
:102DB000E7FC00B12AE04FF47A70FFF70FFD00B195
:102DC00024E0B0EE001AF9EE040A9FED210AFFF7A5
:102DD000D7FC00B11AE0B0EE001AF9EE040A9FED3C
:102DE0001C0AFFF7CDFC00B110E04FF47A70FFF73A
:102DF000F5FC00B10AE0B0EE001AF1EE040A9FED16
:102E0000140AFFF7BDFC00B100E090E700BF9FEDA2
:102E1000101ADFED0F0A9FED0E0A04F04DFAFFF7CE
:102E2000ADFE0CA003F02BFA0448026802480168CA
:102E30000AA003F0F3F810BD8001002084010020F7
:102E400057414954205152007761697420717200D2
:102E5000000000005152204F4B00000071722025ED
:102E60003033642B2530336400000000014621B16B
:102E7000012905D0022909D105E0064840687047BC
:102E80000448C068FBE703484069F8E74FF0FF30AB
:102E9000F5E70000480B002001460A480078884208
:102EA00001D1002070470748007A884201D10120F3
:102EB000F8E70448007C884201D10220F2E7FF20B5
:102EC000F0E70000480B002010B5DFED071A96214F
:102ED000B6EE001ADFED050A9FED050A054804F07D
:102EE000F7FA03F039FB10BD000016C30000000024
:102EF00048E11A40F00D002070B50446A56D00F0C1
:102F000091FB064694F83500022808D080206065C1
:102F100000BF002084F8340000BF012070BD20688D
:102F2000006820F01600216808602068406920F0E1
:102F3000800021684861206C08B9A06C28B1206825
:102F4000006820F00800216808602068006820F010
:102F500001002168086010E000F064FB801B052878
:102F60000BD920206065032084F8350000BF0020C5
:102F700084F8340000BF0320D0E72068006800F028
:102F800001000028E8D194F85C103F208840A86038
:102F9000012084F8350000BF002084F8340000BF11
:102FA00000BFBBE7014691F83500022803D080201E
:102FB000486501207047052081F8350008680068E1
:102FC00020F001000A6810600020F3E70146486D18
:102FD00070470000F8B50446002000908C48006857
:102FE0004FF41651B0FBF1F7A56D2E6894F85C1004
:102FF00008208840304098B12068006800F0040044
:1030000070B12068006820F004002168086094F81E
:103010005C1008208840A860606D40F00100606589
:1030200094F85C1001208840304068B12068406905
:1030300000F0800040B194F85C1001208840A86046
:10304000606D40F00200606594F85C1004208840D8
:10305000304068B12068006800F0020040B194F888
:103060005C1004208840A860606D40F0040060653A
:1030700094F85C1010208840304078B320680068D5
:1030800000F0080050B394F85C1010208840A8604D
:103090002068006800F4802080B12068006800F497
:1030A000002028B9206CC8B12046216C884715E063
:1030B000A06C98B12046A16C88470FE0206800689A
:1030C00000F4807028B92068006820F008002168AA
:1030D0000860206C10B12046216C884794F85C1081
:1030E000202088403040002865D02068006800F02B
:1030F000100000285FD094F85C1020208840A86061
:1031000094F83500052828D12068006820F01600C2
:10311000216808602068406920F0800021684861CB
:10312000206C08B9A06C28B12068006820F0080065
:103130002168086094F85C103F208840A860012056
:1031400084F8350000BF002084F8340000BF206DF3
:1031500010B12046216D8847F8BD2068006800F452
:10316000802080B12068006800F4002028B9606CDD
:1031700010B12046616C88471DE0E06BD8B1204655
:10318000E16B884717E02068006800F4807068B938
:103190002068006820F0100021680860012084F891
:1031A000350000BF002084F8340000BFE06B10B190
:1031B0002046E16B8847606D38B3606D00F0010018
:1031C000F0B1052084F835002068006820F0010087
:1031D0002168086000BF0098401C0090B84200D9E8
:1031E00005E02068006800F001000028F3D100BF6E
:1031F000012084F8350000BF002084F8340000BFAF
:10320000E06C10B12046E16C884700BFA4E70000E5
:10321000040000202DE9F0410446002500F002FAE8
:10322000074614B90120BDE8F081606A00B100BF13
:10323000022084F8350000BF002084F8340000BF6D
:103240002068006820F00100216808600AE000F0B2
:10325000E9F9C01B052805D920206065032084F802
:103260003500E0E72068006800F001000028EED19A
:103270002068056821480540D4E901010843E16858
:1032800008432169084361690843A1690843E1696A
:103290000843216A08430543606A042803D1D4E93E
:1032A0000B0108430543206805602068456925F047
:1032B0000705606A0543606A04280DD1A06A0543CA
:1032C000E06A48B12046FEF737FF28B1402060652C
:1032D000012084F83500A6E7206845612046FEF706
:1032E00011FF064694F85C103F208840B060002033
:1032F0006065012084F83500002094E73F8010F0DD
:103300002DE9F04704460D4616461F464FF00008CB
:10331000D4F8589000BF94F83400012802D102205C
:10332000BDE8F087012084F8340000BF94F8350030
:1033300001282BD1022084F83500002060653B462F
:10334000324629462046FEF74CFF94F85C103F2099
:103350008840C9F808002068006840F0160021681D
:1033600008602068406940F0800021684861206C56
:1033700028B12068006840F00800216808602068D3
:10338000006840F001002168086006E000BF0020EE
:1033900084F8340000BF4FF002084046C0E7000048
:1033A00010B54FF0FF300E49086000200860401E45
:1033B000091D086000200860401E09491039086096
:1033C00000200860401E091D086000200860401EA3
:1033D000091D08600020086000F08EF9002010BD73
:1033E0002038024070B5044600F01CF90646254618
:1033F000681C10B104480078054400BF00F012F9C1
:10340000801BA842FAD370BDFC010020F8B502462B
:103410000B46002100250024002000BFDEE001262D
:1034200006FA01F51E6806EA0504AC4272D11E795F
:1034300006F00306012E04D01E7906F00306022EC4
:1034400013D190684F000326BE40B0434F00DE68A2
:10345000BE4030439060506801268E40B0431E79D4
:10346000C6F300168E40304350601E7906F0030606
:10347000032E09D0D0684F000326BE40B0434F0052
:103480009E68BE403043D0601E7906F00306022ECF
:1034900013D1CF0802F1200656F827004E07F70E89
:1034A0000F26BE40B0434F07FF0E1E69BE4030439B
:1034B000CF0802F1200646F8270010684F000326C7
:1034C000BE40B0431E7906F003064F00BE403043B5
:1034D00010605E6806F44036002E7ED000BF414E7C
:1034E000366846F480463F4F3E603E46366806F4F6
:1034F0008046009600BF00BF3B4E8F0856F827005D
:103500008E07370F0F26BE40B043384EB24202D16D
:1035100000262EE061E0364EB24201D1012628E0BD
:10352000344EB24201D1022623E0334EB24201D1E1
:1035300003261EE0314EB24201D1042619E0304E7E
:10354000B24201D1052614E02E4EB24201D1062628
:103550000FE02D4EB24201D107260AE02B4EB242B7
:1035600001D1082605E02A4EB24201D1092600E029
:103570000A268F073F0FBE4030431B4E8F0846F888
:103580002700244E3068A0435E6806F4801606B11A
:103590002043204E3060361D3068A0435E6806F43C
:1035A000001606B120431B4E361D3060194E361FE3
:1035B0003068A0435E6806F4003606B12043154E1D
:1035C000361F3060361F3068A0435E6806F48036D0
:1035D00006B120430F4E083E3060491C1029FFF40D
:1035E0001EAFF8BD443802400838014000000240D8
:1035F0000004024000080240000C0240001002409B
:103600000014024000180240001C0240002002404A
:1036100000240240083C01400AB1816101E00B0432
:10362000836170470148006870470000F401002082
:103630000348006803490978084401490860704755
:10364000F4010020FC01002010B50848006840F497
:10365000007006490860032000F0C4F8002000F064
:1036600007F800F04BF8002010BD0000003C0240BD
:1036700070B588B0044600250026002221462D2082
:1036800000F072F82D2000F05FF800BF16480068C7
:1036900040F48070144908600846006800F48070A7
:1036A000019000BF00BF02A903A800F033FD00F0A5
:1036B00059FD45000D48B5FBF0F0461E0C480D497C
:1036C000086040F2E7310B48C160466000210161AB
:1036D000816001F0ABF820B9064801F055F908B057
:1036E00070BD0120FBE700004038024040420F005F
:1036F00000200040FC0A00207047000008B500BF11
:103700001048006840F080500E4908600846006884
:1037100000F08050009000BF00BF00BF081D00688F
:1037200040F48040091D08600846006800F48040AD
:10373000009000BF00BF00220F21901E00F014F87F
:1037400008BD00004038024001460846002809DB59
:1037500000F01F0301229A4043099B0003F1E0237C
:10376000C3F8002100BF70472DE9F05F80460D4689
:103770001646002706F0D8FA074639462A46334649
:1037800001F00700C0F1070ABAF1040F02D94FF0A7
:10379000040A01E0C0F1070AD14600F1040ABAF1B7
:1037A000070F02D24FF0000A01E0A0F1030AD4464D
:1037B0004FF0010A0AFA09FAAAF1010A0AEA020A12
:1037C0000AFA0CFA4FF0010B0BFA0CFBABF1010BF0
:1037D0000BEA030B4AEA0B042146404606F0ACFA1A
:1037E000BDE8F09F00BF00F00702064B19684FF6D6
:1037F000FF031940044B0B4343EA0221014B1960BC
:1038000000BF70470CED00E00000FA0538B5002459
:1038100000BF2048006840F080501E4908600846FC
:10382000006800F08050009000BF00BF1A48006898
:1038300040F4803018490860FFF7F4FE044607E0C2
:10384000FFF7F0FE001BB0F57A7F01D9032038BDE9
:103850001148406800F48030B0F5803FF0D10E4848
:10386000006840F400300C490860FFF7DBFE0446B6
:1038700007E0FFF7D7FE001BB0F57A7F01D90320E0
:10388000E5E70548406800F40030B0F5003FF0D1AE
:103890000020DCE740380240007000402DE9F8438A
:1038A0000446002600250027A846A946207800F0F7
:1038B000010088B100BFFE48006820F40000FC4908
:1038C000086008460068616B0843F949086000BF5A
:1038D000606B08B94FF00108206800F40020B0F5D3
:1038E000002F13D1F2488430006820F44010E16BBF
:1038F0000843EF4984310860E06BB0F5801F01D1C7
:103900004FF00108E06B08B94FF00109206800F49E
:103910008010B0F5801F13D1E5488430006820F492
:103920004000216C0843E24984310860206CB0F506
:10393000800F01D14FF00108206C08B94FF0010948
:10394000206800F08070B0F1807F01D14FF0010855
:10395000207800F02000202870D100BFD4483830F3
:10396000006840F08050D24938310860084600684D
:1039700000F08050009000BF00BFCE48006840F4C7
:103980008070CC490860FFF74DFE064607E0FFF760
:1039900049FE801B642802D90320BDE8F883C5488E
:1039A000006800F480700028F1D0C14868300068D9
:1039B00000F4407585B3208E00F44070A8422BD0EF
:1039C000BB486830006820F44075B948683000682A
:1039D00040F48030B649683108600846006820F439
:1039E0008030086008460560006800F0010098B16A
:1039F000FFF718FE064608E0FFF714FE801B41F2B1
:103A00008831884201D90320C7E7A9486830006897
:103A1000C0F340000028EFD000BF208E00F44070BB
:103A2000B0F5407F0BD1A248006820F4F810A24AFC
:103A3000216B114008439E49086006E010E09C4855
:103A4000006820F4F8109A490860994868300068C6
:103A5000218EC1F30B01084395496831086000BF0E
:103A6000207800F01000102810D100BF904884305A
:103A7000006820F080708E49843108600846006834
:103A8000A16B08438A498431086000BF208800F494
:103A90008040B0F5804F09D185488830006820F417
:103AA0004030616E0843824988310860208800F404
:103AB0000040B0F5004F09D17D488830006820F4FF
:103AC0004020A16E08437A4988310860206800F4DC
:103AD0008030B0F5803F09D175488830006820F407
:103AE0004010E16E0843724988310860206800F494
:103AF0000030B0F5003F09D16D488830006820F4EF
:103B00004000216F08436A4988310860207800F03E
:103B10004000402809D166488830006820F0030042
:103B2000616C0843624988310860207800F08000A9
:103B3000802809D15E488830006820F00C00A16C14
:103B400008435B4988310860208800F48070B0F534
:103B5000807F09D156488830006820F03000E16C41
:103B60000843534988310860208800F40070B0F59C
:103B7000007F09D14E488830006820F0C000216DD8
:103B800008434B4988310860208800F48060B0F514
:103B9000806F09D146488830006820F44070616D1C
:103BA0000843434988310860208800F40060B0F57C
:103BB000006F09D13E488830006820F44060A16D54
:103BC00008433B4988310860208800F48050B0F5F4
:103BD000805F09D136488830006820F44050E16D9C
:103BE0000843334988310860208800F40050B0F55C
:103BF000005F09D12E488830006820F44040216ED3
:103C000008432B4988310860206800F48000B0F533
:103C1000800F09D126488830006820F08060A16FAD
:103C20000843234988310860206800F40010B0F58B
:103C3000001F0FD11E488830006820F00060E16F3F
:103C400008431B4988310860E06FB0F1006F01D173
:103C50004FF00109207800F00800082801D14FF04A
:103C60000109206800F48020B0F5802F09D11048A8
:103C70008830006820F04070616F08430C4988313B
:103C80000860206800F40000B0F5000F0AD1084871
:103C90008830006820F08050D4F880100843044930
:103CA00088310860B8F1010F0DD0206806E00000EF
:103CB0000838024000700040FFFCFF0F00F0007069
:103CC000B0F1007F7DD1AD48006820F08060AB4945
:103CD0000860FFF7A7FC064606E0FFF7A3FC801B81
:103CE000642801D9032058E6A4480068C0F3C060E6
:103CF0000028F2D1207800F00100B8B1606BA8B9BB
:103D00009E4884300068C0F301459C4884300068B8
:103D1000C0F303676068800140EA054040EA07613C
:103D2000207A41EA0070954984310860206800F4E7
:103D30000020B0F5002F03D1E06BB0F5801F09D053
:103D4000206800F48010B0F5801F24D1206CB0F5FD
:103D5000800F20D1894884300068C0F3014587482E
:103D600084300068C0F302776068800140EA054152
:103D7000207B41EA006040EA077080498431086096
:103D80007E488C30006820F01F00616A491E08439D
:103D90007A498C310860206800F08070B0F1807F33
:103DA00017D1764884300068C0F3036573488430C7
:103DB0000068C0F3027760688101208A41EA004010
:103DC00000E031E040EA056040EA07706B49843169
:103DD0000860206800F00070B0F1007F0DD16068CD
:103DE0008101208A41EA0041207B41EA0061207A7A
:103DF00041EA00706149843108606048006840F021
:103E000080605E490860FFF70DFC064606E0FFF79C
:103E100009FC801B642801D90320BEE557480068CF
:103E2000C0F3C0600028F2D0B9F1010F7ED1534831
:103E3000006820F0805051490860FFF7F3FB064608
:103E400006E0FFF7EFFB801B642801D90320A4E5FF
:103E50004A480068C0F340700028F2D1206800F49E
:103E60000020B0F5002F01D1E06B38B1206800F4DC
:103E70008010B0F5801F22D1206C00BB3F488830F5
:103E80000068C0F301453D4888300068C0F3027700
:103E90006069800140EA0541207E41EA006040EA15
:103EA0000770364988310860081D006820F4F85111
:103EB000A06A401E41EA002030498C310860206829
:103EC00000F40010B0F5001F19D1E06FB0F1006FE1
:103ED00015D12A4888300068C0F303652748883028
:103EE0000068C0F3027760698101208C41EA0040DC
:103EF00040EA056040EA0770204988310860207870
:103F000000F00800082820D11C4888300068C0F361
:103F100003651A4888300068C0F301476069800172
:103F200040EA074040EA0561207F00E024E041EAE2
:103F30000070124988310860081D006820F4403084
:103F4000E16A08430D498C3108600C48006840F074
:103F500080500A490860FFF765FB064606E0FFF758
:103F600061FB801B642801D9032016E50348006823
:103F7000C0F340700028F2D000200EE50038024067
:103F800070B504460D4600260CB9012070BD5C4892
:103F9000006800F00F00A8420ED25948006820F0D7
:103FA0000F002843564908600846006800F00F00DB
:103FB000A84201D00120E9E7207800F002000228A1
:103FC0001DD1207800F00400042805D14D48006878
:103FD00040F4E0504B490860207800F008000828C1
:103FE00005D14848006840F46040464908604548AB
:103FF000006820F0F000A16808434249086020787A
:1040000000F0010090B36068012807D13D480838EE
:104010000068C0F34040A0B90120B7E760680228FB
:1040200007D1384808380068C0F3406048B901201B
:10403000ACE7344808380068C0F3400008B90120F4
:10404000A4E73048006820F00300616808432D4968
:104050000860FFF7E7FA064609E0FFF7E3FA801B7E
:1040600041F28831884202D903208FE707E02548D2
:10407000006800F00C006168B0EB810FEDD12048C2
:10408000006800F00F00A8420ED91D48006820F01B
:104090000F0028431A4908600846006800F00F0026
:1040A000A84201D0012071E7207800F00400042824
:1040B00007D11448006820F4E050E1680843114932
:1040C0000860207800F00800082808D10D48006832
:1040D00020F46040216940EAC1000A49086000F00C
:1040E00061F808490968C1F30311074A515CC840E7
:1040F0000649086006480068FFF7BAFA002045E75D
:10410000003C02400838024028CD0008040000208E
:10411000F80100200F2202600D4A126802F003022B
:1041200042600B4A126802F0F0028260084A12688C
:1041300002F4E052C260064A126802F46042D208F9
:104140000261044A126802F00F020A607047000020
:1041500008380240003C02400148006870470000F7
:104160000400002000B5FFF7F7FF04490968C1F318
:104170008221034A515CC84000BD0000083802405B
:1041800038CD000800B5FFF7E7FF04490968C1F31F
:104190004231034A515CC84000BD0000083802406B
:1041A00038CD00082DE9F047002400250026A1465F
:1041B0002548006800F00C0020B1042805D008282C
:1041C0003AD105E0DFF8849039E0DFF8849036E0FA
:1041D0001D48001F006800F03F041B48001F0068D6
:1041E00000F4800078B11A481749091F0968C1F323
:1041F0008811A0FB01700146224600233846FCF7D7
:1042000061F805460EE011480F49091F0968C1F31E
:104210008811A0FB01700146224600233846FCF7B6
:1042200051F805460848001F0068C0F30140401CD3
:104230004600B5FBF6F902E0DFF8109000BF00BFC2
:104240004846BDE8F0870000083802400024F4002A
:1042500000127A00F8B5044600270CB90120F8BD19
:10426000207800F00100002871D0F948006800F0C3
:104270000C0004280DD0F648006800F00C00082857
:1042800013D1F348001F006800F48000B0F5800FE0
:104290000BD1EF4808380068C0F34040002869D0CF
:1042A0006068002866D10120D9E700BF6068B0F5DA
:1042B000803F08D1E6480838006840F48030E4497F
:1042C000083908602EE0606868B9E148083800687D
:1042D00020F48030DE49083908600846006820F480
:1042E000802008601EE06068B0F5A02F0DD1D8488E
:1042F0000838006840F48020D5490839086008462D
:10430000006840F4803008600CE0D148083800684C
:1043100020F48030CE49083908600846006820F44F
:104320008020086000BF606890B1FFF77BF9054608
:1043300006E0FFF777F9401B642801D903208EE7D8
:10434000C34808380068C0F340400028F1D011E0AD
:10435000FFF768F9054606E0FFF764F9401B64289B
:1043600001D903207BE7BA4808380068C0F3404011
:104370000028F1D1207800F00200022869D1B44869
:10438000006800F00C0058B1B148006800F00C0063
:1043900008281CD1AE48001F006800F48000B0B9A6
:1043A000AB4808380068C0F3400020B1E06801283D
:1043B00001D0012053E7A6480838006820F0F80033
:1043C000216940EAC100A2490839086041E0E0687B
:1043D00028B39F480838006840F001009C4908391C
:1043E0000860FFF71FF9054606E0FFF71BF9401BC1
:1043F000022801D9032032E7954808380068C0F345
:1044000040000028F1D092480838006820F0F800F9
:10441000216940EAC1008E490839086019E08C48DA
:104420000838006820F00100894908390860FFF762
:10443000F9F8054606E0FFF7F5F8401B022801D918
:1044400003200CE7824808380068C0F340000028C9
:10445000F1D1207800F00800082836D16069D0B189
:104460007B486C30006840F0010079496C3108608D
:10447000FFF7D8F8054606E0FFF7D4F8401B0228FE
:1044800001D90320EBE672486C300068C0F34000AD
:104490000028F1D019E06E486C30006820F001006F
:1044A0006B496C310860FFF7BDF8054606E0FFF781
:1044B000B9F8401B022801D90320D0E664486C30CB
:1044C0000068C0F340000028F1D1207800F004001B
:1044D000042874D15E483830006800F0805080B9FC
:1044E00000BF5B483830006840F080505849383190
:1044F00008600846006800F08050009000BF00BFD0
:1045000001275448006800F48070B0B95148006831
:1045100040F480704F490860FFF784F8054606E0D4
:10452000FFF780F8401B642801D9032097E649482B
:10453000006800F480700028F2D000BFA068012855
:1045400008D143486830006840F0010040496831B4
:1045500008602DE0A06868B93D486830006820F028
:1045600001003B49683108600846006820F00400FB
:1045700008601DE0A06805280DD135486830006846
:1045800040F004003249683108600846006840F095
:10459000010008600CE02E486830006820F001003F
:1045A0002B49683108600846006820F00400086064
:1045B00000BFA068A8B1FFF735F8054609E02EE076
:1045C000FFF730F8401B41F28831884201D90320BF
:1045D00045E61F4868300068C0F340000028EFD06F
:1045E00013E0FFF71FF8054608E0FFF71BF8401B34
:1045F00041F28831884201D9032030E614486830FE
:104600000068C0F340000028EFD1012F07D1104807
:104610003830006820F080500D4938310860A069BA
:10462000002852D00A48006800F00C00082865D025
:10463000A06902284AD106480838006820F0807036
:10464000034908390860FEF7EDFF05460BE000005E
:104650000838024000700040FEF7E4FF401B0228CB
:1046600001D90320FBE53B480068C0F34060002807
:10467000F2D1E06940F00050216A0843616A40EAE3
:1046800081110122A06AC2EB500041EA00412C20B6
:10469000005D41EA00602F49091D0860081F00689D
:1046A00040F08070091F0860FEF7BCFF054606E079
:1046B000FEF7B8FF401B022801D90320CFE52548AB
:1046C0000068C0F340600028F2D040E02148006854
:1046D00020F080701F490860FEF7A4FF054606E041
:1046E000FEF7A0FF401B022801D90320B7E51948B7
:1046F0000068C0F340600028F2D128E01548001D92
:104700000668A069012820D006F48001E069814292
:104710001BD106F03F01206A814216D147F6C070D6
:104720003040616AB0EB811F0FD106F440310122A5
:10473000A06AC2EB5000B1EB004F06D106F07061E9
:104740002C20005DB1EB006F01D0012087E5002037
:1047500085E5000000380240704770477047000050
:1047600030B502460B4600BF92F83C00012801D14B
:10477000022030BD012082F83C0000BF022082F8F8
:104780003D001068416810688468214D1068A84297
:1047900003D0204D1068A84203D121F4700158685D
:1047A000014321F070011868014310684160184D01
:1047B0001068A8421BD01068B0F1804F17D0164D7A
:1047C0001068A84213D0154D1068A8420FD0144DA0
:1047D0001068A8420BD00F4D1068A84207D0114DA9
:1047E0001068A84203D0104D1068A84205D124F0EB
:1047F00080049868044310688460012082F83D00BA
:1048000000BF002082F83C0000BF00BFB1E70000FD
:104810000000014000040140000400400008004086
:10482000000C0040004001400018004010B5044654
:104830000CB9012010BD94F83D0028B9002084F87F
:104840003C00204600F02AF8022084F83D00211D9B
:10485000206803F087FA012084F8480000BF84F83C
:104860003E0001213F2001554020015541200155C6
:10487000422001554320015500BF00BF012084F8AC
:10488000440045200155462001554720015500BFF1
:10489000012084F83D000020CCE7000038B5044634
:1048A0000D492068884215D100BF0C48006840F0CF
:1048B00010000A4908600846006800F010000090E7
:1048C00000BF00BF002201213620FEF74DFF362039
:1048D000FEF73AFF38BD00000010004040380240AB
:1048E000014691F83D00012801D0012070470220C7
:1048F00081F83D001C4B086898421BD00868B0F155
:10490000804F17D0194B0868984213D0184B08688D
:1049100098420FD0174B086898420BD0164B086886
:10492000984207D0154B0868984203D0144B08688A
:10493000984210D108688068124B00EA0302062AE8
:104940000FD0B2F5803F0CD00868006840F001003D
:104950000B68186005E00868006840F001000B680B
:1049600018600020C2E70000000001400004004081
:1049700000080040000C00400004014000400140DD
:104980000018004007000100014691F83D00012891
:1049900001D001207047022081F83D000868C068FE
:1049A00040F001000B68D8601C4B086898421BD08F
:1049B0000868B0F1804F17D0194B0868984213D09F
:1049C000184B086898420FD0174B086898420BD0D4
:1049D000164B0868984207D0154B0868984203D0D8
:1049E000144B0868984210D108688068124B00EA9E
:1049F0000302062A0FD0B2F5803F0CD00868006889
:104A000040F001000B68186005E00868006840F09D
:104A100001000B6818600020BCE7000000000140A6
:104A20000004004000080040000C00400004014069
:104A3000004001400018004007000100704710B519
:104A4000044620680069C0F34000D8B12068C068FF
:104A5000C0F34000B0B16FF002002168086101208E
:104A600020772068806900F0030018B12046FFF726
:104A7000E5FF05E0204600F013F9204600F02CFA8F
:104A80000020207720680069C0F38000D8B120683A
:104A9000C068C0F38000B0B16FF004002168086105
:104AA000022020772068806900F4407018B1204609
:104AB000FFF7C4FF05E0204600F0F2F8204600F0C2
:104AC0000BFA0020207720680069C0F3C000D8B13D
:104AD0002068C068C0F3C000B0B16FF00800216862
:104AE0000861042020772068C06900F0030018B135
:104AF0002046FFF7A3FF05E0204600F0D1F820464E
:104B000000F0EAF90020207720680069C0F3001067
:104B1000D8B12068C068C0F30010B0B16FF01000C9
:104B200021680861082020772068C06900F440707F
:104B300018B12046FFF782FF05E0204600F0B0F8EC
:104B4000204600F0C9F9002020772068006900F0B5
:104B5000010058B12068C06800F0010030B16FF06A
:104B6000010021680861204600F05AFA20680069B7
:104B7000C0F3C01058B12068C068C0F3C01030B195
:104B80006FF08000216808612046FFF7E6FD20688D
:104B90000069C0F3002058B12068C068C0F3C0109D
:104BA00030B16FF48070216808612046FFF7D4FDB2
:104BB00020680069C0F3801058B12068C068C0F355
:104BC000801030B16FF0400021680861204600F08D
:104BD00047FA20680069C0F3401058B12068C068E7
:104BE000C0F3401030B16FF020002168086120460A
:104BF000FFF7B4FD10BD000010B586B004461421C7
:104C000001A8FBF7DAFB2149206888421BD100BFCD
:104C10001F48006840F004001D490860084600680D
:104C200000F00400009000BF00BF88150190022032
:104C300002900020039004900220059001A91548DD
:104C4000FEF7E4FB1FE01449206888421BD100BF37
:104C50000F48006840F008000D49086008460068E9
:104C600000F00800009000BF00BF4FF440400190EA
:104C7000022002900020039004900220059001A9D8
:104C80000648FEF7C3FB06B010BD0000000400405C
:104C9000303802400008024000080040000C02408A
:104CA00070472DE9F04104460D461646002700BF27
:104CB00094F83C00012802D10220BDE8F0810120D7
:104CC00084F83C0000BF0C2E51D005DC4EB1042E00
:104CD0001ED0082E7AD133E0102E60D0142EF9D1D8
:104CE00075E02946206803F0BBF82068806940F031
:104CF0000800216888612068806920F0040021682C
:104D0000886120688069296908432168886178E0A2
:104D10002946206803F0DEF82068806940F40060CE
:104D2000216888612068806920F48060216888613A
:104D300020688069296940EA01202168886160E073
:104D40002946206803F006F92068C06940F0080091
:104D50002168C8612068C06920F004002168C8612A
:104D60002068C069296908432168C86149E029466B
:104D7000206803F02DF92068C06940F400602168C4
:104D8000C8612068C06920F480602168C86120681B
:104D9000C069296940EA01202168C86131E02946DB
:104DA000206803F041F92068406D40F00800216858
:104DB00048652068406D20F004002168486520683F
:104DC000406D29690843216848651AE017E02946C3
:104DD000206803F051F92068406D40F400602168BC
:104DE00048652068406D20F480602168486520682F
:104DF000406D296940EA01202168486501E00127EA
:104E000000BF00BF00BF002084F83C0000BF384650
:104E100053E710B504460CB9012010BD94F83D00CD
:104E200028B9002084F83C00204600F029F8022030
:104E300084F83D00211D206802F094FF012084F8D1
:104E4000480000BF84F83E0001213F20015540206A
:104E5000015541200155422001554320015500BF15
:104E600000BF012084F8440045200155462001552B
:104E70004720015500BF012084F83D000020CCE709
:104E800008B5124A016891420DD100BF1049096866
:104E900041F002010E4A11601146096801F0020159
:104EA000009100BF11E00B4A016891420DD100BF93
:104EB0000749096841F00401054A11601146096873
:104EC00001F00401009100BF00BF08BD00040040D4
:104ED00040380240000800407047000070B50446AA
:104EE0000D4615B994F83E0015E0042D02D13F207F
:104EF000005D10E0082D02D14020005D0BE00C2D7C
:104F000002D14120005D06E0102D02D14220005D5B
:104F100001E04320005D012801D0012070BD1DB9D2
:104F2000022084F83E001AE0042D03D102213F2024
:104F3000015514E0082D03D10221402001550EE057
:104F40000C2D03D102214120015508E0102D03D181
:104F500002214220015502E0022143200155012295
:104F60002946206802F06AFF25492068884203D05C
:104F700024492068884201D1012000E0002028B1A6
:104F80002068406C40F40040216848641C49206857
:104F900088421BD02068B0F1804F17D01A49206892
:104FA000884213D01949206888420FD018492068D8
:104FB00088420BD013492068884207D015492068E1
:104FC000884203D014492068884210D12068806844
:104FD000124900EA0106062E0FD0B6F5803F0CD02C
:104FE0002068006840F001002168086005E0206842
:104FF000006840F001002168086000208EE7000092
:10500000000001400004014000040040000800408E
:10501000000C004000400140001800400700010063
:1050200010B504460A492068884201D1FEF700FB0A
:1050300008492068884209D107480088401C064971
:1050400008806FF0010005490968086110BD000083
:105050000020004000100040460100209405002080
:1050600070472DE9F04104460E461746E06F2028B0
:105070002DD106B117B90120BDE8F08100BF94F829
:105080007400012801D10220F6E7012084F87400A1
:1050900000BF20663A463146204604F0CBF805466C
:1050A0009DB9206E01280FD110202168086200BF31
:1050B00000BF216851E8001F41F01000226842E85B
:1050C00000010029F5D100E001252846D4E702209F
:1050D000D2E7000070B504460D46074920688842B3
:1050E00002D1284603F010FB04492068884202D10F
:1050F000284601F079FF70BD00480040007800406C
:1051000010B5044600BF00BF216851E8001F21F41C
:105110009070226842E800010029F5D100BF00BF6D
:1051200000BF2168083151E8001F21F0010021680B
:10513000083141E80002002AF3D100BF206E0128A7
:105140000CD100BF00BF216851E8001F21F0100002
:10515000226842E800010029F5D100BF206880687C
:1051600000F04000402821D100BF00BF2168083175
:1051700051E8001F21F040002168083141E8000299
:10518000002AF3D100BF206F80B10020216F086595
:10519000206FFDF7B1FE48B1206FFDF717FF202803
:1051A00004D11020C4F88000032010BD0020A4F812
:1051B0005A000F20216808622068806940F00800CA
:1051C000216888612020E0670020206600BFECE7AE
:1051D00010B504460A49206888420AD10948006887
:1051E000401C08490860D4F880000749086003F0B3
:1051F000C9FB06492068884201D103F071FA10BD4D
:1052000000780040180100201C01002000480040E8
:105210002DE9F04704462068C569206806682068C3
:10522000876840F60F0005EA0009B9F1000F0CD1BC
:1052300005F0200048B106F0200030B1606E10B1DA
:105240002046616E8847BDE8F087B9F1000F7DD038
:1052500007F0010018B9B64830400028F7D005F033
:10526000010058B106F4807040B101202168086245
:10527000D4F8800040F00100C4F8800005F002007E
:1052800058B107F0010040B1022021680862D4F84B
:10529000800040F00400C4F8800005F0040058B11C
:1052A00007F0010040B1042021680862D4F88000B2
:1052B00040F00200C4F8800005F0080070B106F06C
:1052C000200010B907F0010040B1082021680862F1
:1052D000D4F8800040F00800C4F8800005F40060B5
:1052E00060B106F0806048B14FF400602168086248
:1052F000D4F8800040F02000C4F88000D4F880008A
:1053000000284BD005F0200038B106F0200020B175
:10531000606E10B12046616E8847D4F880A0206886
:10532000806800F04000402802D00AF0280070B3E6
:10533000204603F088FD2068806800F04000402887
:1053400021D100BF00BF2168083100E027E051E80B
:10535000001F21F040002168083141E80002002AC6
:10536000F1D100BF206F50B17248216F0865206FE6
:10537000FDF718FE90B1206F016D88470EE02046C2
:10538000FFF726FF0AE02046FFF722FF06E0FFE7CF
:105390002046FFF71DFF0020C4F8800053E7206E71
:1053A00001287CD105F01000002878D006F010000C
:1053B0000028FAD01020216808622068806800F078
:1053C000400040285BD1206F006840681FFA80F8D9
:1053D000B8F1000F52D0B4F8580040454EDDA4F8A3
:1053E0005A80206FC069B0F5807F3ED000BF00BFFB
:1053F000216851E8001F21F48070226842E8000112
:105400000029F5D100BF00BF00BF2168083151E875
:10541000001F21F001002168083141E80002002A44
:10542000F3D100BF00BF00BF2168083151E8001F61
:1054300021F040002168083141E80002002AF3D140
:1054400000BF2020E0670020206600BF00BF216869
:1054500051E8001F21F01000226842E800010029F5
:10546000F5D100BF206FFDF747FDB4F85800B4F840
:105470005A20801A81B22046FFF72CFEE3E634F86A
:10548000580F6188401A1FFA80F86088583CB0B302
:10549000B8F1000F33D000BF00BF216800E02FE05B
:1054A00051E8001F21F49070226842E800010029B1
:1054B000F3D100BF00BF00BF2168083151E8001FD1
:1054C00021F001002168083141E80002002AF3D1EF
:1054D00000BF2020E06700202066606600BF00BF9C
:1054E000216851E8001F21F01000226842E8000105
:1054F0000029F5D100BF41462046FFF7EBFDA2E6AB
:1055000005F0800040B106F0800028B1A06E10B117
:105510002046A16E884796E605F0400030B106F0BF
:10552000400018B1204603F0C0FC8CE600BF8AE6BC
:1055300020010004A98C000810B504460CB9012014
:1055400010BDA06900B100E000BFA06F28B9002025
:1055500084F87400204600F029F82420A067206811
:10556000006820F0010021680860204603F0C4FCB8
:10557000012800D1E4E7606A10B1204603F0F2FA96
:105580002068406820F49040216848602068806866
:1055900020F02A00216888602068006840F001003F
:1055A00021680860204603F059FBC9E710B586B0B2
:1055B0000446142101A8FAF700FFFD49206888423B
:1055C0004FD100BFFB48006840F48010F9490860E3
:1055D0000846006800F48010009000BF00BF00BFC4
:1055E000F4481038006840F00400F24910390860AF
:1055F0000846006800F00400009000BF00BF00BF34
:105600000846006840F0080008600846006800F09E
:105610000800009000BF00BF881401900220029093
:1056200000200390032004900820059001A9E2487F
:10563000FDF7ECFE04200190022002900020039070
:10564000032004900820059001A9DC48FDF7DEFE48
:10565000002202213520FEF787F83520FEF774F886
:10566000FEE1D7492068884255D100BFD148006883
:1056700040F08040CF4908600846006800F0804054
:10568000009000BF00BF00BFCA481038006840F05B
:105690001000C849103908600846006800F0100082
:1056A000009000BF00BF4FF4C07001900220029034
:1056B00000200390032004900820059001A9C14810
:1056C000FDF7A4FEC048C14908604FF02060486063
:1056D0000021BE488160C1604FF4806101610021FA
:1056E00041618161C1614FF48031016200214162F9
:1056F000FDF790FD08B1FCF7EFFD00BFB348206750
:10570000846300BF002202215220FEF72DF85220B0
:10571000FEF71AF8A4E1AE492068884234D100BFF0
:10572000A448006840F00040A249086008460068AC
:1057300000F00040009000BF00BF00BF9D4810383F
:10574000006840F010009B49103908600846006866
:1057500000F01000009000BF00BF03200190022065
:10576000029000200390032004900820059001A9D6
:105770009448FDF74BFE002202215320FDF7F4FF71
:105780005320FDF7E1FF6BE192492068884237D151
:1057900000BF8848001D006840F010008549091DC1
:1057A00008600846006800F01000009000BF00BFCD
:1057B00000BF80481038006840F001007D49103972
:1057C00008600846006800F00100009000BF00BFBC
:1057D0004FF4C0600190022002900020039003204B
:1057E00004900720059001A97B48FDF70FFE0022D9
:1057F00002212520FDF7B8FF2520FDF7A5FF2FE1A9
:1058000076492068884256D100BF6A48006840F453
:105810000030684908600846006800F400300090D5
:1058200000BF00BF00BF63481038006840F00800A8
:105830006049103908600846006800F008000090D0
:1058400000BF00BF60200190022002900020039062
:10585000032004900720059001A95848FDF7D6FDC4
:10586000594830305E4908604FF0006048600021C0
:105870005B488160C1604FF480610161002141613A
:1058800081614FF48071C1610902016200214162AE
:10589000FDF7C0FC08B1FCF71FFD00BF50482067B2
:1058A000846300BF002202212620FDF75DFF262031
:1058B000FDF74AFFD4E04B492068884277D100BF0A
:1058C0003C48006840F480203A4908600846006877
:1058D00000F48020009000BF00BF00BF35481038A2
:1058E000006840F004003349103908600846006839
:1058F00000F00400009000BF00BF4FF44060019032
:1059000002200290002003900320049007200590BD
:1059100001A92948FDF77AFD2B4830383249086043
:105920004FF00060486000212F488160C1604FF453
:1059300080610161002141618161C1614FF4803169
:10594000016200214162FDF765FC08B1FCF7C4FC6F
:1059500000BF25482067846300BF1B4818302349D7
:105960000860400548604021204881600021C160F6
:105970004FF480610161002141618161C1614FF497
:105980008031016200214162FDF744FC08B1FCF75F
:10599000A3FC00BF1548E066846300BF002202211B
:1059A0002720FDF7E1FE2720FDF7CEFE58E01FE09F
:1059B000005000404038024000080240000C024005
:1059C0000078004000100240586002407C0900202E
:1059D000007C0040001001400000024000440040F4
:1059E000DC090020004800403C0A00209C0A0020FE
:1059F0001C492068884233D100BF1B48006840F032
:105A00002000194908600846006800F02000009056
:105A100000BF00BF00BF14481438006840F0040005
:105A20001149143908600846006800F0040000902D
:105A300000BF00BFC0200190022002900020039010
:105A4000032004900820059001A90848FDF7DEFC1A
:105A5000002201214720FDF787FE4720FDF774FE55
:105A600006B010BD00140140443802400008024056
:105A700070B504460D461646E06F202828D105B1C2
:105A80000EB9012070BD00BF94F87400012801D147
:105A90000220F7E7012084F8740000BF0020206690
:105AA0002068406800F4000060B100BF00BF2168BA
:105AB00051E8001F41F08060226842E8000100299F
:105AC000F5D100BF32462946204603F0B3FBD9E7A3
:105AD0000220D7E7704770472DE9F84F04460E467D
