:020000040800F2
:1000000060540020A10200084D4300084138000858
:1000100049430008FF090008ED58000800000000EF
:10002000000000000000000000000000DD010008EA
:100030004F0B00080000000039020008714400085E
:10004000BB020008BB020008BB020008BB0200089C
:10005000BB020008BB020008BB020008BB0200088C
:10006000BB020008BB020008BB020008BB0200087C
:10007000050A0008BB020008150A0008250A000846
:10008000350A0008BB020008BB020008BB020008DA
:10009000BB020008BB020008BB020008BB0200084C
:1000A000BB020008BB020008BB020008BB0200083C
:1000B000BB020008BB020008BB020008BB0200082C
:1000C000BB020008BB020008BB020008BB0200081C
:1000D000BB02000889570008155800085958000845
:1000E000BB020008BB020008BB020008BB020008FC
:1000F000BB020008ED450008BB020008BB02000877
:10010000BB020008BB020008BB020008BB020008DB
:10011000BB020008AD4C000899450008A94500083D
:10012000BB020008BB020008BB020008BB020008BB
:10013000BB020008BB020008BB020008BB020008AB
:10014000BB020008BB020008BB020008BB0200089B
:10015000BB020008BB020008BB0200086958000887
:10016000BB020008BB020008BB020008BB0200087B
:10017000BB020008BB020008BB020008BB0200086B
:10018000BB020008BB020008314E0008414E0008C7
:10019000BB020008BB020008BB020008BB0200084B
:1001A000BB020008BB020008BB020008BB0200083B
:1001B000BB020008BB020008BB020008BB0200082B
:1001C000BB020008BB020008DFF80CD000F0DAFB2D
:1001D000004800475D640008605400202D4B1968FA
:1001E0000868B0E8F04F80F30988BFF36F8F4FF0D5
:1001F000000080F311887047000000000848006884
:10020000006880F308884FF0000080F3148862B61D
:1002100061B6BFF34F8FBFF36F8F00DF00BF00BF2A
:1002200008ED00E0DFF80C00016841F470010160A6
:10023000704700BF88ED00E0EFF30980BFF36F8FD8
:10024000144B1A681EF0100F08BF20ED108A20E929
:10025000F04F106009B44FF0500072B680F311886F
:10026000BFF34F8FBFF36F8F62B608F01FFA4FF0E6
:10027000000080F3118809BC19680868B0E8F04FE5
:100280001EF0100F08BFB0EC108A80F30988BFF38E
:100290006F8F704754020020EFF305807047000015
:1002A0000648804706480047FEE7FEE7FEE7FEE710
:1002B000FEE7FEE7FEE7FEE7FEE7FEE7854500080E
:1002C000C90100082DE9F05F0546002092469B46D3
:1002D00088460646814640241BE02846414647465C
:1002E000224600F012FA53465A46C01A914110D3E2
:1002F00011461846224600F0F9F92D1A67EB01085D
:100300004F4622460120002100F0F0F917EB0009CA
:100310004E41201EA4F10104DFDC484631462A4646
:100320004346BDE8F09F40EA01039B0703D009E084
:1003300008C9121F08C0042AFAD203E011F8013BD1
:1003400000F8013B521EF9D27047D2B201E000F82A
:10035000012B491EFBD270470022F6E710B5134669
:100360000A4604461946FFF7F0FF204610BD2DE966
:10037000FE4F804681EA0300C00F0C46009021F03A
:10038000004123F00045B8EB0200A94105D24046E8
:10039000214690461C460B46024623F0004010437F
:1003A00047D0270DC7F30A00C3F30A510290401A41
:1003B000019040286BDAC3F3130040F4801B0098CF
:1003C000924620B10023D2EB030A63EB0B0B01989A
:1003D0005946C0F14002504600F088F906460D46E5
:1003E00050465946019A00F0A0F910EB080061410F
:1003F000002487EA115284EAE7731A4340D0009A36
:1004000062B3019A012A4FEA075215DC001B61EB27
:1004100002014FF0004202EA0752CDE90042001CFF
:1004200041F5801132462B4600F0D7F903B0BDE804
:10043000F08F40462146F9E7001B61EB0201001CEA
:1004400041F5801300185B412018A2F5001747EB17
:10045000030140EAD570B6196D4111E06D084FEA0D
:10046000360645EAC0754FEA0752001B61EB0201F0
:10047000001C41F5801149084FEA30000019514134
:1004800032462B4603B0BDE8F04F00F097B9009814
:10049000012240000023D0EB020263EBE0730098DE
:1004A00021464FEAE074B8EB000061EB0401E9E794
:1004B00083F000435BE781F0004158E72DE9FE4FF0
:1004C00081EA030404F0004421F0004100944FF05D
:1004D000000B23F0004350EA01045ED052EA03040B
:1004E0005BD0C3F30A54C1F30A552C44A4F2F3348D
:1004F0000194A0FB0254C1F3130141F48011C3F332
:10050000130343F4801301FB024400FB034E840AEF
:10051000970A44EA815447EA8357A4FB0768029587
:100520008D0A05FB07854FEA932C04FB0C54270525
:10053000029D4FEA065847EA1637B5EB08056EEB01
:10054000070C870E920E47EA811742EA8312A7FB37
:100550000201B6EB0B0164EB00042B0D43EA0C33F4
:100560005E1844EB1C50DA465146E7FB0201C5F326
:1005700013044FEA0B3343EA14534FEA0432019C4D
:1005800043EA0603A4F10C040294009CCDE900B4F4
:1005900000F023F903B0BDE8F08F00200146F9E731
:1005A0000EB5C10F80EAE0700844CA07002140F28E
:1005B00033438DE80E000A460B4600F00EF903B0F7
:1005C00000BD70B5C1F30A5201F000450024C1F32B
:1005D000130140F2FF3341F480119A4201DA002006
:1005E00070BD40F233439A42A2F2334203DC5242DE
:1005F00000F08BF800E090402C43F1D0404270BDF9
:1006000000F0004230F000400AD0C10D01F56071E9
:10061000C0F3160042EA0151C20840071143704777
:10062000002001467047000030B5041E71F100043F
:1006300004DB4FF00044404264EB0101141E73F1EF
:10064000000405DB1C464FF00043524263EB0403F9
:100650008B4208BF824230BD30B5041E71F10004E8
:1006600004DB4FF00044404264EB0101141E73F1BF
:10067000000405DB1C464FF00043524263EB0403C9
:10068000994208BF904230BD01F0004330B421F0E0
:10069000004150EA010206D00A0DA2F56072C1F3D2
:1006A0001301002A02DC30BC00207047440F44EAEA
:1006B000C104C100E01830BC00EBC25000F047B8E4
:1006C00030B50B46014600202022012409E021FA22
:1006D00002F59D4205D303FA02F5491B04FA02F51F
:1006E0002844151EA2F10102F1DC30BD202A04DBF2
:1006F000203A00FA02F1002070479140C2F1200335
:1007000020FA03F3194390407047202A04DB203A73
:1007100021FA02F00021704721FA02F3D040C2F121
:1007200020029140084319467047202A06DBCB1768
:10073000203A41FA02F043EAE07306E041FA02F39C
:10074000D040C2F120029140084319467047002969
:10075000A8BF7047401C490008BF20F00100704747
:1007600010B4B0FA80FC00FA0CF050EA010404BFA7
:1007700010BC704749B1CCF1200421FA04F411FAFD
:100780000CF118BF012121430843A3EB0C01CB1D41
:100790004FEA00614FEA102042BF002010BC7047B2
:1007A00000EBC35010440029A4BF10BC7047401C8C
:1007B000490008BF20F0010010BC704710B5141E9E
:1007C00073F1000408DA401C41F1000192185B410A
:1007D0001A4301D120F0010010BD2DE9F04D9246E1
:1007E0009B4611B1B1FA81F202E0B0FA80F22032F8
:1007F0009046FFF77BFF04460F4640EA0A0041EAB5
:100800000B0153465A46084313D0114653EA0100E0
:1008100019D0C8F140025046FFF777FF05460E4653
:10082000504659464246FFF761FF084305D0012074
:1008300004E020463946BDE8F08D0020054346EA35
:10084000E0762C4337430A986305E40AA0EB0800DE
:100850000022FD0A44EA47540A3002D5002001462E
:10086000E9E7010510196941DDE908450019694109
:10087000BDE8F04DA2E72DE9F04D81EA030404F054
:10088000004B21F0004514464FF0000A23F00041D0
:1008900050EA050220D054EA01021DD0C5F30A57E0
:1008A0000246C5F31303C1F31300C1F30A5640F423
:1008B000801543F48013A7EB0608101BD64608F2F8
:1008C000FD3873EB050002D308F1010801E092182E
:1008D0005B41B8F1000F03DA00200146BDE8F08D5E
:1008E00000204FF48011064684460EE0171B73EB80
:1008F000050705D3121B63EB050306434CEA010C05
:1009000049084FEA300092185B4150EA0107EDD1E7
:1009100052EA030012D082EA040083EA0501084388
:1009200005D0101BAB4106D20122002306E00022B5
:100930004FF0004302E06FF0010253101AEB060083
:100940004CEB085110EB0A0041EB0B01BDE8F04DF8
:10095000FFF734BFC1F30A52C1F3130140F2FF3372
:1009600041F480119A4202DA00200146704740F2B9
:1009700033439A42A2F2334202DC5242FFF7C5BE31
:10098000FFF7B4BE064C074D06E0E06840F00103F7
:1009900094E8070098471034AC42F6D3FFF718FCF0
:1009A000389000085890000870B58C1810F8015B5A
:1009B00015F0070301D110F8013B2A1106D110F8F8
:1009C000012B03E010F8016B01F8016B5B1EF9D1FC
:1009D0002B0705D40023521E0DD401F8013BFAE782
:1009E00010F8013BCB1A921C03E013F8015B01F8ED
:1009F000015B521EF9D5A142D8D3002070BD00BFC3
:100A0000FEE7000010B5024800F05AF910BD0000E2
:100A1000800A002010B5024800F052F910BD000015
:100A2000C009002010B5024800F04AF910BD0000CE
:100A3000E00A002010B5024800F042F910BD0000A5
:100A4000200A00200146087810381823B0FBF3F282
:100A50000848805CC865032A05D908686FF3090057
:100A6000001D886503E008686FF309008865886DDC
:100A700070470000608F0008014600208A6A8B6979
:100A8000CBB932B1012A0DD0022A03D0032A10D1EA
:100A90000EE000BFCB6A03F08073B3F1807F00D11A
:100AA000012007E0CB6AB3F1C07F00D1012001E053
:100AB00000E000BF34E08B69B3F5005F1AD132B1BA
:100AC000012A07D0022A03D0032A11D10AE000BF6D
:100AD00001200EE0CB6A03F08073B3F1807F00D178
:100AE000012006E0CB6AB3F1C07F00D1012000E015
:100AF00000BF15E032B1012A05D0022A04D0032A32
:100B00000CD103E000BF00BF012008E0CB6A03F076
:100B10008073B3F1807F00D1012000E000BF00BFEF
:100B2000704730B50468246824F4802405682C607C
:100B3000046863608468402C04D10468A26004687F
:100B4000E16003E00468A1600468E26030BD7047C2
:100B500010B5064801F03AFD04480068C06840F04E
:100B6000010002490968C86010BD0000D8050020D6
:100B7000044A118800BF034A1288521A92B2824274
:100B8000F9DD7047AE01002072B600BFFEE700003D
:100B90000148006870470000F80100200148006823
:100BA00070470000FC010020014800687047000009
:100BB0009011002010B5DFED071A9621B6EE001A4D
:100BC000DFED050A9FED050A054803F0C1FB02F0C1
:100BD000EDFE10BD000016C30000000048E11A4001
:100BE000A80E002070B50446A56D00F091FB0646E6
:100BF00094F83500022808D08020606500BF0020EE
:100C000084F8340000BF012070BD2068006820F027
:100C10001600216808602068406920F08000216883
:100C20004861206C08B9A06C28B12068006820F0E9
:100C30000800216808602068006820F00100216831
:100C4000086010E000F064FB801B05280BD9202011
:100C50006065032084F8350000BF002084F834006C
:100C600000BF0320D0E72068006800F001000028E2
:100C7000E8D194F85C103F208840A860012084F8F7
:100C8000350000BF002084F8340000BF00BFBBE780
:100C9000014691F83500022803D0802048650120E4
:100CA0007047052081F835000868006820F00100D1
:100CB0000A6810600020F3E70146486D70470000A5
:100CC000F8B50446002000908C4800684FF4165197
:100CD000B0FBF1F7A56D2E6894F85C1008208840F1
:100CE000304098B12068006800F0040070B12068BE
:100CF000006820F004002168086094F85C10082067
:100D00008840A860606D40F00100606594F85C1058
:100D100001208840304068B12068406900F08000C0
:100D200040B194F85C1001208840A860606D40F0EC
:100D30000200606594F85C1004208840304068B17F
:100D40002068006800F0020040B194F85C100420B4
:100D50008840A860606D40F00400606594F85C1005
:100D600010208840304078B32068006800F0080008
:100D700050B394F85C1010208840A8602068006888
:100D800000F4802080B12068006800F4002028B9B9
:100D9000206CC8B12046216C884715E0A06C98B142
:100DA0002046A16C88470FE02068006800F480703E
:100DB00028B92068006820F0080021680860206CCD
:100DC00010B12046216C884794F85C1020208840A0
:100DD0003040002865D02068006800F0100000282E
:100DE0005FD094F85C1020208840A86094F835000B
:100DF000052828D12068006820F0160021680860C6
:100E00002068406920F0800021684861206C08B9A2
:100E1000A06C28B12068006820F0080021680860F4
:100E200094F85C103F208840A860012084F83500C9
:100E300000BF002084F8340000BF206D10B12046B0
:100E4000216D8847F8BD2068006800F4802080B1DB
:100E50002068006800F4002028B9606C10B12046BA
:100E6000616C88471DE0E06BD8B12046E16B884794
:100E700017E02068006800F4807068B92068006896
:100E800020F0100021680860012084F8350000BFC0
:100E9000002084F8340000BFE06B10B12046E16B05
:100EA0008847606D38B3606D00F00100F0B1052037
:100EB00084F835002068006820F00100216808608F
:100EC00000BF0098401C0090B84200D905E020689F
:100ED000006800F001000028F3D100BF012084F871
:100EE000350000BF002084F8340000BFE06C10B172
:100EF0002046E16C884700BFA4E700000400002002
:100F00002DE9F0410446002500F002FA074614B925
:100F10000120BDE8F081606A00B100BF022084F8C2
:100F2000350000BF002084F8340000BF206800684E
:100F300020F00100216808600AE000F0E9F9C01B18
:100F4000052805D920206065032084F83500E0E7F6
:100F50002068006800F001000028EED120680568D4
:100F600021480540D4E901010843E16808432169AB
:100F7000084361690843A1690843E1690843216A9C
:100F800008430543606A042803D1D4E90B010843F0
:100F90000543206805602068456925F00705606AFB
:100FA0000543606A04280DD1A06A0543E06A48B190
:100FB0002046FFF761FD28B140206065012084F8DC
:100FC0003500A6E7206845612046FFF73BFD064651
:100FD00094F85C103F208840B060002060650120DC
:100FE00084F83500002094E73F8010F02DE9F047A9
:100FF00004460D4616461F464FF00008D4F8589098
:1010000000BF94F83400012802D10220BDE8F08727
:10101000012084F8340000BF94F8350001282BD15A
:10102000022084F83500002060653B4632462946A0
:101030002046FFF776FD94F85C103F208840C9F801
:1010400008002068006840F01600216808602068E9
:10105000406940F0800021684861206C28B1206818
:10106000006840F00800216808602068006840F0CF
:1010700001002168086006E000BF002084F8340009
:1010800000BF4FF002084046C0E7000010B54FF027
:10109000FF300E49086000200860401E091D0860EE
:1010A00000200860401E09491039086000200860CF
:1010B000401E091D086000200860401E091D0860D0
:1010C0000020086000F08EF9002010BD203802409A
:1010D00070B5044600F01CF906462546681C10B1A0
:1010E00004480078054400BF00F012F9801BA842B4
:1010F000FAD370BD50020020F8B502460B4600211D
:1011000000250024002000BFDEE0012606FA01F5DC
:101110001E6806EA0504AC4272D11E7906F0030689
:10112000012E04D01E7906F00306022E13D190681A
:101130004F000326BE40B0434F00DE68BE40304340
:101140009060506801268E40B0431E79C6F30016A9
:101150008E40304350601E7906F00306032E09D0FE
:10116000D0684F000326BE40B0434F009E68BE408B
:101170003043D0601E7906F00306022E13D1CF084B
:1011800002F1200656F827004E07F70E0F26BE4044
:10119000B0434F07FF0E1E69BE403043CF0802F137
:1011A000200646F8270010684F000326BE40B043D3
:1011B0001E7906F003064F00BE40304310605E68A3
:1011C00006F44036002E7ED000BF414E366846F40D
:1011D00080463F4F3E603E46366806F480460096A5
:1011E00000BF00BF3B4E8F0856F827008E07370F11
:1011F0000F26BE40B043384EB24202D100262EE048
:1012000061E0364EB24201D1012628E0344EB242AE
:1012100001D1022623E0334EB24201D103261EE063
:10122000314EB24201D1042619E0304EB24201D112
:10123000052614E02E4EB24201D106260FE02D4EB7
:10124000B24201D107260AE02B4EB24201D1082654
:1012500005E02A4EB24201D1092600E00A268F0796
:101260003F0FBE4030431B4E8F0846F82700244EE8
:101270003068A0435E6806F4801606B12043204E15
:101280003060361D3068A0435E6806F4001606B173
:1012900020431B4E361D3060194E361F3068A04368
:1012A0005E6806F4003606B12043154E361F3060E6
:1012B000361F3068A0435E6806F4803606B12043CE
:1012C0000F4E083E3060491C1029FFF41EAFF8BDD8
:1012D0004438024008380140000002400004024047
:1012E00000080240000C02400010024000140240BE
:1012F00000180240001C024000200240002402406E
:10130000083C01400AB1816101E00B048361704730
:101310000148006870470000480200200348006848
:1013200003490978084401490860704748020020D1
:101330005002002010B50848006840F400700649CB
:101340000860032000F0C4F8002000F007F800F067
:101350004BF8002010BD0000003C024070B588B082
:10136000044600250026002221462D2000F072F8B8
:101370002D2000F05FF800BF1648006840F4807030
:10138000144908600846006800F48070019000BFAE
:1013900000BF02A903A800F033FD00F059FD45008D
:1013A0000D48B5FBF0F0461E0C480D49086040F2B0
:1013B000E7310B48C160466000210161816001F0A6
:1013C000ABF820B9064801F055F908B070BD01200E
:1013D000FBE700004038024040420F000020004080
:1013E000400B00207047000008B500BF104800689F
:1013F00040F080500E4908600846006800F08050B8
:10140000009000BF00BF00BF081D006840F480408E
:10141000091D08600846006800F48040009000BF85
:1014200000BF00220F21901E00F014F808BD00003C
:101430004038024001460846002809DB00F01F033F
:1014400001229A4043099B0003F1E023C3F80021E5
:1014500000BF70472DE9F05F80460D461646002715
:1014600004F0E4FA074639462A46334601F00700FD
:10147000C0F1070ABAF1040F02D94FF0040A01E0E3
:10148000C0F1070AD14600F1040ABAF1070F02D2EF
:101490004FF0000A01E0A0F1030AD4464FF0010A20
:1014A0000AFA09FAAAF1010A0AEA020A0AFA0CFA85
:1014B0004FF0010B0BFA0CFBABF1010B0BEA030B2A
:1014C0004AEA0B042146404604F0B8FABDE8F09F12
:1014D00000BF00F00702064B19684FF6FF031940E2
:1014E000044B0B4343EA0221014B196000BF7047D4
:1014F0000CED00E00000FA0538B5002400BF2048DC
:10150000006840F080501E4908600846006800F0FE
:101510008050009000BF00BF1A48006840F480303F
:1015200018490860FFF7F4FE044607E0FFF7F0FEF5
:10153000001BB0F57A7F01D9032038BD11484068FF
:1015400000F48030B0F5803FF0D10E48006840F4E0
:1015500000300C490860FFF7DBFE044607E0FFF7A8
:10156000D7FE001BB0F57A7F01D90320E5E70548D7
:10157000406800F40030B0F5003FF0D10020DCE717
:1015800040380240007000402DE9F8430446002630
:1015900000250027A846A946207800F0010088B160
:1015A00000BFFE48006820F40000FC4908600846BF
:1015B0000068616B0843F949086000BF606B08B9B7
:1015C0004FF00108206800F40020B0F5002F13D17F
:1015D000F2488430006820F44010E16B0843EF4982
:1015E00084310860E06BB0F5801F01D14FF0010835
:1015F000E06B08B94FF00109206800F48010B0F5E5
:10160000801F13D1E5488430006820F44000216C2D
:101610000843E24984310860206CB0F5800F01D1A5
:101620004FF00108206C08B94FF00109206800F064
:101630008070B0F1807F01D14FF00108207800F078
:101640002000202870D100BFD4483830006840F016
:101650008050D249383108600846006800F0805058
:10166000009000BF00BFCE48006840F48070CC49B5
:101670000860FFF74DFE064607E0FFF749FE801BB6
:10168000642802D90320BDE8F883C548006800F447
:1016900080700028F1D0C1486830006800F44075BF
:1016A00085B3208E00F44070A8422BD0BB48683030
:1016B000006820F44075B9486830006840F4803014
:1016C000B649683108600846006820F48030086038
:1016D00008460560006800F0010098B1FFF718FEA9
:1016E000064608E0FFF714FE801B41F2883188426D
:1016F00001D90320C7E7A94868300068C0F340005B
:101700000028EFD000BF208E00F44070B0F5407F7D
:101710000BD1A248006820F4F810A24A216B1140B6
:1017200008439E49086006E010E09C48006820F4E9
:10173000F8109A490860994868300068218EC1F312
:101740000B01084395496831086000BF207800F01C
:101750001000102810D100BF90488430006820F09D
:1017600080708E498431086008460068A16B084388
:101770008A498431086000BF208800F48040B0F5B9
:10178000804F09D185488830006820F44030616E70
:101790000843824988310860208800F40040B0F591
:1017A000004F09D17D488830006820F44020A16EA8
:1017B00008437A4988310860206800F48030B0F529
:1017C000803F09D175488830006820F44010E16EF0
:1017D0000843724988310860206800F40030B0F591
:1017E000003F09D16D488830006820F44000216F27
:1017F00008436A4988310860207800F0400040289A
:1018000009D166488830006820F00300616C084305
:10181000624988310860207800F08000802809D172
:101820005E488830006820F00C00A16C08435B49DA
:1018300088310860208800F48070B0F5807F09D17D
:1018400056488830006820F03000E16C0843534966
:1018500088310860208800F40070B0F5007F09D15D
:101860004E488830006820F0C000216D08434B4985
:1018700088310860208800F48060B0F5806F09D15D
:1018800046488830006820F44070616D0843434941
:1018900088310860208800F40060B0F5006F09D13D
:1018A0003E488830006820F44060A16D08433B4901
:1018B00088310860208800F48050B0F5805F09D13D
:1018C00036488830006820F44050E16D08433349C1
:1018D00088310860208800F40050B0F5005F09D11D
:1018E0002E488830006820F44040216E08432B4980
:1018F00088310860206800F48000B0F5800F09D1BD
:1019000026488830006820F08060A16F0843234992
:1019100088310860206800F40010B0F5001F0FD176
:101920001E488830006820F00060E16F08431B49C2
:1019300088310860E06FB0F1006F01D14FF001090C
:10194000207800F00800082801D14FF00109206834
:1019500000F48020B0F5802F09D11048883000684D
:1019600020F04070616F08430C498831086020689E
:1019700000F40000B0F5000F0AD108488830006874
:1019800020F08050D4F88010084304498831086062
:10199000B8F1010F0DD0206806E0000008380240C1
:1019A00000700040FFFCFF0F00F00070B0F1007FFE
:1019B0007DD1AD48006820F08060AB490860FFF73A
:1019C000A7FC064606E0FFF7A3FC801B642801D9AC
:1019D000032058E6A4480068C0F3C0600028F2D194
:1019E000207800F00100B8B1606BA8B99E4884303F
:1019F0000068C0F301459C4884300068C0F3036769
:101A00006068800140EA054040EA0761207A41EAC7
:101A10000070954984310860206800F40020B0F51A
:101A2000002F03D1E06BB0F5801F09D0206800F4CF
:101A30008010B0F5801F24D1206CB0F5800F20D12C
:101A4000894884300068C0F30145874884300068C5
:101A5000C0F302776068800140EA0541207B41EADB
:101A6000006040EA07708049843108607E488C300D
:101A7000006820F01F00616A491E08437A498C31D2
:101A80000860206800F08070B0F1807F17D1764840
:101A900084300068C0F30365734884300068C0F385
:101AA000027760688101208A41EA004000E031E06D
:101AB00040EA056040EA07706B498431086020689D
:101AC00000F00070B0F1007F0DD160688101208AC4
:101AD00041EA0041207B41EA0061207A41EA00703E
:101AE0006149843108606048006840F080605E4968
:101AF0000860FFF70DFC064606E0FFF709FC801BB7
:101B0000642801D90320BEE557480068C0F3C060CF
:101B10000028F2D0B9F1010F7ED15348006820F0BF
:101B2000805051490860FFF7F3FB064606E0FFF7D7
:101B3000EFFB801B642801D90320A4E54A48006814
:101B4000C0F340700028F2D1206800F40020B0F506
:101B5000002F01D1E06B38B1206800F48010B0F59F
:101B6000801F22D1206C00BB3F4888300068C0F342
:101B700001453D4888300068C0F302776069800104
:101B800040EA0541207E41EA006040EA077036499C
:101B900088310860081D006820F4F851A06A401ED2
:101BA00041EA002030498C310860206800F40010C0
:101BB000B0F5001F19D1E06FB0F1006F15D12A48C0
:101BC00088300068C0F30365274888300068C0F398
:101BD000027760698101208C41EA004040EA05609B
:101BE00040EA0770204988310860207800F008003A
:101BF000082820D11C4888300068C0F303651A48C3
:101C000088300068C0F301476069800140EA0740FE
:101C100040EA0561207F00E024E041EA00701249BB
:101C200088310860081D006820F44030E16A0843EC
:101C30000D498C3108600C48006840F080500A491A
:101C40000860FFF765FB064606E0FFF761FB801BB7
:101C5000642801D9032016E503480068C0F34070EA
:101C60000028F2D000200EE50038024070B504468E
:101C70000D4600260CB9012070BD5C48006800F0DC
:101C80000F00A8420ED25948006820F00F002843E8
:101C9000564908600846006800F00F00A84201D0CD
:101CA0000120E9E7207800F0020002281DD1207809
:101CB00000F00400042805D14D48006840F4E050CD
:101CC0004B490860207800F00800082805D14848F2
:101CD000006840F46040464908604548006820F0CC
:101CE000F000A168084342490860207800F0010034
:101CF00090B36068012807D13D4808380068C0F3F8
:101D00004040A0B90120B7E76068022807D13848F1
:101D100008380068C0F3406048B90120ACE7344897
:101D200008380068C0F3400008B90120A4E7304833
:101D3000006820F00300616808432D490860FFF740
:101D4000E7FA064609E0FFF7E3FA801B41F2883123
:101D5000884202D903208FE707E02548006800F099
:101D60000C006168B0EB810FEDD12048006800F0F5
:101D70000F00A8420ED91D48006820F00F0028432C
:101D80001A4908600846006800F00F00A84201D018
:101D9000012071E7207800F00400042807D11448DE
:101DA000006820F4E050E168084311490860207899
:101DB00000F00800082808D10D48006820F46040B1
:101DC000216940EAC1000A49086000F061F8084949
:101DD0000968C1F30311074A515CC840064908600D
:101DE00006480068FFF7BAFA002045E7003C0240C9
:101DF00008380240488D0008040000204C020020F2
:101E00000F2202600D4A126802F0030242600B4A80
:101E1000126802F0F0028260084A126802F4E0528E
:101E2000C260064A126802F46042D2080261044AA3
:101E3000126802F00F020A60704700000838024082
:101E4000003C024001480068704700000400002088
:101E500000B5FFF7F7FF04490968C1F38221034A7F
:101E6000515CC84000BD000008380240588D000891
:101E700000B5FFF7E7FF04490968C1F34231034A9F
:101E8000515CC84000BD000008380240588D000871
:101E90002DE9F047002400250026A14625480068CA
:101EA00000F00C0020B1042805D008283AD105E044
:101EB000DFF8849039E0DFF8849036E01D48001F99
:101EC000006800F03F041B48001F006800F4800019
:101ED00078B11A481749091F0968C1F38811A0FB96
:101EE00001700146224600233846FEF7EBF905460D
:101EF0000EE011480F49091F0968C1F38811A0FBC2
:101F000001700146224600233846FEF7DBF90546FC
:101F10000848001F0068C0F30140401C4600B5FBA4
:101F2000F6F902E0DFF8109000BF00BF4846BDE8B8
:101F3000F0870000083802400024F40000127A0004
:101F4000F8B5044600270CB90120F8BD207800F050
:101F50000100002871D0F948006800F00C00042846
:101F60000DD0F648006800F00C00082813D1F348A3
:101F7000001F006800F48000B0F5800F0BD1EF481F
:101F800008380068C0F34040002869D06068002825
:101F900066D10120D9E700BF6068B0F5803F08D165
:101FA000E6480838006840F48030E44908390860A1
:101FB0002EE0606868B9E1480838006820F4803095
:101FC000DE49083908600846006820F4802008606F
:101FD0001EE06068B0F5A02F0DD1D8480838006821
:101FE00040F48020D549083908600846006840F46C
:101FF000803008600CE0D1480838006820F4803058
:10200000CE49083908600846006820F4802008603E
:1020100000BF606890B1FFF77BF9054606E0FFF767
:1020200077F9401B642801D903208EE7C34808389C
:102030000068C0F340400028F1D011E0FFF768F9D4
:10204000054606E0FFF764F9401B642801D9032028
:102050007BE7BA4808380068C0F340400028F1D157
:10206000207800F00200022869D1B448006800F02E
:102070000C0058B1B148006800F00C0008281CD1D1
:10208000AE48001F006800F48000B0B9AB480838C3
:102090000068C0F3400020B1E068012801D00120B1
:1020A00053E7A6480838006820F0F800216940EAA4
:1020B000C100A2490839086041E0E06828B39F48A0
:1020C0000838006840F001009C4908390860FFF7B3
:1020D0001FF9054606E0FFF71BF9401B022801D94E
:1020E000032032E7954808380068C0F34000002814
:1020F000F1D092480838006820F0F800216940EAE1
:10210000C1008E490839086019E08C480838006819
:1021100020F00100894908390860FFF7F9F8054601
:1021200006E0FFF7F5F8401B022801D903200CE771
:10213000824808380068C0F340000028F1D12078B8
:1021400000F00800082836D16069D0B17B486C30B7
:10215000006840F0010079496C310860FFF7D8F859
:10216000054606E0FFF7D4F8401B022801D90320FA
:10217000EBE672486C300068C0F340000028F1D0F4
:1021800019E06E486C30006820F001006B496C313A
:102190000860FFF7BDF8054606E0FFF7B9F8401BF9
:1021A000022801D90320D0E664486C300068C0F3EF
:1021B00040000028F1D1207800F00400042874D1F8
:1021C0005E483830006800F0805080B900BF5B483E
:1021D0003830006840F0805058493831086008466F
:1021E000006800F08050009000BF00BF01275448F5
:1021F000006800F48070B0B95148006840F4807005
:102200004F490860FFF784F8054606E0FFF780F8BD
:10221000401B642801D9032097E64948006800F470
:1022200080700028F2D000BFA068012808D1434880
:102230006830006840F001004049683108602DE0D6
:10224000A06868B93D486830006820F001003B494B
:10225000683108600846006820F0040008601DE04E
:10226000A06805280DD135486830006840F00400AA
:102270003249683108600846006840F00100086093
:102280000CE02E486830006820F001002B496831CE
:1022900008600846006820F00400086000BFA068DD
:1022A000A8B1FFF735F8054609E02EE0FFF730F852
:1022B000401B41F28831884201D9032045E61F487E
:1022C00068300068C0F340000028EFD013E0FFF74B
:1022D0001FF8054608E0FFF71BF8401B41F2883164
:1022E000884201D9032030E6144868300068C0F302
:1022F00040000028EFD1012F07D110483830006886
:1023000020F080500D4938310860A069002852D073
:102310000A48006800F00C00082865D0A06902286F
:102320004AD106480838006820F08070034908390F
:102330000860FEF7EDFF05460BE00000083802409C
:1023400000700040FEF7E4FF401B022801D9032083
:10235000FBE53B480068C0F340600028F2D1E0692B
:1023600040F00050216A0843616A40EA811101226D
:10237000A06AC2EB500041EA00412C20005D41EA16
:1023800000602F49091D0860081F006840F0807038
:10239000091F0860FEF7BCFF054606E0FEF7B8FF20
:1023A000401B022801D90320CFE525480068C0F36F
:1023B00040600028F2D040E02148006820F08070A2
:1023C0001F490860FEF7A4FF054606E0FEF7A0FFE0
:1023D000401B022801D90320B7E519480068C0F363
:1023E00040600028F2D128E01548001D0668A06969
:1023F000012820D006F48001E06981421BD106F05B
:102400003F01206A814216D147F6C0703040616AB0
:10241000B0EB811F0FD106F440310122A06AC2EB5C
:102420005000B1EB004F06D106F070612C20005D2A
:10243000B1EB006F01D0012087E5002085E50000A9
:1024400000380240704770477047000030B50246C0
:102450000B4600BF92F83C00012801D1022030BD9C
:10246000012082F83C0000BF022082F83D00106885
:10247000416810688468214D1068A84203D0204D3F
:102480001068A84203D121F470015868014321F07B
:1024900070011868014310684160184D1068A84227
:1024A0001BD01068B0F1804F17D0164D1068A842AD
:1024B00013D0154D1068A8420FD0144D1068A842D3
:1024C0000BD00F4D1068A84207D0114D1068A842DC
:1024D00003D0104D1068A84205D124F080049868FC
:1024E000044310688460012082F83D0000BF002092
:1024F00082F83C0000BF00BFB1E7000000000140CF
:10250000000401400004004000080040000C0040AE
:10251000004001400018004010B504460CB90120ED
:1025200010BD94F83D0028B9002084F83C002046F6
:1025300000F02AF8022084F83D00211D206802F0F6
:102540005DF8012084F8480000BF84F83E000121B6
:102550003F200155402001554120015542200155A1
:102560004320015500BF00BF012084F844004520EE
:102570000155462001554720015500BF012084F830
:102580003D000020CCE7000038B504460D49206826
:10259000884215D100BF0C48006840F010000A497D
:1025A00008600846006800F01000009000BF00BFFF
:1025B000002201213620FEF74DFF3620FEF73AFFBC
:1025C00038BD00000010004040380240014691F83C
:1025D0003D00012801D001207047022081F83D0014
:1025E0001C4B086898421BD00868B0F1804F17D088
:1025F000194B0868984213D0184B086898420FD0BE
:10260000174B086898420BD0164B0868984207D0C1
:10261000154B0868984203D0144B0868984210D1B3
:1026200008688068124B00EA0302062A0FD0B2F550
:10263000803F0CD00868006840F001000B6818600B
:1026400005E00868006840F001000B681860002091
:10265000C2E7000000000140000400400008004004
:10266000000C004000040140004001400018004000
:1026700007000100014691F83D00012801D001202A
:102680007047022081F83D000868C06840F00100F2
:102690000B68D8601C4B086898421BD00868B0F1E2
:1026A000804F17D0194B0868984213D0184B086810
:1026B00098420FD0174B086898420BD0164B086809
:1026C000984207D0154B0868984203D0144B08680D
:1026D000984210D108688068124B00EA0302062A6B
:1026E0000FD0B2F5803F0CD00868006840F00100C0
:1026F0000B68186005E00868006840F001000B688E
:1027000018600020BCE70000000001400004004009
:1027100000080040000C004000040140004001405F
:102720000018004007000100704710B504462068FB
:102730000069C0F34000D8B12068C068C0F3400011
:10274000B0B16FF002002168086101202077206895
:10275000806900F0030018B12046FFF7E5FF05E0AF
:10276000204600F013F9204600F02CFA00202077D4
:1027700020680069C0F38000D8B12068C068C0F349
:102780008000B0B16FF0040021680861022020775A
:102790002068806900F4407018B12046FFF7C4FF3C
:1027A00005E0204600F0F2F8204600F00BFA002089
:1027B000207720680069C0F3C000D8B12068C068E5
:1027C000C0F3C000B0B16FF00800216808610420B8
:1027D00020772068C06900F0030018B12046FFF799
:1027E000A3FF05E0204600F0D1F8204600F0EAF90A
:1027F0000020207720680069C0F30010D8B120685D
:10280000C068C0F30010B0B16FF01000216808611B
:10281000082020772068C06900F4407018B1204675
:10282000FFF782FF05E0204600F0B0F8204600F0F8
:10283000C9F9002020772068006900F0010058B134
:102840002068C06800F0010030B16FF0010021681D
:102850000861204600F05AFA20680069C0F3C010F1
:1028600058B12068C068C0F3C01030B16FF080006C
:10287000216808612046FFF7E6FD20680069C0F383
:10288000002058B12068C068C0F3C01030B16FF4A8
:102890008070216808612046FFF7D4FD2068006938
:1028A000C0F3801058B12068C068C0F3801030B108
:1028B0006FF0400021680861204600F047FA206868
:1028C0000069C0F3401058B12068C068C0F34010E0
:1028D00030B16FF02000216808612046FFF7B4FD99
:1028E00010BD000010B586B00446142101A8FDF704
:1028F00033FD2149206888421BD100BF1F48006872
:1029000040F004001D4908600846006800F004001B
:10291000009000BF00BF88150190022002900020A7
:10292000039004900220059001A91548FEF7E4FBEE
:102930001FE01449206888421BD100BF0F4800687F
:1029400040F008000D4908600846006800F00800E3
:10295000009000BF00BF4FF4404001900220029061
:102960000020039004900220059001A90648FEF77C
:10297000C3FB06B010BD0000000400403038024028
:102980000008024000080040000C024070472DE99A
:10299000F04104460D461646002700BF94F83C005F
:1029A000012802D10220BDE8F081012084F83C001A
:1029B00000BF0C2E51D005DC4EB1042E1ED0082EC7
:1029C0007AD133E0102E60D0142EF9D175E029466B
:1029D000206801F091FE2068806940F008002168BD
:1029E00088612068806920F004002168886120687F
:1029F0008069296908432168886178E02946206850
:102A000001F0B4FE2068806940F4006021688861AC
:102A10002068806920F4806021688861206880696E
:102A2000296940EA01202168886160E02946206820
:102A300001F0DCFE2068C06940F008002168C86130
:102A40002068C06920F004002168C8612068C0695E
:102A5000296908432168C86149E02946206801F0D6
:102A600003FF2068C06940F400602168C8612068E5
:102A7000C06920F480602168C8612068C069296944
:102A800040EA01202168C86131E02946206801F050
:102A900017FF2068406D40F00800216848652068F5
:102AA000406D20F00400216848652068406D296968
:102AB0000843216848651AE017E02946206801F0BC
:102AC00027FF2068406D40F4006021684865206859
:102AD000406D20F48060216848652068406D296958
:102AE00040EA01202168486501E0012700BF00BFDE
:102AF00000BF002084F83C0000BF384653E710B503
:102B000004460CB9012010BD94F83D0028B90020FE
:102B100084F83C00204600F029F8022084F83D00AB
:102B2000211D206801F06AFD012084F8480000BFE3
:102B300084F83E0001213F200155402001554120ED
:102B40000155422001554320015500BF00BF01201F
:102B500084F8440045200155462001554720015581
:102B600000BF012084F83D000020CCE708B5124AE0
:102B7000016891420DD100BF1049096841F002017E
:102B80000E4A11601146096801F00201009100BF70
:102B900011E00B4A016891420DD100BF0749096855
:102BA00041F00401054A11601146096801F0040171
:102BB000009100BF00BF08BD000400404038024043
:102BC000000800407047000070B504460D4615B976
:102BD00094F83E0015E0042D02D13F20005D10E086
:102BE000082D02D14020005D0BE00C2D02D14120C8
:102BF000005D06E0102D02D14220005D01E043207F
:102C0000005D012801D0012070BD1DB9022084F8AB
:102C10003E001AE0042D03D102213F20015514E0AB
:102C2000082D03D10221402001550EE00C2D03D1C7
:102C300002214120015508E0102D03D1022142203C
:102C4000015502E002214320015501222946206856
:102C500001F040FD25492068884203D024492068BE
:102C6000884201D1012000E0002028B12068406C9A
:102C700040F40040216848641C49206888421BD009
:102C80002068B0F1804F17D01A492068884213D0CD
:102C90001949206888420FD01849206888420BD013
:102CA00013492068884207D015492068884203D01C
:102CB00014492068884210D120688068124900EACF
:102CC0000106062E0FD0B6F5803F0CD020680068B4
:102CD00040F001002168086005E02068006840F0CD
:102CE00001002168086000208EE70000000001401C
:102CF000000401400004004000080040000C0040B7
:102D000000400140001800400700010010B50446D3
:102D10000A492068884201D1FEF700FB0849206873
:102D2000884209D107480088401C064908806FF096
:102D3000010005490968086110BD0000002000403D
:102D400000100040AE010020D805002070472DE99A
:102D5000F04104460E461746E06F20282DD106B1FB
:102D600017B90120BDE8F08100BF94F87400012874
:102D700001D10220F6E7012084F8740000BF20662C
:102D80003A463146204602F019FC05469DB9206EB0
:102D900001280FD110202168086200BF00BF216800
:102DA00051E8001F41F01000226842E800010029AC
:102DB000F5D100E001252846D4E70220D2E7000043
:102DC00070B504460D4607492068884201D101F0DC
:102DD0007BFA05492068884202D1E8B201F082FA04
:102DE00070BD0000004800400078004070B5044607
:102DF000A56FE66F2068806800F08000802823D1EE
:102E0000212D21D100BF00BF2168083151E8001FEA
:102E100021F080002168083141E80002002AF3D146
:102E200000BFE06E68B1E06EFDF7DCFE48B1E06E19
:102E3000FDF742FF202804D11020C4F880000320B1
:102E400070BD204602F00BFA2068806800F0400058
:102E5000402823D1222E21D100BF00BF2168083194
:102E600051E8001F21F040002168083141E80002CC
:102E7000002AF3D100BF206F68B1206FFDF7B2FECA
:102E800048B1206FFDF718FF202804D11020C4F8A6
:102E900080000320D4E7204602F098F90020CFE715
:102EA000704700002DE9F04704462068C569206896
:102EB00006682068876840F60F0005EA0009B9F146
:102EC000000F0CD105F0200048B106F0200030B111
:102ED000606E10B12046616E8847BDE8F087B9F199
:102EE000000F7DD007F0010018B9B6483040002827
:102EF000F7D005F0010058B106F4807040B1012010
:102F000021680862D4F8800040F00100C4F8800015
:102F100005F0020058B107F0010040B1022021681D
:102F20000862D4F8800040F00400C4F8800005F086
:102F3000040058B107F0010040B104202168086284
:102F4000D4F8800040F00200C4F8800005F00800CA
:102F500070B106F0200010B907F0010040B1082060
:102F600021680862D4F8800040F00800C4F88000AE
:102F700005F4006060B106F0806048B14FF4006075
:102F800021680862D4F8800040F02000C4F8800076
:102F9000D4F8800000284BD005F0200038B106F0AE
:102FA000200020B1606E10B12046616E8847D4F8D1
:102FB00080A02068806800F04000402802D00AF01D
:102FC000280070B3204602F001F92068806800F004
:102FD0004000402821D100BF00BF2168083100E037
:102FE00027E051E8001F21F040002168083141E846
:102FF0000002002AF1D100BF206F50B17248216F4A
:103000000865206FFDF744FE90B1206F016D884781
:103010000EE02046FFF744FF0AE02046FFF740FF9E
:1030200006E0FFE72046FFF73BFF0020C4F88000E2
:1030300053E7206E01287CD105F01000002878D0DD
:1030400006F010000028FAD01020216808622068DD
:10305000806800F0400040285BD1206F0068406825
:103060001FFA80F8B8F1000F52D0B4F8580040456C
:103070004EDDA4F85A80206FC069B0F5807F3ED045
:1030800000BF00BF216851E8001F21F48070226852
:1030900042E800010029F5D100BF00BF00BF216850
:1030A000083151E8001F21F001002168083141E892
:1030B0000002002AF3D100BF00BF00BF2168083121
:1030C00051E8001F21F040002168083141E800026A
:1030D000002AF3D100BF2020E0670020206600BF57
:1030E00000BF216851E8001F21F01000226842E86B
:1030F00000010029F5D100BF206FFDF773FDB4F882
:103100005800B4F85A20801A81B22046FFF758FEC2
:10311000E3E634F8580F6188401A1FFA80F8608897
:10312000583CB0B3B8F1000F33D000BF00BF2168E6
:1031300000E02FE051E8001F21F49070226842E87F
:1031400000010029F3D100BF00BF00BF2168083192
:1031500051E8001F21F001002168083141E8000218
:10316000002AF3D100BF2020E067002020666066BF
:1031700000BF00BF216851E8001F21F01000226845
:1031800042E800010029F5D100BF41462046FFF783
:1031900017FEA2E605F0800040B106F0800028B1DD
:1031A000A06E10B12046A16E884796E605F040005B
:1031B00030B106F0400018B1204602F039F88CE634
:1031C00000BF8AE6200100049150000810B50446B3
:1031D0000CB9012010BDA06900B100E000BFA06FD4
:1031E00028B9002084F87400204600F029F8242033
:1031F000A0672068006820F0010021680860204670
:1032000002F03EF8012800D1E4E7606A10B12046E0
:1032100001F09CFE2068406820F4904021684860DE
:103220002068806820F02A00216888602068006893
:1032300040F0010021680860204601F003FFC9E763
:1032400010B586B00446142101A8FDF785F8FD49A4
:10325000206888424FD100BFFB48006840F48010CE
:10326000F94908600846006800F48010009000BF2B
:1032700000BF00BFF4481038006840F00400F24975
:10328000103908600846006800F00400009000BF94
:1032900000BF00BF0846006840F00800086008460C
:1032A000006800F00800009000BF00BF8814019083
:1032B0000220029000200390032004900820059033
:1032C00001A9E248FDF718FF0420019002200290B6
:1032D00000200390032004900820059001A9DC48F9
:1032E000FDF70AFF002202213520FEF7B3F8352052
:1032F000FEF7A0F8FEE1D7492068884255D100BF0B
:10330000D148006840F08040CF4908600846006816
:1033100000F08040009000BF00BF00BFCA481038D6
:10332000006840F01000C84910390860084600687D
:1033300000F01000009000BF00BF4FF4C07001907B
:1033400002200290002003900320049008200590A2
:1033500001A9C148FDF7D0FEC048C14908604FF03F
:10336000206048600021BE488160C1604FF48061E8
:103370000161002141618161C1614FF480310162CD
:1033800000214162FDF7BCFD08B1FDF7FDFB00BF68
:10339000B3482067846300BF002202215220FEF759
:1033A00059F85220FEF746F8A4E1AE492068884259
:1033B00034D100BFA448006840F00040A249086032
:1033C0000846006800F00040009000BF00BF00BF4A
:1033D0009D481038006840F010009B491039086083
:1033E0000846006800F01000009000BF00BF0320F6
:1033F00001900220029000200390032004900820F6
:10340000059001A99448FDF777FE00220221532080
:10341000FEF720F85320FEF70DF86BE19249206883
:10342000884237D100BF8848001D006840F0100076
:103430008549091D08600846006800F010000090EA
:1034400000BF00BF00BF80481038006840F0010096
:103450007D49103908600846006800F001000090BE
:1034600000BF00BF4FF4C060019002200290002016
:103470000390032004900720059001A97B48FDF7E5
:103480003BFE002202212520FDF7E4FF2520FDF769
:10349000D1FF2FE176492068884256D100BF6A48A3
:1034A000006840F40030684908600846006800F48D
:1034B0000030009000BF00BF00BF634810380068B4
:1034C00040F008006049103908600846006800F0C4
:1034D0000800009000BF00BF602001900220029011
:1034E00000200390032004900720059001A958486C
:1034F000FDF702FE594830305E4908604FF0006029
:10350000486000215B488160C1604FF480610161C7
:103510000021416181614FF48071C1610902016242
:1035200000214162FDF7ECFC08B1FDF72DFB00BF67
:1035300050482067846300BF002202212620FDF747
:1035400089FF2620FDF776FFD4E04B4920688842AA
:1035500077D100BF3C48006840F480203A490860B9
:103560000846006800F48020009000BF00BF00BF44
:1035700035481038006840F00400334910390860BD
:103580000846006800F00400009000BF00BF4FF440
:1035900040600190022002900020039003200490DC
:1035A0000720059001A92948FDF7A6FD2B483038D2
:1035B000324908604FF00060486000212F48816068
:1035C000C1604FF480610161002141618161C1618D
:1035D0004FF48031016200214162FDF791FC08B196
:1035E000FDF7D2FA00BF25482067846300BF1B485F
:1035F0001830234908604005486040212048816018
:103600000021C1604FF4806101610021416181614D
:10361000C1614FF48031016200214162FDF770FC0D
:1036200008B1FDF7B1FA00BF1548E066846300BF3A
:10363000002202212720FDF70DFF2720FDF7FAFECB
:1036400058E01FE0005000404038024000080240AF
:10365000000C024000780040001002405860024018
:10366000C0090020007C0040001001400000024022
:1036700000440040200A002000480040800A00204A
:10368000E00A00201C492068884233D100BF1B4853
:10369000006840F02000194908600846006800F002
:1036A0002000009000BF00BF00BF1448143800681D
:1036B00040F004001149143908600846006800F021
:1036C0000400009000BF00BFC020019002200290C3
:1036D00000200390032004900820059001A90848C9
:1036E000FDF70AFD002201214720FDF7B3FE472028
:1036F000FDF7A0FE06B010BD0014014044380240A2
:103700000008024070B504460D461646E06F2028BA
:1037100028D105B10EB9012070BD00BF94F8740026
:10372000012801D10220F7E7012084F8740000BFCE
:10373000002020662068406800F4000060B100BFEF
:1037400000BF216851E8001F41F08060226842E814
:1037500000010029F5D100BF32462946204601F07C
:103760002DFFD9E70220D7E7704770472DE9F84FC2
:1037700004460E4617469946A06F20285DD106B133
:1037800017B90120BDE8F88F00BF94F87400012834
:1037900001D10220F6E7012084F8740000BF002068
:1037A000503420632120A062FDF7B2FD82462780BD
:1037B0006780503CA068B0F5805F04D1206910B9E3
:1037C0000025B04602E035464FF0000800BF00205B
:1037D00084F8740000BF1DE053460022802120467B
:1037E000CDF8009001F054FF08B10320CAE745B9B5
:1037F000B8F80000C0F308002168886208F10208E8
:1038000003E02878216888626D1CB4F85200401EDD
:10381000A4F85200B4F852000028DDD1534600222B
:1038200040212046CDF8009001F032FF08B103207E
:10383000A8E72020A0670020A4E70220A2E77047A5
:1038400000BFFEE72DE9F0474F4800684068C0F52B
:1038500080701FFA80FA8FE0002000F0C9FD552823
:103860000BD04A490988481CC11700EB11610912A5
:10387000A0EB0121454A11807EE0012000F0B8FD57
:103880000446532C0DD0522C0BD040490988481CBB
:10389000C11700EB11610912A0EB01213B4A118015
:1038A0006AE00026B04607E01FFA88F000F0A0FDAD
:1038B0003044C6B208F10108B8F10A0FF4DB0A205F
:1038C00000F096FDB0420BD030490988481CC11762
:1038D00000EB11610912A0EB01212C4A11804BE091
:1038E000062000F085FD8146072000F081FD074697
:1038F00049EA072005B2532C20D100EE905AB8EEC9
:10390000E01ADFED231AC1EE210A9FED221A60EEC4
:10391000810AB0EE600ADFED200A60EE200A1F483F
:1039200090ED001ADFED1E1A41EE810AC0ED000A8B
:103930001C480078C0431B49087010E0522C0ED17F
:1039400000EE105AB8EEC00ADFED170A20EE200A8A
:10395000DFED0F0A80EE201A104880ED031A0B49A4
:10396000098801F10B00C11700EB11610912A0EBEE
:103970000121064A118000BF504600F025FD0B28AA
:10398000BFF66AAFBDE8F087200A0020CE01002014
:1039900000000047000034436666663FC810002000
:1039A000CDCCCC3DD00100200000FA4410B5002061
:1039B0000D49088008200D490968086210200B494C
:1039C0000968086202010A490848FFF79BFE08B12E
:1039D000FDF7DAF805480068806840F00100034907
:1039E0000968886010BD0000CE0100203408002066
:1039F000C80F002008B504F0C3FF009000BF05E029
:103A00000521684604F002FDFFF71CFFF8E70000FF
:103A10001CB50548072100238022CDE9001003A131
:103A2000054804F017FF1CBDE4020020494D555F16
:103A30005461736B00000000F539000810B5FDF704
:103A400087F8FDF7B7F800F0A3FC02F045FE00F0A0
:103A500043F808210748FFF7B7F808210648FFF7A1
:103A6000B3F800F07FFF0220FDF782F803F0CCF9F5
:103A700010BD0000400500208C05002070B52DED24
:103A8000048B04462046FCF78BFD41EC190B1049D2
:103A900003C941EC100B53EC102B51EC190BFCF744
:103AA00007FD21F00041FCF78CFD0A490860204623
:103AB00000F02EF80748006840004FF47A71484340
:103AC000B0FBF1F5284604F071FCBDEC048B70BD31
:103AD000401300204402002010B5FBEE041A14210C
:103AE0009FED081AF6EE000AB7EE000A064800F04D
:103AF0002FFC06480068006840F020000349096870
:103B0000086010BD00000000E01200202C0700201B
:103B10002DE9F0472DED048B0646B7EE000AB0EE16
:103B2000409A41F288394FF0320AFDF7F1FB8046A6
:103B300000207B490884012048849FED7A0A0846CA
:103B400080ED090A9FED770A80ED0A0AB7EE000AB8
:103B500080ED0C0A9FED740A80ED0D0A3046FCF7EB
:103B60001FFD724AC2E90201114603C941EC100B64
:103B70001146D1E9020153EC102BFCF799FC6B4A7A
:103B8000C2E90401BAE0FDF7C3FBA0EB080041F273
:103B90008831884200D9BEE000256449D1E904019A
:103BA00021F000419FED620B53EC102BFCF754FD0C
:103BB0000FD85E49D1E904019FED5F1B53EC112B37
:103BC000FCF74AFD01D20A2001E06FF0090005462A
:103BD0000EE05649D1E904019FED571B53EC112B20
:103BE000FCF73AFD01D2012001E04FF0FF3005461D
:103BF0002846FCF7D5FC41EC180B4C4903C941ECB5
:103C0000100B53EC102B51EC180BFCF7B0FB474A90
:103C100003C2464903C99FED4A1B53EC112BFCF725
:103C20001BFD08D3414903C99FED471B53EC112BE2
:103C3000FCF7FAFC14D23D4903C99FED3F1B53EC3E
:103C4000112BFCF709FD02D29FED410A01E09FED27
:103C5000410A10EE107A3846FCF7D2FC334A03C210
:103C6000324903C941EC100B3049D1E9020153EC50
:103C7000102BFCF71DFC2D4AC2E90401114603C9B3
:103C8000FCF702FD00EE100A9FED331AC0EE010AA8
:103C90009FED320A20EE800ADFED310A20EE200A85
:103CA0001F4880ED0B0A02F005FC012211032D488C
:103CB000FDF728FB012251032A48FDF723FB0120D1
:103CC000FDF706FA3223112215492748FFF74EFD6A
:103CD00004460120FDF7FCF900224FF40051214871
:103CE000FDF710FB00224FF480511E48FDF70AFB40
:103CF00004B110E00A20FDF7EBF900BF0B49D1E950
:103D0000040121F000419FED190B53EC102BFCF73F
:103D1000A3FCFFF438AF00BFBDEC048BBDE8F08717
:103D200000130020000000009A99193E4013002063
:103D3000000000000000244000000000000000001F
:103D4000000000000000444000000000008076C039
:103D5000000020420000B4C300003443DA0F4940A1
:103D60005C8FCA40000402402C07002000000000C5
:103D70000000F03F70B5044600251B48FFF736F8F9
:103D800000B170BD72B61848006F30B11648006FB0
:103D900000684068C0F18000C5B2002D21DD04B389
:103DA0001248007840B91248124908600F4800785C
:103DB000C0430E49087007E00F480E4908600B48E1
:103DC0000078C043094908702A462146094800681E
:103DD000FCF7A9FA62B629460648006800F00EFE14
:103DE00000E062B600BFCCE7B808002094010020D4
:103DF000800D002090010020000E002008B500BFBB
:103E00001648006840F4001014490860084600682D
:103E100000F40010009000BF00BF002205210C201C
:103E2000FDF718FB0C20FDF705FB002205210E20F5
:103E3000FDF710FB0E20FDF7FDFA002205210F20F3
:103E4000FDF708FB0F20FDF7F5FA002205211020F1
:103E5000FDF700FB1020FDF7EDFA08BD30380240F9
:103E600000B587B01C2207496846FCF75CFA0021C0
:103E7000684602F05AFC0449086000F0E1FA07B015
:103E800000BD00002C8D00080000002000B587B0A8
:103E9000142102A8FCF760FA00BF3F48006840F018
:103EA00080003D4908600846006800F080000190ED
:103EB00000BF00BF00BF0846006840F01000086067
:103EC0000846006800F01000019000BF00BF00BF6E
:103ED0000846006840F0020008600846006800F0EC
:103EE0000200019000BF00BF00BF0846006840F01C
:103EF000080008600846006800F00800019000BF54
:103F000000BF00BF0846006840F004000860084693
:103F1000006800F00400019000BF00BF00BF084629
:103F2000006840F0010008600846006800F00100E9
:103F3000019000BF00BF00224FF440511748FDF729
:103F4000E1F94FF4405002900120039000200490CA
:103F5000059002A91148FDF7CFF84FF400400290F8
:103F600000200390049002A90C48FDF7C5F84FF417
:103F70000040029000200390049002A90848FDF739
:103F8000BBF80B20029000200390049002A9054882
:103F9000FDF7B2F807B000BD30380240000402401F
:103FA00000000240000C024000B58BB000200890D9
:103FB00009900A901C2101A8FCF7CEF9184819496C
:103FC000086040F23740486000211648816040F2A6
:103FD000CF71C160002101618161FEF790FD08B1E0
:103FE000FCF7D2FD002008900A9008A90D48FEF7C2
:103FF0002DFA08B1FCF7C8FD602001900020029066
:1040000003900590082201A90648FEF7C0FC08B1FC
:10401000FCF7BAFD0348FEF765FC0BB000BD0000DD
:10402000000400404005002000B58BB0002008903F
:1040300009900A901C2101A8FCF78EF91C481D4923
:10404000086040F23740486000211A48816040F221
:10405000CF71C160002101618161FEF750FD08B19F
:10406000FCF792FD002008900A9008A91148FEF77D
:10407000EDF908B1FCF788FD602001900020029066
:1040800003900590082201A90A48FEF780FC08B1B8
:10409000FCF77AFD0C2201A90648FEF778FC08B16E
:1040A000FCF772FD0348FEF71DFC0BB000BD0000DD
:1040B000000800408C0500200EB500200090019003
:1040C00002900E480E49086040F2374048600021D7
:1040D0000B4881606321C16080218161FEF71CFA79
:1040E00008B1FCF751FD0020009002906946044899
:1040F000FEF7ACF908B1FCF747FD0EBD001000401B
:10410000D805002010B50D480D4908604FF4E13086
:10411000486000210A488160C16001610C21416151
:1041200000218161C16101620020054948620846A1
:10413000FFF74CF808B1FCF727FD10BD0050004018
:104140002406002010B50D480D4908604FF4E130F9
:10415000486000210A488160C16001610C21416111
:1041600000218161C1610162002005494862084661
:10417000FFF72CF808B1FCF707FD10BD00780040F0
:10418000A806002010B50D480D4908600D4848608C
:1041900000210B488160C16001610C214161002157
:1041A0008161C16101620020054948620846FFF74C
:1041B0000DF808B1FCF7E8FC10BD0000007C0040E1
:1041C0002C07002000093D0010B50D480D4908607E
:1041D0004FF4E130486000210A488160C16001610C
:1041E0000C21416100218161C1610162002005490A
:1041F00048620846FEF7EAFF08B1FCF7C5FC10BDAF
:1042000000100140B007002010B50D480D490860AE
:104210004FF4E130486000210A488160C1600161CB
:104220000C21416100218161C161016200200549C9
:1042300048620846FEF7CAFF08B1FCF7A5FC10BDAE
:10424000004400403408002010B50D480D490860B6
:104250004FF4E130486000210A488160C16001618B
:104260000C21416100218161C16101620020054989
:1042700048620846FEF7AAFF08B1FCF785FC10BDAE
:1042800000480040B808002010B50D480D490860EE
:104290004FF41650486000210A488160C1600161F6
:1042A0000C21416100218161C16101620020054949
:1042B00048620846FEF78AFF08B1FCF765FC10BDAE
:1042C000001401403C09002010B50448FFF752FDDE
:1042D000802202490248FEF73AFD10BD000D002081
:1042E000B808002010B50446042C03D1074802F09A
:1042F00047FE04E0082C02D1044802F06BFE802245
:1043000002490348FEF723FD10BD0000A001002074
:10431000A806002004F064FC1CB506480521002313
:104320004FF40072CDE9001003A1064804F092FAA0
:104330001CBD0000E00200204D61696E5F54617396
:104340006B0000001543000800BFFEE700BFFEE75A
:1043500080ED000AC0ED010A80ED021A9FED0A2AE5
:1043600080ED032A02EE101AB8EEC22A80ED052A6B
:10437000C0ED041A9FED052A80ED072A9FED032A60
:1043800080ED062A704700000000C84200000000CF
:1043900010B5002009490860486088600120C860A5
:1043A00007480068006840F0200005490968086077
:1043B000082204490248FEF7CAFC10BD880F0020FD
:1043C000A8060020A001002001460848008881427C
:1043D00004DB06480088081A80B27047034800884A
:1043E000C0F58070084480B2F7E70000CE010020DD
:1043F0000246064800888118C81701EB10600012B9
:10440000A1EB0020024B185C70470000CE01002099
:10441000C80F002000BF012002F076F9FBE7000082
:1044200010B50446FFF70AFBFFF7F2FAFFF774FF37
:104430000248006804F05AF810BD0000B4020020E1
:104440001CB50648052100234FF48072CDE9001009
:1044500003A1064804F0FEF91CBD0000B4020020D0
:1044600053746172745F5461736B000021440008DF
:1044700010B500BF502072B680F31188BFF34F8F84
:10448000BFF36F8F62B600BF04F080FA18B14FF02F
:1044900080500449086000BF002080F3118800BFED
:1044A00010BD000004ED00E000B5B3B0302127A836
:1044B000FBF752FF142122A8FBF74EFF842101A82D
:1044C000FBF74AFF00BF2D48006840F080502B49A1
:1044D00008600846006800F08050009000BF00BFF0
:1044E00000BF2748006840F440402549086008465E
:1044F000006800F44040009000BF00BF01202790FA
:104500000004289002202D90410527A8C1610421B4
:104510000162D821416202218162C162FDF710FD72
:1045200008B1FCF731FBFCF7E7FF08B1FCF72CFB07
:104530000F20229002202390002024904FF4A050BE
:1045400025902690072122A8FDF790FB08B1FCF7E3
:104550001BFB4FF4775001900020129013901490A1
:104560001690179018904FF48040199001A8FDF70D
:104570000BF808B1FCF708FB33B000BD403802402F
:10458000007000400348006840F470000149086072
:104590007047000088ED00E010B50248FEF7C5F84E
:1045A00010BD0000D805002010B50E480068C06896
:1045B00000F0010078B10C490869804700200949E2
:1045C0000968486200BF642006490968C86264211E
:1045D0000448C16000BF6FF001000249096808612A
:1045E00010BD00008C0B00203C00002010B50248DC
:1045F000FEF79BF810BD0000400B002010B50268CC
:10460000294B98420ED0B0F1804F0BD0274B9842E7
:1046100008D0274B984205D0264B984202D0264B13
:10462000984203D122F070024B681A431E4B984205
:1046300020D0B0F1804F1DD01C4B98421AD01C4B9B
:10464000984217D01B4B984214D01B4B984211D064
:104650001A4B98420ED01A4B98420BD0194B9842E5
:1046600008D0194B984205D0184B984202D0184BED
:10467000984203D122F44072CB681A4322F080039F
:104680004C6943EA040202608B68C3620B68836270
:10469000054B984202D0084B984201D10B69036345
:1046A0000123436110BD00000000014000040040F0
:1046B00000080040000C00400004014000400140A0
:1046C000004401400048014000180040001C004028
:1046D0000020004030B501F01F05012404FA05F365
:1046E000046A9C430462046A01F01F0502FA05F59E
:1046F0002C43046230BD000030B5056A25F0010589
:104700000562026A43688469154D2C4024F0030455
:104710000D682C4322F002028D682A43114DA842F5
:1047200000D103E0104DA84206D100BF22F00802DC
:10473000CD682A4322F004020A4DA84202D00A4D55
:10474000A84207D123F4807323F400734D692B43EF
:104750008D692B43436084614D684563026230BDBF
:104760008FFFFEFF000001400004014030B5056AE4
:1047700025F010050562026A43688469184D2C40D3
:1047800024F440740D6844EA052422F020028D6868
:1047900042EA0512134DA84200D103E0124DA8428F
:1047A00007D100BF22F08002CD6842EA051222F054
:1047B00040020C4DA84202D00B4DA84209D123F46F
:1047C000806323F400634D6943EA85038D6943EAFE
:1047D0008503436084614D688563026230BD0000DB
:1047E000FF8FFFFE000001400004014030B5056A64
:1047F00025F480750562026A4368C469174D2C4030
:1048000024F003040D682C4322F400728D6842EA00
:104810000522134DA84200D103E0124DA84207D152
:1048200000BF22F40062CD6842EA052222F48062D1
:104830000B4DA84202D00B4DA84209D123F480535E
:1048400023F400534D6943EA05138D6943EA0513C8
:104850004360C4614D68C563026230BD8FFFFEFFD7
:10486000000001400004014030B5056A25F4805580
:104870000562036A4468C2690E4D2A4022F4407200
:104880000D6842EA052223F400538D6843EA05339C
:10489000094DA84202D0094DA84204D124F4804415
:1048A0004D6944EA85144460C2614D680564036241
:1048B00030BD0000FF8FFFFE0000014000040140FA
:1048C00030B5056A25F480350562026A4368446D97
:1048D0000C4D2C400D682C4322F400320D8942EA25
:1048E0000542094DA84202D0084DA84204D123F444
:1048F00080334D6943EA0523436044654D6885650F
:10490000026230BD8FFFFEFF000001400004014045
:1049100030B5056A25F480150562026A4368446D66
:104920000D4D2C400D6844EA052422F400120D8937
:1049300042EA0552094DA84202D0094DA84204D1CD
:1049400023F480234D6943EA8523436044654D6821
:10495000C565026230BD0000FF8FFFFE0000014010
:104960000004014010B500200849886008604860D4
:10497000DFED071A37219FED071ADFED060A9FEDDD
:10498000060A0648FFF7E4FC10BD0000B80F00203F
:1049900000005CC200000000CDCC6C40980F0020ED
:1049A00038B504460D4600BF1148006840F02000AD
:1049B0000F4908600846006800F02000009000BF22
:1049C00000BF002203213720FCF744FD3720FCF70D
:1049D00031FD0848084908600846456000218160AB
:1049E000C4600161FDF798FD0348FDF743FE38BD43
:1049F00040380240001400408C0B002070B5054682
:104A00000E4600241FE0301B08280BDBE01D285C4D
:104A10006B2807D12819082100F01AF804F10800C2
:104A2000C4B210E0301B04280ADBE01C285C6B28B1
:104A300006D12819042100F00BF8201DC4B202E0B1
:104A4000601CC4B200BFB442DDDB012070BD0000B9
:104A500030B54A1E825C6B2A00D030BD0278774C9C
:104A60002468E3B2082903D1032A01D15C1CE3B214
:104A70000D064C1E045D45EA044444EA02241C432E
:104A80006E4D2C6008297DD10278012A06D0022AB9
:104A900032D0032A5ED0042A75D18CE0C278120687
:104AA000037942EA0342437942EA032283791A43B3
:104AB00000EE102AB8EEC00A614A82ED010A92EDBA
:104AC000010ADFED600A20EE200ADFED5F0A80EECA
:104AD000201A82ED011A8278012A06D1584A92EDF5
:104AE000010AB1EE400A82ED010A584A527842F0BA
:104AF0000102564B5A708DE0C2781206037942EAE1
:104B00000342437942EA032283791A4300EE102AD2
:104B1000B8EEC00A4E4A82ED010A92ED010ADFEDBD
:104B2000490A20EE200ADFED480A80EE201A82EDC5
:104B3000011A8278012A06D1454A92ED010AB1EEA6
:104B4000400A82ED010A414A527842F002023F4B8C
:104B50005A705FE0C2781206037942EA0342437951
:104B600042EA032283791A4300EE102AB8EEC00A03
:104B7000384A82ED010A92ED010ADFED320A20EE99
:104B8000200A01E047E044E0DFED2F0A80EE201A22
:104B900082ED011A8278012A06D12E4A92ED010A8D
:104BA000B1EE400A82ED010A284A527842F004022E
:104BB000264B5A702EE0C2781206037942EA03426D
:104BC000437942EA032283791A4300EE102AB8EEB1
:104BD000C00A214A82ED010A92ED010ADFED190AAD
:104BE00020EE200ADFED180A80EE201A82ED011A6D
:104BF0008278012A06D1184A92ED010AB1EE400AE4
:104C000082ED010A114A527842F008020F4B5A70A5
:104C100000E000BF10E004290ED10278012A0BD178
:104C2000C2786B2A08D14278F62A05D18278022A06
:104C300002D10122054B1A7000BF0EE7640100206B
:104C4000380100200000B44300008047BC0200206F
:104C50004001002048010020500100200448006865
:104C6000006840F0200002490968086070470000B1
:104C70003C09002000210B4A106006E04A1C91B25A
:104C80004FF6FE72914200DD06E0064A0C3A1268C9
:104C900002F04002002AF1D000BF0822024B1B683C
:104CA0001A627047281401403C0900205449C96920
:104CB00001F0200100291AD05149496AC8B251496E
:104CC000097801F01F01504A50544E490978491C97
:104CD0004C4A11704D490968491C4C4A11604828DA
:104CE00006D14B49096819B90121494A116082E08E
:104CF000452807D146490968012903D10221444AC0
:104D0000116078E0412807D141490968022903D19F
:104D100003213F4A11606EE044280AD13C490968EA
:104D2000032906D104213A4A11600021394A116051
:104D300061E037490968042952D10D2850D036491D
:104D4000344A1268885433490968491C314A116051
:104D50001146096807294EDB2F49097830392F4A57
:104D600011602D494978303951602B4989783039A3
:104D70009160294909793039294A116026494979D0
:104D80003039516024498979303991602349096863
:104D900064225143214A526802EB820201EB420134
:104DA0001E4A926811441F4A11601D490968642215
:104DB00051431B4A526802EB820201EB4201184A3E
:104DC00092681144184A11600021114A1160124A78
:104DD000117051709170D1701171517191710AE01F
:104DE00000210B4A11600C4A117051709170D17002
:104DF00011715171917108210C4A1268116270474A
:104E000000500040DC01002058110020E00100208B
:104E1000D4010020D8010020D810002078110020F3
:104E200084110020E8010020EC010020240600206D
:104E300010B50248FEF736F810BD0000A8060020A5
:104E400070B53A48006800F02000002869D0374863
:104E500008300068C4B2FD2C08D13548007828B964
:104E6000012033490870334804705AE0EE2C0CD10D
:104E70002F480078012808D102202D4908702D48BC
:104E8000447002202C4908704BE029480078022821
:104E900040D12948007810283CDA2648264909786C
:104EA000445425480078401C23490870084600787F
:104EB000102836D100250E221E49002001F0A0FA4C
:104EC00005461E490D7028121D4908701948807B3F
:104ED0001A490978884215D11648C07B18490978C3
:104EE00088420FD11348807A00061249497A40EA75
:104EF00001401049097A40EA01200E49C979084366
:104F00001049086000200A49087014210948FBF77D
:104F100023FA06E000200649087014210548FBF733
:104F20001BFA082008490968086270BD1C7C004013
:104F300036020020581300203502002041020020D4
:104F400040020020380200202C07002090F8241096
:104F500001F0010139B10168496821F40031826A28
:104F600011430268516090F8241001F002010229F7
:104F700007D10168496821F48031C26A114302688F
:104F8000516090F8241001F00401042907D1016850
:104F9000496821F48021026B11430268516090F846
:104FA000241001F00801082907D10168496821F49B
:104FB0000041426B11430268516090F8241001F0E7
:104FC0001001102907D10168896821F48051826B92
:104FD00011430268916090F8241001F0200120290B
:104FE00007D10168896821F40051C26B114302683E
:104FF000916090F8241001F04001402913D101681C
:10500000496821F48011026C114302685160016CFF
:10501000B1F5801F07D10168496821F4C001426CD5
:1050200011430268516090F8241001F0800180293A
:1050300007D10168496821F40021826C114302689C
:105040005160704738B504460020C4F88000FCF772
:105050005FF905462068006800F0080008280CD1B8
:105060006FF07E402B4600224FF400110090204646
:1050700000F00EFB08B1032038BD2020A067E067D8
:105080000020206600BF84F8740000BF00BFF3E773
:1050900070B50546AC6B0020A4F85A00A4F8520085
:1050A0002046FDF7FDFE70BD2DE9F0410546AC6BD5
:1050B000A66FE76F2068806800F08000802807D125
:1050C000212E05D10020A4F85200204600F0C7F898
:1050D0002068806800F04000402807D1222F05D1C9
:1050E0000020A4F85A00204600F070F8D4F88000A0
:1050F00040F01000C4F880002046FDF7D1FEBDE866
:10510000F08170B50546AC6BE869B0F5807F3FD0A3
:105110000020A4F85A0000BF00BF216851E8001F1A
:1051200021F48070226842E800010029F5D100BF17
:1051300000BF00BF2168083151E8001F21F00100C5
:105140002168083141E80002002AF3D100BF00BF06
:1051500000BF2168083151E8001F21F0400021689C
:10516000083141E80002002AF3D100BF2020E067A7
:10517000206E01280CD100BF00BF216851E8001F3C
:1051800021F01000226842E800010029F5D100BF9B
:10519000206E012805D1B4F858102046FDF710FE06
:1051A00002E02046FEF7E0FA70BD70B50546AC6B34
:1051B000206E012806D1B4F8580041082046FDF7BA
:1051C000FFFD02E02046FEF7D0FA70BD00BF00BF31
:1051D000026852E8002F22F49071036843E800123D
:1051E000002AF5D100BF00BF00BF0268083252E8B4
:1051F000002F22F001010268083242E80013002B60
:10520000F3D100BF016E01290CD100BF00BF0268BD
:1052100052E8002F22F01001036843E80012002A30
:10522000F5D100BF2021C1670021016641667047AA
:1052300010B5044600BF00BF216851E8001F21F0EF
:105240004000226842E800010029F5D100BF20207B
:10525000A0670020A0662046FEF7F1FA10BD00BF4F
:1052600000BF026852E8002F22F0C001036843E843
:105270000012002AF5D100BF20218167704700008D
:105280002DE9F04705464FF0000A2969A868084350
:1052900069690843E96940EA010828680068BC496F
:1052A000084040EA0800296808602868406820F43F
:1052B0004050E968084329684860D5F81880286A92
:1052C00040EA08082868806820F4306040EA080056
:1052D0002968886000BFAF492868884216D1AE4867
:1052E000006800F0030030B1012808D0022804D083
:1052F000032808D105E0012407E0022405E0042486
:1053000003E0082401E0102400BFC9E0A349286895
:10531000884216D1A048006800F00C0030B1042883
:1053200008D0082804D00C2808D105E0002407E0A4
:10533000022405E0042403E0082401E0102400BF57
:10534000AEE097492868884216D19348006800F07B
:10535000300030B1102808D0202804D0302808D1DF
:1053600005E0002407E0022405E0042403E008240B
:1053700001E0102400BF93E08A492868884216D1D2
:105380008548006800F0C00030B1402808D080286F
:1053900004D0C02808D105E0002407E0022405E07D
:1053A000042403E0082401E0102400BF78E07E49D3
:1053B0002868884219D17848006800F4407048B1E4
:1053C000B0F5807F0AD0B0F5007F05D0B0F5407F02
:1053D00008D105E0002407E0022405E0042403E0EE
:1053E000082401E0102400BF5AE070492868884270
:1053F00019D16948006800F4406048B1B0F5806F89
:105400000AD0B0F5006F05D0B0F5406F08D105E0C7
:10541000012407E0022405E0042403E0082401E05D
:10542000102400BF3CE062492868884219D15A48DC
:10543000006800F4405048B1B0F5805F0AD0B0F584
:10544000005F05D0B0F5405F08D105E0002407E01B
:10545000022405E0042403E0082401E0102400BF36
:105460001EE054492868884219D14B48006800F46E
:10547000404048B1B0F5804F0AD0B0F5004F05D09C
:10548000B0F5404F08D105E0002407E0022405E014
:10549000042403E0082401E0102400BF00E01024ED
:1054A00000BFE869B0F5004F39D1092C17D2DFE809
:1054B00004F005090D160F1616161300FCF7C8FCAC
:1054C000064610E0FCF7D4FC06460CE03A4E0AE033
:1054D000FCF7DEFC064606E04FF4004603E000263B
:1054E0004FF0010A00BF00BF86B37000696800EB8F
:1054F0005100B0FBF1F7102F0ED3B7F5803F0BD260
:105500004FF6F07007EA0009C7F3420049EA0009C4
:105510002868C0F80C9034E04FF0010A31E0092C03
:1055200018D2DFE804F005090D170F17171714003C
:10553000FCF78EFC064611E0FCF79AFC06460DE0EF
:105540001D4E0BE0FCF7A4FC064607E019E04FF403
:10555000004603E000264FF0010A00BF00BF86B1FD
:10556000686806EB50006968B0FBF1F7102F06D3AE
:10557000B7F5803F03D2B8B22968C86001E04FF0A8
:10558000010A00206866A8665046BDE8F087000062
:10559000F369FFEF001001409038024000440040E2
:1055A00000480040004C0040005000400014014002
:1055B00000780040007C00400024F40070B50446F0
:1055C0000E4615466665A4F858500020C4F88000C1
:1055D0002220E067206F00B32A48216FC8632A4861
:1055E000216F08642948216FC8640020216F086575
:1055F000236803F124012B46626D206FFBF7F6FC54
:1056000058B11020C4F8800000BF002084F8740056
:1056100000BF2020E067012070BD00BF002084F89B
:10562000740000BF206960B100BF00BF216851E86D
:10563000001F41F48070226842E800010029F5D182
:1056400000BF00BF00BF2168083151E8001F41F0D2
:1056500001002168083141E80002002AF3D100BFAF
:1056600000BF00BF2168083151E8001F41F0400031
:105670002168083141E80002002AF3D100BF002070
:10568000CAE7000003510008AB510008A950000808
:105690002DE9F04104460D4617469846069E67E000
:1056A000701C002864D0FBF733FEA0EB0800B0426A
:1056B00000D836BB00BF00BF216851E8001F21F4AD
:1056C000D070226842E800010029F5D100BF00BF78
:1056D00000BF2168083151E8001F21F00100216856
:1056E000083141E80002002AF3D100BF2020A06762
:1056F000E06700BF002084F8740000BF0320BDE80D
:10570000F0812068006800F0040080B32068C06960
:10571000C0F3C02058B34FF400602168086200BF96
:1057200000BF216851E8001F21F4D070226842E8D0
:1057300000010029F5D100BF00BF00BF216808317A
:1057400051E8001F21F001002168083141E8000202
:10575000002AF3D100BF2020A067E067C4F88000D2
:1057600000BF002084F8740000BF0320C7E7FFE7F4
:105770002068C0692840A84201D1012000E0002033
:10578000B8428DD00020BAE710B51F480068C06944
:10579000C0F3401010B31C480068406AC4B21B48F4
:1057A000008800F40040C8B91848008800F4804020
:1057B00060B10A2C03D000201449088020E013486F
:1057C000008840F400401149088019E00D2C06D1F2
:1057D0000E48008840F480400C49088010E00B48D7
:1057E0000088C0F30D000A490C5408480088401C8A
:1057F0000649088008460088C72801DD0020088087
:105800000148FDF74FFB10BDB0070020300100201C
:10581000D80B00200F480068C06900F00800082875
:1058200002D10C49096808620A480068C06900F0A2
:105830000400042802D10749096808620548006885
:10584000C06900F00200022802D10249096808621A
:10585000704700003408002010B50248FDF722FB15
:1058600010BD0000B808002010B51748006800F00F
:10587000200020B3144808300068C4B2552C08D169
:105880001248006828B9012010490860002010491A
:1058900008700E480068012811D10D480178007881
:1058A000401C0B4A10700B484454AA2C07D100200E
:1058B0000649086011460870064801F02BFB0820D5
:1058C00005490968086210BD1C140140140200203B
:1058D00018020020DC1100203C09002010B58021B6
:1058E0000148FAF739FD10BDDC11002000BFFEE7CA
:1058F00070B52DED048B04466042FAF751FE41EC81
:10590000190B9FED150B53EC102BFAF7D7FD41EC5B
:10591000180BFAF756FE1249486008464168022003
:1059200000F032FF00200E49C860002503E001208E
:1059300002F03CFD6D1C0A48C068012802D0B5F594
:10594000967FF4D300200649C86008464068086086
:10595000BDEC048B70BD0000A5973F6DA1014140D7
:10596000B80F002070B52DED068B044600252046AB
:10597000FAF716FE9FED1E0B53EC102BFAF79EFD67
:105980009FED1D0B53EC102BFAF798FDFAF719FE5B
:105990001B4948600968081BFAF702FE21F0004124
:1059A0009FED180B53EC102BFAF73EFE02D8BDEC1E
:1059B000068B70BD12484168012000F0E5FE002012
:1059C0000F49C86003E0012002F0F0FC6D1C0C4898
:1059D000C068012803D040F6B8308542F3D30020D8
:1059E0000749C86008464068086000BFDFE700005C
:1059F00046AE330183C732400000000000002C4057
:105A0000880F00209A9999999999D93F0FB4054B1D
:105A100010B503A9044A029800F0F6F810BC5DF82E
:105A200014FB000041640008E802002002480068FE
:105A3000C0F30220704700000CED00E010B5002814
:105A400004DB0A07130E054A135406E00A07140E76
:105A5000034A00F00F031B1FD45410BD00E400E004
:105A600018ED00E002E008C8121F08C1002AFAD1B0
:105A700070477047002001E001C1121F002AFBD1CE
:105A8000704700002DE9FF5F82B00021DDE904309E
:105A9000020DDDF840B0034318D044F61050A2F2D6
:105AA000FF3242431514119801281FD0A5EB0B00BB
:105AB000401C5FEA000A4FF000064E4FDFF83891B5
:105AC000B046504615D5CAF1000413E011980124E0
:105AD0004AA3012801D16FEA0B010298119AC0E98B
