:020000040800F2
:1000000050550020A10200089D4300083D3B000818
:10001000994300087B090008E95900080000000026
:10002000000000000000000000000000DD010008EA
:100030001B0B00080000000039020008ED45000815
:10004000BB020008BB020008BB020008BB0200089C
:10005000BB020008BB020008BB020008BB0200088C
:10006000BB020008BB020008BB020008BB0200087C
:10007000D1090008BB020008E1090008F1090008E5
:10008000010A0008BB020008BB020008BB0200080E
:10009000BB020008BB020008BB020008BB0200084C
:1000A000BB020008BB020008BB020008BB0200083C
:1000B000BB020008BB020008BB020008BB0200082C
:1000C000BB020008BB020008BB020008BB0200081C
:1000D000BB020008BB02000821590008655900084E
:1000E000BB020008BB020008BB020008BB020008FC
:1000F000BB02000825470008BB020008BB0200083D
:10010000BB020008BB020008BB020008BB020008DB
:10011000BB020008DD4D000815470008BB020008BF
:10012000BB020008BB020008BB020008BB020008BB
:10013000BB020008BB020008BB020008BB020008AB
:10014000BB020008BB020008BB020008BB0200089B
:10015000BB020008BB020008BB020008755900087A
:10016000BB020008BB020008BB020008BB0200087B
:10017000BB020008BB020008BB020008BB0200086B
:10018000BB020008BB0200086D4F0008D94F0008F1
:10019000BB020008BB020008BB020008BB0200084B
:1001A000BB020008BB020008BB020008BB0200083B
:1001B000BB020008BB020008BB020008BB0200082B
:1001C000BB020008BB020008DFF80CD000F098FB6F
:1001D00000480047D5640008505500202D4B196891
:1001E0000868B0E8F04F80F30988BFF36F8F4FF0D5
:1001F000000080F311887047000000000848006884
:10020000006880F308884FF0000080F3148862B61D
:1002100061B6BFF34F8FBFF36F8F00DF00BF00BF2A
:1002200008ED00E0DFF80C00016841F470010160A6
:10023000704700BF88ED00E0EFF30980BFF36F8FD8
:10024000144B1A681EF0100F08BF20ED108A20E929
:10025000F04F106009B44FF0500072B680F311886F
:10026000BFF34F8FBFF36F8F62B607F0EFF84FF019
:10027000000080F3118809BC19680868B0E8F04FE5
:100280001EF0100F08BFB0EC108A80F30988BFF38E
:100290006F8F704758010020EFF305807047000012
:1002A0000648804706480047FEE7FEE7FEE7FEE710
:1002B000FEE7FEE7FEE7FEE7FEE7FEE70147000890
:1002C000C90100082DE9F05F0546002092469B46D3
:1002D00088460646814640241BE02846414647465C
:1002E000224600F0D0F953465A46C01A914110D325
:1002F00011461846224600F0B7F92D1A67EB01089F
:100300004F4622460120002100F0AEF917EB00090C
:100310004E41201EA4F10104DFDC484631462A4646
:100320004346BDE8F09F40EA01039B0703D009E084
:1003300008C9121F08C0042AFAD203E011F8013BD1
:1003400000F8013B521EF9D27047D2B201E000F82A
:10035000012B491EFBD270470022F6E710B5134669
:100360000A4604461946FFF7F0FF204610BD034633
:1003700011F8012B00F8012B002AF9D1184670471B
:100380002DE9FE4F804681EA0300C00F0C46009025
:1003900021F0004123F00045B8EB0200A94105D24D
:1003A0004046214690461C460B46024623F000403C
:1003B000104347D0270DC7F30A00C3F30A51029038
:1003C000401A019040286BDAC3F3130040F4801BFD
:1003D0000098924620B10023D2EB030A63EB0B0B8B
:1003E00001985946C0F14002504600F03DF90646DA
:1003F0000D4650465946019A00F055F910EB080099
:100400006141002487EA115284EAE7731A4340D01D
:10041000009A62B3019A012A4FEA075215DC001BC9
:1004200061EB02014FF0004202EA0752CDE90042BF
:10043000001C41F5801132462B4600F08CF903B0C8
:10044000BDE8F08F40462146F9E7001B61EB020151
:10045000001C41F5801300185B412018A2F500171D
:1004600047EB030140EAD570B6196D4111E06D0804
:100470004FEA360645EAC0754FEA0752001B61EBAA
:100480000201001C41F5801149084FEA30000019B3
:10049000514132462B4603B0BDE8F04F00F04CB955
:1004A0000098012240000023D0EB020263EBE073CE
:1004B000009821464FEAE074B8EB000061EB0401BC
:1004C000E9E783F000435BE781F0004158E72DE95D
:1004D000FE4F81EA030404F0004421F0004100943F
:1004E0004FF0000B23F0004350EA01045ED052EAC3
:1004F00003045BD0C3F30A54C1F30A552C44A4F29D
:10050000F3340194A0FB0254C1F3130141F48011B0
:10051000C3F3130343F4801301FB024400FB034EB7
:10052000840A970A44EA815447EA8357A4FB076880
:1005300002958D0A05FB07854FEA932C04FB0C54AA
:100540002705029D4FEA065847EA1637B5EB08051E
:100550006EEB070C870E920E47EA811742EA831270
:10056000A7FB0201B6EB0B0164EB00042B0D43EA81
:100570000C335E1844EB1C50DA465146E7FB02018F
:10058000C5F313044FEA0B3343EA14534FEA043222
:10059000019C43EA0603A4F10C040294009CCDE9FB
:1005A00000B400F0D8F803B0BDE8F08F0020014699
:1005B000F9E70EB5C10F80EAE0700844CA070021D0
:1005C00040F233438DE80E000A460B4600F0C3F8B4
:1005D00003B000BD30B5041E71F1000404DB4FF020
:1005E0000044404264EB0101141E73F1000405DB7A
:1005F0001C464FF00043524263EB0403994208BF8C
:10060000904230BD01F0004330B421F0004150EA87
:10061000010206D00A0DA2F56072C1F31301002A8F
:1006200002DC30BC00207047440F44EAC104C10022
:10063000E01830BC00EBC25000F047B830B50B46B4
:10064000014600202022012409E021FA02F59D4202
:1006500005D303FA02F5491B04FA02F52844151ED6
:10066000A2F10102F1DC30BD202A04DB203A00FABD
:1006700002F1002070479140C2F1200320FA03F3F9
:10068000194390407047202A04DB203A21FA02F0F7
:100690000021704721FA02F3D040C2F120029140BC
:1006A000084319467047202A06DBCB17203A41FA47
:1006B00002F043EAE07306E041FA02F3D040C2F1EF
:1006C000200291400843194670470029A8BF70478F
:1006D000401C490008BF20F00100704710B4B0FA78
:1006E00080FC00FA0CF050EA010404BF10BC704713
:1006F00049B1CCF1200421FA04F411FA0CF118BF2D
:10070000012121430843A3EB0C01CB1D4FEA0061FB
:100710004FEA102042BF002010BC704700EBC350CE
:1007200010440029A4BF10BC7047401C490008BFFA
:1007300020F0010010BC704710B5141E73F10004C6
:1007400008DA401C41F1000192185B411A4301D1C3
:1007500020F0010010BD2DE9F04D92469B4611B1ED
:10076000B1FA81F202E0B0FA80F220329046FFF74F
:100770007BFF04460F4640EA0A0041EA0B0153465C
:100780005A46084313D0114653EA010019D0C8F164
:1007900040025046FFF777FF05460E465046594641
:1007A0004246FFF761FF084305D0012004E02046E0
:1007B0003946BDE8F08D0020054346EAE0762C433B
:1007C00037430A986305E40AA0EB08000022FD0AFB
:1007D00044EA47540A3002D500200146E9E7010502
:1007E00010196941DDE9084500196941BDE8F04D7E
:1007F000A2E72DE9F04D81EA030404F0004B21F05B
:10080000004514464FF0000A23F0004150EA05026B
:1008100020D054EA01021DD0C5F30A570246C5F3A1
:100820001303C1F31300C1F30A5640F4801543F4D7
:100830008013A7EB0608101BD64608F2FD3873EBB1
:10084000050002D308F1010801E092185B41B8F1FC
:10085000000F03DA00200146BDE8F08D00204FF4C0
:100860008011064684460EE0171B73EB050705D37F
:10087000121B63EB050306434CEA010C49084FEADF
:10088000300092185B4150EA0107EDD152EA0300B3
:1008900012D082EA040083EA0501084305D0101B48
:1008A000AB4106D20122002306E000224FF00043B4
:1008B00002E06FF0010253101AEB06004CEB0851F6
:1008C00010EB0A0041EB0B01BDE8F04DFFF734BF20
:1008D000C1F30A52C1F3130140F2FF3341F4801116
:1008E0009A4202DA00200146704740F233439A42AE
:1008F000A2F2334202DC5242FFF7C5BEFFF7B4BE9C
:10090000064C074D06E0E06840F0010394E807005C
:1009100098471034AC42F6D3FFF75AFC1082000817
:100920003082000870B58C1810F8015B15F00703D1
:1009300001D110F8013B2A1106D110F8012B03E078
:1009400010F8016B01F8016B5B1EF9D12B0705D480
:100950000023521E0DD401F8013BFAE710F8013BC9
:10096000CB1A921C03E013F8015B01F8015B521EE5
:10097000F9D5A142D8D3002070BD00BFFEE708B56D
:1009800007F03CF9009000BF03E01421684606F030
:10099000DDFBFAE71CB50648062100234FF4007280
:1009A000CDE9001003A1094807F082F81CBD000042
:1009B000BC010020436861737369735F436F6E7499
:1009C000726F6C5F5461736B000000007F09000858
:1009D00010B5024800F048F910BD00009009002051
:1009E00010B5024800F040F910BD0000D00800200A
:1009F00010B5024800F038F910BD0000F0090020E1
:100A000010B5024800F030F910BD00003009002098
:100A10000146087810381823B0FBF3F20848805CD0
:100A2000C865032A05D908686FF30900001D8865A9
:100A300003E008686FF309008865886D704700005F
:100A4000FC810008014600208A6A8B69CBB932B16B
:100A5000012A0DD0022A03D0032A10D10EE000BFD4
:100A6000CB6A03F08073B3F1807F00D1012007E0EF
:100A7000CB6AB3F1C07F00D1012001E000E000BFEC
:100A800034E08B69B3F5005F1AD132B1012A07D087
:100A9000022A03D0032A11D10AE000BF01200EE090
:100AA000CB6A03F08073B3F1807F00D1012006E0B0
:100AB000CB6AB3F1C07F00D1012000E000BF15E098
:100AC00032B1012A05D0022A04D0032A0CD103E056
:100AD00000BF00BF012008E0CB6A03F08073B3F1D0
:100AE000807F00D1012000E000BF00BF704730B51B
:100AF0000468246824F4802405682C60046863601A
:100B00008468402C04D10468A2600468E16003E0BA
:100B10000468A1600468E26030BD704710B5064803
:100B200001F014FD04480068C06840F0010002496B
:100B30000968C86010BD0000E8040020044A11885C
:100B400000BF034A1288521A92B28242F9DD7047FE
:100B50009600002072B600BFFEE7000010B5DFED82
:100B6000071A9621B6EE001ADFED050A9FED050A79
:100B7000054803F015FC03F097F810BD000016C3FC
:100B80000000000048E11A40A40C002070B50446A3
:100B9000A56D00F07DFB064694F83500022808D0CC
:100BA0008020606500BF002084F8340000BF012071
:100BB00070BD2068006820F0160021680860206879
:100BC000406920F0800021684861206C08B9A06C61
:100BD00028B12068006820F00800216808602068BB
:100BE000006820F001002168086010E000F050FB70
:100BF000801B05280BD920206065032084F8350070
:100C000000BF002084F8340000BF0320D0E7206834
:100C1000006800F001000028E8D194F85C103F2043
:100C20008840A860012084F8350000BF002084F8C7
:100C3000340000BF00BFBBE7014691F83500022831
:100C400003D08020486501207047052081F83500D9
:100C50000868006820F001000A6810600020F3E7CF
:100C60000146486D70470000F8B50446002000902A
:100C70008C4800684FF41651B0FBF1F7A56D2E6853
:100C800094F85C1008208840304098B120680068D3
:100C900000F0040070B12068006820F004002168B2
:100CA000086094F85C1008208840A860606D40F0EF
:100CB0000100606594F85C1001208840304068B104
:100CC0002068406900F0800040B194F85C10012079
:100CD0008840A860606D40F00200606594F85C1088
:100CE00004208840304068B12068006800F00200AD
:100CF00040B194F85C1004208840A860606D40F01A
:100D00000400606594F85C1010208840304078B38F
:100D10002068006800F0080050B394F85C101020C0
:100D20008840A8602068006800F4802080B12068B6
:100D3000006800F4002028B9206CC8B12046216C5E
:100D4000884715E0A06C98B12046A16C88470FE059
:100D50002068006800F4807028B92068006820F0DE
:100D6000080021680860206C10B12046216C88477B
:100D700094F85C10202088403040002865D020681E
:100D8000006800F0100000285FD094F85C1020206C
:100D90008840A86094F83500052828D120680068AC
:100DA00020F01600216808602068406920F080006B
:100DB00021684861206C08B9A06C28B120680068DF
:100DC00020F008002168086094F85C103F208840FB
:100DD000A860012084F8350000BF002084F83400AA
:100DE00000BF206D10B12046216D8847F8BD2068F6
:100DF000006800F4802080B12068006800F40020C2
:100E000028B9606C10B12046616C88471DE0E06B2A
:100E1000D8B12046E16B884717E02068006800F4ED
:100E2000807068B92068006820F0100021680860B0
:100E3000012084F8350000BF002084F8340000BF92
:100E4000E06B10B12046E16B8847606D38B3606D90
:100E500000F00100F0B1052084F83500206800683A
:100E600020F001002168086000BF0098401C00903D
:100E7000B84200D905E02068006800F001000028B1
:100E8000F3D100BF012084F8350000BF002084F8B2
:100E9000340000BFE06C10B12046E16C884700BF11
:100EA000A4E70000040000202DE9F04104460025DD
:100EB00000F0EEF9074614B90120BDE8F081606A40
:100EC00000B100BF022084F8350000BF002084F884
:100ED000340000BF2068006820F00100216808602D
:100EE0000AE000F0D5F9C01B052805D9202060656F
:100EF000032084F83500E0E72068006800F0010076
:100F00000028EED12068056821480540D4E9010198
:100F10000843E16808432169084361690843A169FE
:100F20000843E1690843216A08430543606A0428CD
:100F300003D1D4E90B01084305432068056020680C
:100F4000456925F00705606A0543606A04280DD1EC
:100F5000A06A0543E06A48B12046FFF773FD28B157
:100F600040206065012084F83500A6E720684561CF
:100F70002046FFF74DFD064694F85C103F20884060
:100F8000B06000206065012084F83500002094E7FF
:100F90003F8010F02DE9F04704460D4616461F46E7
:100FA0004FF00008D4F8589000BF94F8340001289E
:100FB00002D10220BDE8F087012084F8340000BF90
:100FC00094F8350001282BD1022084F83500002048
:100FD00060653B46324629462046FFF788FD94F877
:100FE0005C103F208840C9F808002068006840F085
:100FF0001600216808602068406940F08000216880
:101000004861206C28B12068006840F00800216821
:1010100008602068006840F001002168086006E070
:1010200000BF002084F8340000BF4FF002084046A3
:10103000C0E7000010B54FF0FF300E4908600020F7
:101040000860401E091D086000200860401E094914
:101050001039086000200860401E091D086000204B
:101060000860401E091D08600020086000F07AF941
:10107000002010BD20380240F8B502460B46002182
:1010800000250024002000BFDEE0012606FA01F55D
:101090001E6806EA0504AC4272D11E7906F003060A
:1010A000012E04D01E7906F00306022E13D190689B
:1010B0004F000326BE40B0434F00DE68BE403043C1
:1010C0009060506801268E40B0431E79C6F300162A
:1010D0008E40304350601E7906F00306032E09D07F
:1010E000D0684F000326BE40B0434F009E68BE400C
:1010F0003043D0601E7906F00306022E13D1CF08CC
:1011000002F1200656F827004E07F70E0F26BE40C4
:10111000B0434F07FF0E1E69BE403043CF0802F1B7
:10112000200646F8270010684F000326BE40B04353
:101130001E7906F003064F00BE40304310605E6823
:1011400006F44036002E7ED000BF414E366846F48D
:1011500080463F4F3E603E46366806F48046009625
:1011600000BF00BF3B4E8F0856F827008E07370F91
:101170000F26BE40B043384EB24202D100262EE0C8
:1011800061E0364EB24201D1012628E0344EB2422F
:1011900001D1022623E0334EB24201D103261EE0E4
:1011A000314EB24201D1042619E0304EB24201D193
:1011B000052614E02E4EB24201D106260FE02D4E38
:1011C000B24201D107260AE02B4EB24201D10826D5
:1011D00005E02A4EB24201D1092600E00A268F0717
:1011E0003F0FBE4030431B4E8F0846F82700244E69
:1011F0003068A0435E6806F4801606B12043204E96
:101200003060361D3068A0435E6806F4001606B1F3
:1012100020431B4E361D3060194E361F3068A043E8
:101220005E6806F4003606B12043154E361F306066
:10123000361F3068A0435E6806F4803606B120434E
:101240000F4E083E3060491C1029FFF41EAFF8BD58
:1012500044380240083801400000024000040240C7
:1012600000080240000C024000100240001402403E
:1012700000180240001C02400020024000240240EE
:10128000083C01400AB1816101E00B0483617047B1
:1012900001480068704700004C01002003480068C6
:1012A0000349097808440149086070474C0100204F
:1012B0005401002010B50848006840F40070064949
:1012C0000860032000F0C4F8002000F007F800F0E8
:1012D0004BF8002010BD0000003C024070B588B003
:1012E000044600250026002221462D2000F072F839
:1012F0002D2000F05FF800BF1648006840F48070B1
:10130000144908600846006800F48070019000BF2E
:1013100000BF02A903A800F033FD00F059FD45000D
:101320000D48B5FBF0F0461E0C480D49086040F230
:10133000E7310B48C160466000210161816001F026
:10134000ABF820B9064801F055F908B070BD01208E
:10135000FBE700004038024040420F000020004000
:10136000500A00207047000008B500BF1048006810
:1013700040F080500E4908600846006800F0805038
:10138000009000BF00BF00BF081D006840F480400F
:10139000091D08600846006800F48040009000BF06
:1013A00000BF00220F21901E00F014F808BD0000BD
:1013B0004038024001460846002809DB00F01F03C0
:1013C00001229A4043099B0003F1E023C3F8002166
:1013D00000BF70472DE9F05F80460D461646002796
:1013E00004F032FB074639462A46334601F007002F
:1013F000C0F1070ABAF1040F02D94FF0040A01E064
:10140000C0F1070AD14600F1040ABAF1070F02D26F
:101410004FF0000A01E0A0F1030AD4464FF0010AA0
:101420000AFA09FAAAF1010A0AEA020A0AFA0CFA05
:101430004FF0010B0BFA0CFBABF1010B0BEA030BAA
:101440004AEA0B042146404604F006FBBDE8F09F43
:1014500000BF00F00702064B19684FF6FF03194062
:10146000044B0B4343EA0221014B196000BF704754
:101470000CED00E00000FA0538B5002400BF20485C
:10148000006840F080501E4908600846006800F07F
:101490008050009000BF00BF1A48006840F48030C0
:1014A00018490860FFF7F4FE044607E0FFF7F0FE76
:1014B000001BB0F57A7F01D9032038BD1148406880
:1014C00000F48030B0F5803FF0D10E48006840F461
:1014D00000300C490860FFF7DBFE044607E0FFF729
:1014E000D7FE001BB0F57A7F01D90320E5E7054858
:1014F000406800F40030B0F5003FF0D10020DCE798
:1015000040380240007000402DE9F84304460026B0
:1015100000250027A846A946207800F0010088B1E0
:1015200000BFFE48006820F40000FC49086008463F
:101530000068616B0843F949086000BF606B08B937
:101540004FF00108206800F40020B0F5002F13D1FF
:10155000F2488430006820F44010E16B0843EF4902
:1015600084310860E06BB0F5801F01D14FF00108B5
:10157000E06B08B94FF00109206800F48010B0F565
:10158000801F13D1E5488430006820F44000216CAE
:101590000843E24984310860206CB0F5800F01D126
:1015A0004FF00108206C08B94FF00109206800F0E5
:1015B0008070B0F1807F01D14FF00108207800F0F9
:1015C0002000202870D100BFD4483830006840F097
:1015D0008050D249383108600846006800F08050D9
:1015E000009000BF00BFCE48006840F48070CC4936
:1015F0000860FFF74DFE064607E0FFF749FE801B37
:10160000642802D90320BDE8F883C548006800F4C7
:1016100080700028F1D0C1486830006800F440753F
:1016200085B3208E00F44070A8422BD0BB486830B0
:10163000006820F44075B9486830006840F4803094
:10164000B649683108600846006820F480300860B8
:1016500008460560006800F0010098B1FFF718FE29
:10166000064608E0FFF714FE801B41F288318842ED
:1016700001D90320C7E7A94868300068C0F34000DB
:101680000028EFD000BF208E00F44070B0F5407FFE
:101690000BD1A248006820F4F810A24A216B114037
:1016A00008439E49086006E010E09C48006820F46A
:1016B000F8109A490860994868300068218EC1F393
:1016C0000B01084395496831086000BF207800F09D
:1016D0001000102810D100BF90488430006820F01E
:1016E00080708E498431086008460068A16B084309
:1016F0008A498431086000BF208800F48040B0F53A
:10170000804F09D185488830006820F44030616EF0
:101710000843824988310860208800F40040B0F511
:10172000004F09D17D488830006820F44020A16E28
:1017300008437A4988310860206800F48030B0F5A9
:10174000803F09D175488830006820F44010E16E70
:101750000843724988310860206800F40030B0F511
:10176000003F09D16D488830006820F44000216FA7
:1017700008436A4988310860207800F0400040281A
:1017800009D166488830006820F00300616C084386
:10179000624988310860207800F08000802809D1F3
:1017A0005E488830006820F00C00A16C08435B495B
:1017B00088310860208800F48070B0F5807F09D1FE
:1017C00056488830006820F03000E16C08435349E7
:1017D00088310860208800F40070B0F5007F09D1DE
:1017E0004E488830006820F0C000216D08434B4906
:1017F00088310860208800F48060B0F5806F09D1DE
:1018000046488830006820F44070616D08434349C1
:1018100088310860208800F40060B0F5006F09D1BD
:101820003E488830006820F44060A16D08433B4981
:1018300088310860208800F48050B0F5805F09D1BD
:1018400036488830006820F44050E16D0843334941
:1018500088310860208800F40050B0F5005F09D19D
:101860002E488830006820F44040216E08432B4900
:1018700088310860206800F48000B0F5800F09D13D
:1018800026488830006820F08060A16F0843234913
:1018900088310860206800F40010B0F5001F0FD1F7
:1018A0001E488830006820F00060E16F08431B4943
:1018B00088310860E06FB0F1006F01D14FF001098D
:1018C000207800F00800082801D14FF001092068B5
:1018D00000F48020B0F5802F09D1104888300068CE
:1018E00020F04070616F08430C498831086020681F
:1018F00000F40000B0F5000F0AD1084888300068F5
:1019000020F08050D4F880100843044988310860E2
:10191000B8F1010F0DD0206806E000000838024041
:1019200000700040FFFCFF0F00F00070B0F1007F7E
:101930007DD1AD48006820F08060AB490860FFF7BA
:10194000A7FC064606E0FFF7A3FC801B642801D92C
:10195000032058E6A4480068C0F3C0600028F2D114
:10196000207800F00100B8B1606BA8B99E488430BF
:101970000068C0F301459C4884300068C0F30367E9
:101980006068800140EA054040EA0761207A41EA48
:101990000070954984310860206800F40020B0F59B
:1019A000002F03D1E06BB0F5801F09D0206800F450
:1019B0008010B0F5801F24D1206CB0F5800F20D1AD
:1019C000894884300068C0F3014587488430006846
:1019D000C0F302776068800140EA0541207B41EA5C
:1019E000006040EA07708049843108607E488C308E
:1019F000006820F01F00616A491E08437A498C3153
:101A00000860206800F08070B0F1807F17D17648C0
:101A100084300068C0F30365734884300068C0F305
:101A2000027760688101208A41EA004000E031E0ED
:101A300040EA056040EA07706B498431086020681D
:101A400000F00070B0F1007F0DD160688101208A44
:101A500041EA0041207B41EA0061207A41EA0070BE
:101A60006149843108606048006840F080605E49E8
:101A70000860FFF70DFC064606E0FFF709FC801B37
:101A8000642801D90320BEE557480068C0F3C06050
:101A90000028F2D0B9F1010F7ED15348006820F040
:101AA000805051490860FFF7F3FB064606E0FFF758
:101AB000EFFB801B642801D90320A4E54A48006895
:101AC000C0F340700028F2D1206800F40020B0F587
:101AD000002F01D1E06B38B1206800F48010B0F520
:101AE000801F22D1206C00BB3F4888300068C0F3C3
:101AF00001453D4888300068C0F302776069800185
:101B000040EA0541207E41EA006040EA077036491C
:101B100088310860081D006820F4F851A06A401E52
:101B200041EA002030498C310860206800F4001040
:101B3000B0F5001F19D1E06FB0F1006F15D12A4840
:101B400088300068C0F30365274888300068C0F318
:101B5000027760698101208C41EA004040EA05601B
:101B600040EA0770204988310860207800F00800BA
:101B7000082820D11C4888300068C0F303651A4843
:101B800088300068C0F301476069800140EA07407F
:101B900040EA0561207F00E024E041EA007012493C
:101BA00088310860081D006820F44030E16A08436D
:101BB0000D498C3108600C48006840F080500A499B
:101BC0000860FFF765FB064606E0FFF761FB801B38
:101BD000642801D9032016E503480068C0F340706B
:101BE0000028F2D000200EE50038024070B504460F
:101BF0000D4600260CB9012070BD5C48006800F05D
:101C00000F00A8420ED25948006820F00F00284368
:101C1000564908600846006800F00F00A84201D04D
:101C20000120E9E7207800F0020002281DD1207889
:101C300000F00400042805D14D48006840F4E0504D
:101C40004B490860207800F00800082805D1484872
:101C5000006840F46040464908604548006820F04C
:101C6000F000A168084342490860207800F00100B4
:101C700090B36068012807D13D4808380068C0F378
:101C80004040A0B90120B7E76068022807D1384872
:101C900008380068C0F3406048B90120ACE7344818
:101CA00008380068C0F3400008B90120A4E73048B4
:101CB000006820F00300616808432D490860FFF7C1
:101CC000E7FA064609E0FFF7E3FA801B41F28831A4
:101CD000884202D903208FE707E02548006800F01A
:101CE0000C006168B0EB810FEDD12048006800F076
:101CF0000F00A8420ED91D48006820F00F002843AD
:101D00001A4908600846006800F00F00A84201D098
:101D1000012071E7207800F00400042807D114485E
:101D2000006820F4E050E168084311490860207819
:101D300000F00800082808D10D48006820F4604031
:101D4000216940EAC1000A49086000F061F80849C9
:101D50000968C1F30311074A515CC840064908608D
:101D600006480068FFF7BAFA002045E7003C024049
:101D700008380240E47F00080400002050010020E1
:101D80000F2202600D4A126802F0030242600B4A01
:101D9000126802F0F0028260084A126802F4E0520F
:101DA000C260064A126802F46042D2080261044A24
:101DB000126802F00F020A60704700000838024003
:101DC000003C024001480068704700000400002009
:101DD00000B5FFF7F7FF04490968C1F38221034A00
:101DE000515CC84000BD000008380240F47F000884
:101DF00000B5FFF7E7FF04490968C1F34231034A20
:101E0000515CC84000BD000008380240F47F000863
:101E10002DE9F047002400250026A146254800684A
:101E200000F00C0020B1042805D008283AD105E0C4
:101E3000DFF8849039E0DFF8849036E01D48001F19
:101E4000006800F03F041B48001F006800F4800099
:101E500078B11A481749091F0968C1F38811A0FB16
:101E600001700146224600233846FEF72BFA05464C
:101E70000EE011480F49091F0968C1F38811A0FB42
:101E800001700146224600233846FEF71BFA05463C
:101E90000848001F0068C0F30140401C4600B5FB25
:101EA000F6F902E0DFF8109000BF00BF4846BDE839
:101EB000F0870000083802400024F40000127A0085
:101EC000F8B5044600270CB90120F8BD207800F0D1
:101ED0000100002871D0F948006800F00C000428C7
:101EE0000DD0F648006800F00C00082813D1F34824
:101EF000001F006800F48000B0F5800F0BD1EF48A0
:101F000008380068C0F34040002869D060680028A5
:101F100066D10120D9E700BF6068B0F5803F08D1E5
:101F2000E6480838006840F48030E4490839086021
:101F30002EE0606868B9E1480838006820F4803015
:101F4000DE49083908600846006820F480200860EF
:101F50001EE06068B0F5A02F0DD1D84808380068A1
:101F600040F48020D549083908600846006840F4EC
:101F7000803008600CE0D1480838006820F48030D8
:101F8000CE49083908600846006820F480200860BF
:101F900000BF606890B1FFF77BF9054606E0FFF7E8
:101FA00077F9401B642801D903208EE7C34808381D
:101FB0000068C0F340400028F1D011E0FFF768F955
:101FC000054606E0FFF764F9401B642801D90320A9
:101FD0007BE7BA4808380068C0F340400028F1D1D8
:101FE000207800F00200022869D1B448006800F0AF
:101FF0000C0058B1B148006800F00C0008281CD152
:10200000AE48001F006800F48000B0B9AB48083843
:102010000068C0F3400020B1E068012801D0012031
:1020200053E7A6480838006820F0F800216940EA24
:10203000C100A2490839086041E0E06828B39F4820
:102040000838006840F001009C4908390860FFF733
:102050001FF9054606E0FFF71BF9401B022801D9CE
:10206000032032E7954808380068C0F34000002894
:10207000F1D092480838006820F0F800216940EA61
:10208000C1008E490839086019E08C48083800689A
:1020900020F00100894908390860FFF7F9F8054682
:1020A00006E0FFF7F5F8401B022801D903200CE7F2
:1020B000824808380068C0F340000028F1D1207839
:1020C00000F00800082836D16069D0B17B486C3038
:1020D000006840F0010079496C310860FFF7D8F8DA
:1020E000054606E0FFF7D4F8401B022801D903207B
:1020F000EBE672486C300068C0F340000028F1D075
:1021000019E06E486C30006820F001006B496C31BA
:102110000860FFF7BDF8054606E0FFF7B9F8401B79
:10212000022801D90320D0E664486C300068C0F36F
:1021300040000028F1D1207800F00400042874D178
:102140005E483830006800F0805080B900BF5B48BE
:102150003830006840F080505849383108600846EF
:10216000006800F08050009000BF00BF0127544875
:10217000006800F48070B0B95148006840F4807085
:102180004F490860FFF784F8054606E0FFF780F83E
:10219000401B642801D9032097E64948006800F4F1
:1021A00080700028F2D000BFA068012808D1434801
:1021B0006830006840F001004049683108602DE057
:1021C000A06868B93D486830006820F001003B49CC
:1021D000683108600846006820F0040008601DE0CF
:1021E000A06805280DD135486830006840F004002B
:1021F0003249683108600846006840F00100086014
:102200000CE02E486830006820F001002B4968314E
:1022100008600846006820F00400086000BFA0685D
:10222000A8B1FFF735F8054609E02EE0FFF730F8D2
:10223000401B41F28831884201D9032045E61F48FE
:1022400068300068C0F340000028EFD013E0FFF7CB
:102250001FF8054608E0FFF71BF8401B41F28831E4
:10226000884201D9032030E6144868300068C0F382
:1022700040000028EFD1012F07D110483830006806
:1022800020F080500D4938310860A069002852D0F4
:102290000A48006800F00C00082865D0A0690228F0
:1022A0004AD106480838006820F080700349083990
:1022B0000860FEF7EDFF05460BE00000083802401D
:1022C00000700040FEF7E4FF401B022801D9032004
:1022D000FBE53B480068C0F340600028F2D1E069AC
:1022E00040F00050216A0843616A40EA81110122EE
:1022F000A06AC2EB500041EA00412C20005D41EA97
:1023000000602F49091D0860081F006840F08070B8
:10231000091F0860FEF7BCFF054606E0FEF7B8FFA0
:10232000401B022801D90320CFE525480068C0F3EF
:1023300040600028F2D040E02148006820F0807022
:102340001F490860FEF7A4FF054606E0FEF7A0FF60
:10235000401B022801D90320B7E519480068C0F3E3
:1023600040600028F2D128E01548001D0668A069E9
:10237000012820D006F48001E06981421BD106F0DB
:102380003F01206A814216D147F6C0703040616A31
:10239000B0EB811F0FD106F440310122A06AC2EBDD
:1023A0005000B1EB004F06D106F070612C20005DAB
:1023B000B1EB006F01D0012087E5002085E500002A
:1023C00000380240704770477047000030B5024641
:1023D0000B4600BF92F83C00012801D1022030BD1D
:1023E000012082F83C0000BF022082F83D00106806
:1023F000416810688468214D1068A84203D0204DC0
:102400001068A84203D121F470015868014321F0FB
:1024100070011868014310684160184D1068A842A7
:102420001BD01068B0F1804F17D0164D1068A8422D
:1024300013D0154D1068A8420FD0144D1068A84253
:102440000BD00F4D1068A84207D0114D1068A8425C
:1024500003D0104D1068A84205D124F0800498687C
:10246000044310688460012082F83D0000BF002012
:1024700082F83C0000BF00BFB1E70000000001404F
:10248000000401400004004000080040000C00402F
:10249000004001400018004010B504460CB901206E
:1024A00010BD94F83D0028B9002084F83C00204677
:1024B00000F02AF8022084F83D00211D206802F077
:1024C00039F9012084F8480000BF84F83E0001215A
:1024D0003F20015540200155412001554220015522
:1024E0004320015500BF00BF012084F8440045206F
:1024F0000155462001554720015500BF012084F8B1
:102500003D000020CCE7000038B504460D492068A6
:10251000884215D100BF0C48006840F010000A49FD
:1025200008600846006800F01000009000BF00BF7F
:10253000002201213620FEF74DFF3620FEF73AFF3C
:1025400038BD00000010004040380240014691F8BC
:102550003D00012801D001207047022081F83D0094
:102560001C4B086898421BD00868B0F1804F17D008
:10257000194B0868984213D0184B086898420FD03E
:10258000174B086898420BD0164B0868984207D042
:10259000154B0868984203D0144B0868984210D134
:1025A00008688068124B00EA0302062A0FD0B2F5D1
:1025B000803F0CD00868006840F001000B6818608C
:1025C00005E00868006840F001000B681860002012
:1025D000C2E7000000000140000400400008004085
:1025E000000C004000040140004001400018004081
:1025F00007000100014691F83D00012801D00120AB
:102600007047022081F83D000868C06840F0010072
:102610000B68D8601C4B086898421BD00868B0F162
:10262000804F17D0194B0868984213D0184B086890
:1026300098420FD0174B086898420BD0164B086889
:10264000984207D0154B0868984203D0144B08688D
:10265000984210D108688068124B00EA0302062AEB
:102660000FD0B2F5803F0CD00868006840F0010040
:102670000B68186005E00868006840F001000B680E
:1026800018600020BCE7000000000140000400408A
:1026900000080040000C00400004014000400140E0
:1026A0000018004007000100704710B5044620687C
:1026B0000069C0F34000D8B12068C068C0F3400092
:1026C000B0B16FF002002168086101202077206816
:1026D000806900F0030018B12046FFF7E5FF05E030
:1026E000204600F013F9204600F02CFA0020207755
:1026F00020680069C0F38000D8B12068C068C0F3CA
:102700008000B0B16FF004002168086102202077DA
:102710002068806900F4407018B12046FFF7C4FFBC
:1027200005E0204600F0F2F8204600F00BFA002009
:10273000207720680069C0F3C000D8B12068C06865
:10274000C0F3C000B0B16FF0080021680861042038
:1027500020772068C06900F0030018B12046FFF719
:10276000A3FF05E0204600F0D1F8204600F0EAF98A
:102770000020207720680069C0F30010D8B12068DD
:10278000C068C0F30010B0B16FF01000216808619C
:10279000082020772068C06900F4407018B12046F6
:1027A000FFF782FF05E0204600F0B0F8204600F079
:1027B000C9F9002020772068006900F0010058B1B5
:1027C0002068C06800F0010030B16FF0010021689E
:1027D0000861204600F05AFA20680069C0F3C01072
:1027E00058B12068C068C0F3C01030B16FF08000ED
:1027F000216808612046FFF7E6FD20680069C0F304
:10280000002058B12068C068C0F3C01030B16FF428
:102810008070216808612046FFF7D4FD20680069B8
:10282000C0F3801058B12068C068C0F3801030B188
:102830006FF0400021680861204600F047FA2068E8
:102840000069C0F3401058B12068C068C0F3401060
:1028500030B16FF02000216808612046FFF7B4FD19
:1028600010BD000010B586B00446142101A8FDF784
:1028700073FD2149206888421BD100BF1F480068B2
:1028800040F004001D4908600846006800F004009C
:10289000009000BF00BF8815019002200290002028
:1028A000039004900220059001A91548FEF7E4FB6F
:1028B0001FE01449206888421BD100BF0F48006800
:1028C00040F008000D4908600846006800F0080064
:1028D000009000BF00BF4FF44040019002200290E2
:1028E0000020039004900220059001A90648FEF7FD
:1028F000C3FB06B010BD00000004004030380240A9
:102900000008024000080040000C024070472DE91A
:10291000F04104460D461646002700BF94F83C00DF
:10292000012802D10220BDE8F081012084F83C009A
:1029300000BF0C2E51D005DC4EB1042E1ED0082E47
:102940007AD133E0102E60D0142EF9D175E02946EB
:10295000206801F06DFF2068806940F00800216860
:1029600088612068806920F00400216888612068FF
:102970008069296908432168886178E029462068D0
:1029800001F090FF2068806940F400602168886150
:102990002068806920F480602168886120688069EF
:1029A000296940EA01202168886160E029462068A1
:1029B00001F0B8FF2068C06940F008002168C861D4
:1029C0002068C06920F004002168C8612068C069DF
:1029D000296908432168C86149E02946206801F057
:1029E000DFFF2068C06940F400602168C86120688A
:1029F000C06920F480602168C8612068C0692969C5
:102A000040EA01202168C86131E02946206801F0D0
:102A1000F3FF2068406D40F0080021684865206899
:102A2000406D20F00400216848652068406D2969E8
:102A30000843216848651AE017E02946206802F03B
:102A400003F82068406D40F4006021684865206804
:102A5000406D20F48060216848652068406D2969D8
:102A600040EA01202168486501E0012700BF00BF5E
:102A700000BF002084F83C0000BF384653E710B583
:102A800004460CB9012010BD94F83D0028B900207F
:102A900084F83C00204600F029F8022084F83D002C
:102AA000211D206801F046FE012084F8480000BF87
:102AB00084F83E0001213F2001554020015541206E
:102AC0000155422001554320015500BF00BF0120A0
:102AD00084F8440045200155462001554720015502
:102AE00000BF012084F83D000020CCE708B5124A61
:102AF000016891420DD100BF1049096841F00201FF
:102B00000E4A11601146096801F00201009100BFF0
:102B100011E00B4A016891420DD100BF07490968D5
:102B200041F00401054A11601146096801F00401F1
:102B3000009100BF00BF08BD0004004040380240C3
:102B4000000800407047000070B504460D4615B9F6
:102B500094F83E0015E0042D02D13F20005D10E006
:102B6000082D02D14020005D0BE00C2D02D1412048
:102B7000005D06E0102D02D14220005D01E04320FF
:102B8000005D012801D0012070BD1DB9022084F82C
:102B90003E001AE0042D03D102213F20015514E02C
:102BA000082D03D10221402001550EE00C2D03D148
:102BB00002214120015508E0102D03D102214220BD
:102BC000015502E0022143200155012229462068D7
:102BD00001F01CFE25492068884203D02449206862
:102BE000884201D1012000E0002028B12068406C1B
:102BF00040F40040216848641C49206888421BD08A
:102C00002068B0F1804F17D01A492068884213D04D
:102C10001949206888420FD01849206888420BD093
:102C200013492068884207D015492068884203D09C
:102C300014492068884210D120688068124900EA4F
:102C40000106062E0FD0B6F5803F0CD02068006834
:102C500040F001002168086005E02068006840F04D
:102C600001002168086000208EE70000000001409C
:102C7000000401400004004000080040000C004037
:102C800000400140001800400700010010B5044654
:102C90000A492068884201D1FEF700FB08492068F4
:102CA000884209D107480088401C064908806FF017
:102CB000010005490968086110BD000000200040BE
:102CC0000010004096000020E804002070472DE925
:102CD000F04104460E461746E06F20282DD106B17C
:102CE00017B90120BDE8F08100BF94F874000128F5
:102CF00001D10220F6E7012084F8740000BF2066AD
:102D00003A463146204602F025FD05469DB9206E23
:102D100001280FD110202168086200BF00BF216880
:102D200051E8001F41F01000226842E8000100292C
:102D3000F5D100E001252846D4E70220D2E70000C3
:102D400070B504460D4607492068884201D101F05C
:102D5000BBFA05492068884202D1284601F0C2FA30
:102D600070BD0000004800400078004070B5044687
:102D7000A56FE66F2068806800F08000802823D16E
:102D8000212D21D100BF00BF2168083151E8001F6B
:102D900021F080002168083141E80002002AF3D1C7
:102DA00000BFE06E68B1E06EFDF7F0FE48B1E06E86
:102DB000FDF756FF202804D11020C4F8800003201E
:102DC00070BD204602F017FB2068806800F04000CC
:102DD000402823D1222E21D100BF00BF2168083115
:102DE00051E8001F21F040002168083141E800024D
:102DF000002AF3D100BF206F68B1206FFDF7C6FE37
:102E000048B1206FFDF72CFF202804D11020C4F812
:102E100080000320D4E7204602F0A4FA0020CFE788
:102E200010B5044603492068884201D102F0A6F893
:102E300010BD0000007800402DE9F04704462068EE
:102E4000C569206806682068876840F60F0005EAB3
:102E50000009B9F1000F0CD105F0200048B106F0CF
:102E6000200030B1606E10B12046616E8847BDE829
:102E7000F087B9F1000F7DD007F0010018B9B6480E
:102E800030400028F7D005F0010058B106F48070FA
:102E900040B1012021680862D4F8800040F00100B0
:102EA000C4F8800005F0020058B107F0010040B1FD
:102EB000022021680862D4F8800040F00400C4F8C1
:102EC000800005F0040058B107F0010040B1042073
:102ED00021680862D4F8800040F00200C4F8800045
:102EE00005F0080070B106F0200010B907F00100ED
:102EF00040B1082021680862D4F8800040F0080042
:102F0000C4F8800005F4006060B106F0806048B14C
:102F10004FF4006021680862D4F8800040F020007F
:102F2000C4F88000D4F8800000284BD005F02000C1
:102F300038B106F0200020B1606E10B12046616EFD
:102F40008847D4F880A02068806800F040004028BE
:102F500002D00AF0280070B3204602F003FA20687D
:102F6000806800F04000402821D100BF00BF2168E8
:102F7000083100E027E051E8001F21F040002168FF
:102F8000083141E80002002AF1D100BF206F50B1A2
:102F90007248216F0865206FFDF74EFE90B1206FDB
:102FA000016D88470EE02046FFF73AFF0AE0204611
:102FB000FFF736FF06E0FFE72046FFF731FF00206E
:102FC000C4F8800053E7206E01287CD105F0100082
:102FD000002878D006F010000028FAD010202168D0
:102FE00008622068806800F0400040285BD1206FB4
:102FF000006840681FFA80F8B8F1000F52D0B4F8AA
:10300000580040454EDDA4F85A80206FC069B0F5E5
:10301000807F3ED000BF00BF216851E8001F21F42F
:103020008070226842E800010029F5D100BF00BF8E
:1030300000BF2168083151E8001F21F0010021681C
:10304000083141E80002002AF3D100BF00BF00BFF1
:103050002168083151E8001F21F040002168083143
:1030600041E80002002AF3D100BF2020E0670020E1
:10307000206600BF00BF216851E8001F21F010004A
:10308000226842E800010029F5D100BF206FFDF75A
:103090007DFDB4F85800B4F85A20801A81B2204659
:1030A000FFF74EFEE3E634F8580F6188401A1FFA26
:1030B00080F86088583CB0B3B8F1000F33D000BF3F
:1030C00000BF216800E02FE051E8001F21F490705C
:1030D000226842E800010029F3D100BF00BF00BF11
:1030E0002168083151E8001F21F0010021680831F2
:1030F00041E80002002AF3D100BF2020E067002051
:103100002066606600BF00BF216851E8001F21F003
:103110001000226842E800010029F5D100BF4146B5
:103120002046FFF70DFEA2E605F0800040B106F054
:10313000800028B1A06E10B12046A16E884796E6A7
:1031400005F0400030B106F0400018B1204602F012
:103150003BF98CE600BF8AE62001000429520008F2
:1031600010B504460CB9012010BDA06900B100E003
:1031700000BFA06F28B9002084F87400204600F03A
:1031800029F82420A0672068006820F00100216849
:103190000860204602F040F9012800D1E4E7606AA7
:1031A00010B1204601F09EFF2068406820F4904056
:1031B000216848602068806820F02A0021688860C3
:1031C0002068006840F0010021680860204602F095
:1031D00005F8C9E710B586B00446142101A8FDF72B
:1031E000BBF8FD49206888424FD100BFFB4800680A
:1031F00040F48010F94908600846006800F4801027
:10320000009000BF00BF00BFF4481038006840F0D5
:103210000400F249103908600846006800F0040014
:10322000009000BF00BF00BF0846006840F00800E3
:1032300008600846006800F00800009000BF00BF6A
:103240008814019002200290002003900320049033
:103250000820059001A9E248FDF70EFF0420019027
:103260000220029000200390032004900820059083
:1032700001A9DC48FDF700FF002202213520FEF7FE
:10328000A9F83520FEF796F8FEE1D7492068884274
:1032900055D100BFD148006840F08040CF49086058
:1032A0000846006800F08040009000BF00BF00BFEB
:1032B000CA481038006840F01000C849103908604A
:1032C0000846006800F01000009000BF00BF4FF4F7
:1032D000C07001900220029000200390032004900F
:1032E0000820059001A9C148FDF7C6FEC048C149A4
:1032F00008604FF0206048600021BE488160C160D6
:103300004FF480610161002141618161C1614FF42D
:103310008031016200214162FDF7C6FD08B1FDF771
:1033200019FC00BFB3482067846300BF002202215C
:103330005220FEF74FF85220FEF73CF8A4E1AE49C8
:103340002068884234D100BFA448006840F00040A3
:10335000A24908600846006800F00040009000BFE5
:1033600000BF00BF9D481038006840F010009B4926
:10337000103908600846006800F01000009000BF97
:1033800000BF032001900220029000200390032040
:1033900004900820059001A99448FDF76DFE0022D5
:1033A00002215320FEF716F85320FEF703F86BE1D5
:1033B00092492068884237D100BF8848001D0068C4
:1033C00040F010008549091D08600846006800F0BB
:1033D0001000009000BF00BF00BF80481038006898
:1033E00040F001007D49103908600846006800F08F
:1033F0000100009000BF00BF4FF4C06001900220A8
:10340000029000200390032004900720059001A95A
:103410007B48FDF731FE002202212520FDF7DAFF6F
:103420002520FDF7C7FF2FE176492068884256D155
:1034300000BF6A48006840F40030684908600846E8
:10344000006800F40030009000BF00BF00BF634878
:103450001038006840F008006049103908600846DC
:10346000006800F00800009000BF00BF60200190DD
:103470000220029000200390032004900720059072
:1034800001A95848FDF7F8FD594830305E490860F9
:103490004FF00060486000215B488160C1604FF4DC
:1034A000806101610021416181614FF48071C161DE
:1034B0000902016200214162FDF7F6FC08B1FDF747
:1034C00049FB00BF50482067846300BF00220221EF
:1034D0002620FDF77FFF2620FDF76CFFD4E04B4947
:1034E0002068884277D100BF3C48006840F48020C3
:1034F0003A4908600846006800F48020009000BF48
:1035000000BF00BF35481038006840F00400334960
:10351000103908600846006800F00400009000BF01
:1035200000BF4FF440600190022002900020039001
:10353000032004900720059001A92948FDF79CFD70
:103540002B483038324908604FF000604860002155
:103550002F488160C1604FF48061016100214161A9
:103560008161C1614FF48031016200214162FDF748
:103570009BFC08B1FDF7EEFA00BF25482067846385
:1035800000BF1B48183023490860400548604021AF
:10359000204881600021C1604FF4806101610021F9
:1035A00041618161C1614FF480310162002141625A
:1035B000FDF77AFC08B1FDF7CDFA00BF1548E066CB
:1035C000846300BF002202212720FDF703FF27208C
:1035D000FDF7F0FE58E01FE0005000404038024088
:1035E00000080240000C0240007800400010024039
:1035F00058600240D0080020007C004000100140CC
:103600000000024000440040300900200048004013
:1036100090090020F00900201C492068884233D11D
:1036200000BF1B48006840F02000194908600846A8
:10363000006800F02000009000BF00BF00BF1448E9
:103640001438006840F00400114914390860084635
:10365000006800F00400009000BF00BFC02001908F
:10366000022002900020039003200490082005907F
:1036700001A90848FDF700FD002201214720FDF7C0
:10368000A9FE4720FDF796FE06B010BD00140140CC
:10369000443802400008024070B504460D46164604
:1036A000E06F202828D105B10EB9012070BD00BF00
:1036B00094F87400012801D10220F7E7012084F872
:1036C000740000BF002020662068406800F40000FD
:1036D00060B100BF00BF216851E8001F41F0806069
:1036E000226842E800010029F5D100BF3246294690
:1036F000204602F02FF8D9E70220D7E7704770473D
:10370000704710B50346002001B910BD12B900245E
:103710001C70FAE703E0145C1C54441CE0B2145C17
:1037200014B14C1E8442F6DC00241C5400BFECE7AC
:1037300037B598B004460D462A4629210DA81A9B94
:1037400002F06CF90DA8234605A22921009002A8D9
:1037500002F04CF902A800F0B5F81BB030BD000033
:103760005B25735D2025730010B512A113A000F036
:10377000D7F813A118A000F0D3F818A11CA000F0EE
:10378000CFF81CA11EA000F0CBF81EA120A000F0D5
:10379000C7F820A122A000F0C3F818A121A000F0D2
:1037A000BFF816A120A000F0BBF814A11FA000F0E4
:1037B000B7F810BD3030302B30303000743000009E
:1037C0002D2D2D73797320737461747573202F20E0
:1037D0006C6F67732D2D2D00743100005359533ACF
:1037E000424F4F54204552523A4E4F4E4500000032
:1037F000743200005649533A2D2D2D2D0000000043
:10380000743300004348533A2D2D2D2D0000000045
:103810007434000041524D3A2D2D2D2D0000000032
:1038200074350000743600007437000074380000EE
:103830000FB408B503A8009004A0009A0299FFF7FE
:1038400077FF0020009001B05DF814FB49000000F4
:1038500070B5054600240FE0621C02EBC20303EBC7
:1038600042120B4BD11804EBC40202EB4412D018E5
:10387000FCF77DFD601CC4B2022CEDDB2A46292139
:1038800003485230FFF73DFF00F004F870BD000020
:103890008713002010B500240DE004EBC40202EBF6
:1038A0004412064BD11804EB4402054BD01800F02B
:1038B00075F8601CC4B2032CEFDB10BD8713002029
:1038C0004101002010B58CB0044601208DF80000A5
:1038D00000208DF801002246292101A8FFF711FFE1
:1038E0000D48006828B901A8FFF7B2FF01200CB00D
:1038F00010BD00231A4669460748006803F0F8FE29
:10390000012806D005480068401C044908600020D2
:10391000EDE70120EBE700003C010020380100202A
:1039200030B58DB004460D4600208DF804002246C7
:1039300003210DF10500FFF7E4FE2A46292102A824
:10394000FFF7DFFE0D48006830B902A9C81E00F07D
:1039500025F801200DB030BD00231A4601A9074803
:10396000006803F0C5FE012806D005480068401C29
:10397000034908600020EDE70120EBE73C0100204F
:103980003801002010B5034801680348006800F0C2
:103990003DF810BDD4000020D000002070B50546D1
:1039A0000C46224602A1284603F0DEF970BD000055
:1039B0007478740010B58CB00446234605A2292102
:1039C00001A802F013F801A904A0FFF7A9FF0CB0A9
:1039D00010BD000041524D3A2573000074350000BF
:1039E00010B58CB00446234605A2292101A801F098
:1039F000FDFF01A904A0FFF793FF0CB010BD00006C
:103A00004348533A257300007434000030B58DB03C
:103A100004460D46234606A2292102A8009501F07E
:103A2000E5FF02A905A0FFF77BFF0DB030BD000048
:103A3000253033642B2530336400000074300000DF
:103A400030B58DB004460D46234606A2292102A8B2
:103A5000009501F0CBFF02A906A0FFF761FF0DB0B2
:103A600030BD00005359533A2573204552523A2530
:103A7000730000007432000010B58CB00446234679
:103A800005A2292101A801F0B1FF01A904A0FFF7B7
:103A900047FF0CB010BD00005649533A2573000093
:103AA000743300008CB014E04FF0FF3269460948CF
:103AB000006803F0F9FE01280BD19DF800000128F1
:103AC00003D101A8FFF7C4FE03E001A9C81EFFF758
:103AD00065FFE9E73C0100201CB51148006830B9DA
:103AE00000222D21102003F083FD0D4908600C48B1
:103AF000006828B90B480068401C0A4908601CBDD2
:103B00000948006850B90848022100234FF4C072E8
:103B1000CDE9001005A1084803F0CAFF00BFEEE799
:103B20003C0100203801002034010020484D495F4D
:103B30005461736B00000000A53A000800BFFEE767
:103B40002DE9F0474F4800684068C0F580701FFAC3
:103B500080FA8FE0002000F005FD55280BD04A497F
:103B60000988481CC11700EB11610912A0EB012163
:103B7000454A11807EE0012000F0F4FC0446532CFD
:103B80000DD0522C0BD040490988481CC11700EBBE
:103B900011610912A0EB01213B4A11806AE0002665
:103BA000B04607E01FFA88F000F0DCFC3044C6B2F3
:103BB00008F10108B8F10A0FF4DB0A2000F0D2FC8A
:103BC000B0420BD030490988481CC11700EB116185
:103BD0000912A0EB01212C4A11804BE0062000F0D5
:103BE000C1FC8146072000F0BDFC074649EA0720DA
:103BF00005B2532C20D100EE905AB8EEE01ADFED5A
:103C0000231AC1EE210A9FED221A60EE810AB0EE5E
:103C1000600ADFED200A60EE200A1F4890ED001ACE
:103C2000DFED1E1A41EE810AC0ED000A1C48007843
:103C3000C0431B49087010E0522C0ED100EE105A00
:103C4000B8EEC00ADFED170A20EE200ADFED0F0AFA
:103C500080EE201A104880ED031A0B49098801F103
:103C60000B00C11700EB11610912A0EB0121064AFC
:103C7000118000BF504600F061FC0B28BFF66AAF10
:103C8000BDE8F08730090020B600002000000047A2
:103C9000000034436666663FC40E0020CDCCCC3DA8
:103CA000B80000200000FA4410B500200D4908803B
:103CB00008200D490968086210200B49096808624C
:103CC00002010A490848FFF7E7FC08B1FCF742FF88
:103CD00005480068806840F0010003490968886071
:103CE00010BD0000B600002044070020C40D0020D5
:103CF00008B503F083FF009000BF05E0052168468A
:103D000003F024FAFFF71CFFF8E700001CB5054894
:103D1000072100238022CDE9001003A1054803F00C
:103D2000C7FE1CBDF8010020494D555F5461736BFF
:103D300000000000F13C000810B5FCF7EFFE00F0B9
:103D4000E5FBFFF711FDFCF709FF02F0EFFB08218F
:103D50000648FEF7F9FE08210548FEF7F5FE0220A9
:103D6000FCF7ECFE02F000FB10BD00005004002048
:103D70009C04002070B5044600251B48FEF7F6FFA2
:103D800000B170BD72B61848006F30B11648006FB0
:103D900000684068C0F18000C5B2002D21DD04B389
:103DA0001248007840B91248124908600F4800785C
:103DB000C0430E49087007E00F480E4908600B48E1
:103DC0000078C043094908702A462146094800681E
:103DD000FCF7A9FA62B629460648006800F05EFEC4
:103DE00000E062B600BFCCE7C807002068000020F2
:103DF0007C0B002064000020FC0B002008B500BFF5
:103E00001648006840F4001014490860084600682D
:103E100000F40010009000BF00BF002205210C201C
:103E2000FDF7D8FA0C20FDF7C5FA002205210E2077
:103E3000FDF7D0FA0E20FDF7BDFA002205210F2074
:103E4000FDF7C8FA0F20FDF7B5FA00220521102072
:103E5000FDF7C0FA1020FDF7ADFA08BD303802407A
:103E600000B587B01C2207496846FCF75CFA0021C0
:103E7000684602F084FB0449086000F09FFB07B02D
:103E800000BD0000C87F00080000002000B587B01A
:103E9000142102A8FCF760FA00BF3F48006840F018
:103EA00080003D4908600846006800F080000190ED
:103EB00000BF00BF00BF0846006840F01000086067
:103EC0000846006800F01000019000BF00BF00BF6E
:103ED0000846006840F0020008600846006800F0EC
:103EE0000200019000BF00BF00BF0846006840F01C
:103EF000080008600846006800F00800019000BF54
:103F000000BF00BF0846006840F004000860084693
:103F1000006800F00400019000BF00BF00BF084629
:103F2000006840F0010008600846006800F00100E9
:103F3000019000BF00BF00224FF440511748FDF729
:103F4000A1F94FF44050029001200390002004900A
:103F5000059002A91148FDF78FF84FF40040029038
:103F600000200390049002A90C48FDF785F84FF457
:103F70000040029000200390049002A90848FDF739
:103F80007BF80B20029000200390049002A90548C2
:103F9000FDF772F807B000BD30380240000402405F
:103FA00000000240000C024000B58BB000200890D9
:103FB00009900A901C2101A8FCF7CEF9184819496C
:103FC000086040F23740486000211648816040F2A6
:103FD000CF71C160002101618161FEF750FD08B120
:103FE000FCF7B8FD002008900A9008A90D48FEF7DC
:103FF000EDF908B1FCF7AEFD6020019000200290C1
:1040000003900590082201A90648FEF780FC08B13C
:10401000FCF7A0FD0348FEF725FC0BB000BD000037
:10402000000400405004002000B58BB00020089030
:1040300009900A901C2101A8FCF78EF91C481D4923
:10404000086040F23740486000211A48816040F221
:10405000CF71C160002101618161FEF710FD08B1DF
:10406000FCF778FD002008900A9008A91148FEF797
:10407000ADF908B1FCF76EFD6020019000200290C0
:1040800003900590082201A90A48FEF740FC08B1F8
:10409000FCF760FD0C2201A90648FEF738FC08B1C8
:1040A000FCF758FD0348FEF7DDFB0BB000BD000038
:1040B000000800409C0400200EB5002000900190F4
:1040C00002900E480E49086040F2374048600021D7
:1040D0000B4881606321C16080218161FEF7DCF9BA
:1040E00008B1FCF737FD00200090029069460448B3
:1040F000FEF76CF908B1FCF72DFD0EBD0010004075
:10410000E804002010B50D480D4908604FF4E13077
:10411000486000210A488160C16001610C21416151
:1041200000218161C16101620020054948620846A1
:10413000FFF716F808B1FCF70DFD10BD0050004068
:104140003405002010B50D480D4908604FF4E130EA
:10415000486000210A488160C16001610C21416111
:1041600000218161C1610162002005494862084661
:10417000FEF7F6FF08B1FCF7EDFC10BD007800403B
:10418000B805002010B50D480D4908600D4848607D
:1041900000210B488160C16001610C214161002157
:1041A0008161C16101620020054948620846FEF74D
:1041B000D7FF08B1FCF7CEFC10BD0000007C00402A
:1041C0003C06002000093D0010B50D480D4908606F
:1041D0004FF4E130486000210A488160C16001610C
:1041E0000C21416100218161C1610162002005490A
:1041F00048620846FEF7B4FF08B1FCF7ABFC10BDFF
:1042000000100140C006002010B50D480D4908609F
:104210004FF4E130486000210A488160C1600161CB
:104220000C21416100218161C161016200200549C9
:1042300048620846FEF794FF08B1FCF78BFC10BDFE
:10424000004400404407002010B50D480D490860A7
:104250004FF4E130486000210A488160C16001618B
:104260000C21416100218161C16101620020054989
:1042700048620846FEF774FF08B1FCF76BFC10BDFE
:1042800000480040C807002010B50D480D490860DF
:104290004FF41650486000210A488160C1600161F6
:1042A0000C21416100218161C16101620020054949
:1042B00048620846FEF754FF08B1FCF74BFC10BDFE
:1042C000001401404C08002010B50448FFF752FDCF
:1042D000802202490248FEF7FAFC10BDFC0A0020C9
:1042E000C807002070B504462646082E00DD0826C3
:1042F00018480480002005E01749095C174A11544A
:10430000411CC8B20828F7DB042C03D1124802F084
:1043100083FD04E0082C02D10F4802F0A7FD002520
:1043200005E00D49485D00F011FD681C85B2B542FD
:10433000F7DB082208490A48FEF7C9FC0848006F65
:104340000068006820F008000549096F09680860E6
:1043500070BD0000840000206C0000207C00002064
:10436000B805002000F03CF81CB5064805210023E4
:104370004FF40072CDE9001003A1064803F098FB4A
:104380001CBD0000E40100204D61696E5F54617343
:104390006B0000006543000800BFFEE700BFFEE7BA
:1043A00080ED000AC0ED010A80ED021A9FED0A2A95
:1043B00080ED032A02EE101AB8EEC22A80ED052A1B
:1043C000C0ED041A9FED052A80ED072A9FED032A10
:1043D00080ED062A704700000000C842000000007F
:1043E0000024002500264FF4FA7002F07FFEFFF74C
:1043F000BBF929A12AA0FFF723FB2BA0FFF73CFB69
:104400002BA0FFF7EDFA2AA0FFF7D4FAC82002F09C
:104410006DFE29A0FFF70CFAFCF73AFF06463AE0DA
:104420002A48006810B92A480068E8B12748076898
:104430002748D0F80080FFF7A5FA6D1C16A125A02B
:10444000FFF7FEFA25A0FFF717FB43463A46294639
:1044500024A0FFF7EDF900201C4908601C49086002
:10446000FCF716FF064613E0FCF712FF801BC82876
:104470000ED3641C08A120A0FFF7E2FA0AA0FFF700
:10448000FBFA21461EA0FFF7D3F9FCF701FF064611
:10449000322002F02BFEC3E74E4F4E4500000000D5
:1044A0005152544553540000574149542051520031
:1044B00049444C4500000000717220686D69207409
:1044C000657374207374617274000000D000002062
:1044D000D40000205343414E000000005152204FB1
:1044E0004B0000007363616E20256C753A253033F4
:1044F000642B253033640000515257414954000069
:104500007761697420717220256C75000848006815
:10451000006840F02000064909680860002005494D
:104520000860486088600449086048608860704797
:1045300034050020740F0020800F00200146084839
:104540000088814204DB06480088081A80B2704760
:1045500003480088C0F58070084480B2F7E7000087
:10456000B60000200246064800888118C81701EBF3
:1045700010600012A1EB0020024B185C7047000095
:10458000B6000020C40D002000BF012001F0E6FFAE
:10459000FBE7000010B50446FFF79EFAFFF7CCFBDF
:1045A000FFF7B4FBFCF7F6F9FFF7DEFE0248006800
:1045B00002F03CFE10BD0000B80100201CB506480A
:1045C000052100234FF48072CDE9001003A10648B5
:1045D00003F06EFA1CBD0000B80100205374617234
:1045E000745F5461736B00009545000810B500BFFF
:1045F000502072B680F31188BFF34F8FBFF36F8FD7
:1046000062B600BF03F000FB18B14FF080500449C0
:10461000086000BF002080F3118800BF10BD0000BB
:1046200004ED00E000B5B3B0302127A8FBF794FEFD
:10463000142122A8FBF790FE842101A8FBF78CFE31
:1046400000BF2D48006840F080502B4908600846A4
:10465000006800F08050009000BF00BF00BF2748F6
:10466000006840F44040254908600846006800F4AE
:104670004040009000BF00BF012027900004289018
:1046800002202D90410527A8C16104210162D82193
:10469000416202218162C162FDF712FC08B1FCF7A0
:1046A00059FAFCF7E9FE08B1FCF754FA0F20229002
:1046B00002202390002024904FF4A05025902690B3
:1046C000072122A8FDF792FA08B1FCF743FA4FF44C
:1046D000775001900020129013901490169017902C
:1046E00018904FF48040199001A8FCF70DFF08B115
:1046F000FCF730FA33B000BD403802400070004093
:104700000348006840F470000149086070470000E9
:1047100088ED00E010B50248FDF7C7FF10BD0000AE
:10472000E804002010B50248FDF7BFFF10BD0000EF
:10473000500A002010B50268294B98420ED0B0F103
:10474000804F0BD0274B984208D0274B984205D07A
:10475000264B984202D0264B984203D122F0700299
:104760004B681A431E4B984220D0B0F1804F1DD0A9
:104770001C4B98421AD01C4B984217D01B4B9842A6
:1047800014D01B4B984211D01A4B98420ED01A4BA2
:1047900098420BD0194B984208D0194B984205D03B
:1047A000184B984202D0184B984203D122F4407221
:1047B000CB681A4322F080034C6943EA040202608A
:1047C0008B68C3620B688362054B984202D0084B2A
:1047D000984201D10B6903630123436110BD0000BE
:1047E000000001400004004000080040000C0040B0
:1047F00000040140004001400044014000480140E5
:1048000000180040001C00400020004030B501F0BE
:104810001F05012404FA05F3046A9C430462046A38
:1048200001F01F0502FA05F52C43046230BD0000BB
:1048300030B5056A25F001050562026A436884699E
:10484000154D2C4024F003040D682C4322F0020285
:104850008D682A43114DA84200D103E0104DA842B3
:1048600006D100BF22F00802CD682A4322F00402DC
:104870000A4DA84202D00A4DA84207D123F4807302
:1048800023F400734D692B438D692B43436084618E
:104890004D684563026230BD8FFFFEFF000001409E
:1048A0000004014030B5056A25F010050562026A72
:1048B00043688469184D2C4024F440740D6844EA20
:1048C000052422F020028D6842EA0512134DA84209
:1048D00000D103E0124DA84207D100BF22F08002B0
:1048E000CD6842EA051222F040020C4DA84202D0E7
:1048F0000B4DA84209D123F4806323F400634D6972
:1049000043EA85038D6943EA8503436084614D680A
:104910008563026230BD0000FF8FFFFE0000014092
:104920000004014030B5056A25F480750562026A0D
:104930004368C469174D2C4024F003040D682C43D0
:1049400022F400728D6842EA0522134DA84200D17C
:1049500003E0124DA84207D100BF22F40062CD68E7
:1049600042EA052222F480620B4DA84202D00B4D90
:10497000A84209D123F4805323F400534D6943EA3C
:1049800005138D6943EA05134360C4614D68C5632F
:10499000026230BD8FFFFEFF0000014000040140B5
:1049A00030B5056A25F480550562036A4468C2691A
:1049B0000E4D2A4022F440720D6842EA052223F48B
:1049C00000538D6843EA0533094DA84202D0094DD2
:1049D000A84204D124F480444D6944EA851444601B
:1049E000C2614D680564036230BD0000FF8FFFFEA9
:1049F000000001400004014030B5056A25F480350F
:104A00000562026A4368446D0C4D2C400D682C43CE
:104A100022F400320D8942EA0542094DA84202D033
:104A2000084DA84204D123F480334D6943EA05239D
:104A3000436044654D688565026230BD8FFFFEFFAF
:104A4000000001400004014030B5056A25F48015DE
:104A50000562026A4368446D0D4D2C400D6844EABE
:104A6000052422F400120D8942EA0552094DA8429C
:104A700002D0094DA84204D123F480234D6943EAB2
:104A80008523436044654D68C565026230BD000002
:104A9000FF8FFFFE000001400004014070B5054695
:104AA0000E4600241FE0301B08280BDBE01D285CAD
:104AB0006B2807D12819082100F01AF804F1080022
:104AC000C4B210E0301B04280ADBE01C285C6B2811
:104AD00006D12819042100F00BF8201DC4B202E011
:104AE000601CC4B200BFB442DDDB012070BD000019
:104AF00030B54A1E825C6B2A00D030BD0278774CFC
:104B00002468E3B2082903D1032A01D15C1CE3B273
:104B10000D064C1E045D45EA044444EA02241C438D
:104B20006E4D2C6008297DD10278012A06D0022A18
:104B300032D0032A5ED0042A75D18CE0C2781206E6
:104B4000037942EA0342437942EA032283791A4312
:104B500000EE102AB8EEC00A614A82ED010A92ED19
:104B6000010ADFED600A20EE200ADFED5F0A80EE29
:104B7000201A82ED011A8278012A06D1584A92ED54
:104B8000010AB1EE400A82ED010A584A527842F019
:104B90000102564B5A708DE0C2781206037942EA40
:104BA0000342437942EA032283791A4300EE102A32
:104BB000B8EEC00A4E4A82ED010A92ED010ADFED1D
:104BC000490A20EE200ADFED480A80EE201A82ED25
:104BD000011A8278012A06D1454A92ED010AB1EE06
:104BE000400A82ED010A414A527842F002023F4BEC
:104BF0005A705FE0C2781206037942EA03424379B1
:104C000042EA032283791A4300EE102AB8EEC00A62
:104C1000384A82ED010A92ED010ADFED320A20EEF8
:104C2000200A01E047E044E0DFED2F0A80EE201A81
:104C300082ED011A8278012A06D12E4A92ED010AEC
:104C4000B1EE400A82ED010A284A527842F004028D
:104C5000264B5A702EE0C2781206037942EA0342CC
:104C6000437942EA032283791A4300EE102AB8EE10
:104C7000C00A214A82ED010A92ED010ADFED190A0C
:104C800020EE200ADFED180A80EE201A82ED011ACC
:104C90008278012A06D1184A92ED010AB1EE400A43
:104CA00082ED010A114A527842F008020F4B5A7005
:104CB00000E000BF10E004290ED10278012A0BD1D8
:104CC000C2786B2A08D14278F62A05D18278022A66
:104CD00002D10122054B1A7000BF0EE738000020F8
:104CE0000C0000200000B44300008047C0010020F9
:104CF000140000201C0000202400002000210B4A8A
:104D0000906206E04A1C91B24FF6FE72914200DDBD
:104D100005E0064AD26902F04002002AF2D000BF44
:104D20000822034B1B681A627047000000500040C5
:104D30003405002004480068006840F02000024963
:104D400009680860704700004C08002010B5044650
:104D5000002005E01A4A411C515C1154411CC8B2A4
:104D60000728F7DB1648C4710078012803D01448DF
:104D7000007802280AD112484078362806D1104817
:104D8000C0796B2802D10E4800F01CF80C4800795D
:104D9000012803D00A48007902280FD10848407939
:104DA000FD280BD1064880799F2807D10448C07997
:104DB0006B2803D10248001D02F02EF810BD000040
:104DC0007400002000B50346D8796B2800D000BDE0
:104DD000184602F04BF800BFF9E700005749C969CF
:104DE00001F02001002920D05449496AC8B2544931
:104DF000097801F01F01534A505451490978491C60
:104E00004F4A117050490968491C4F4A11604F4977
:104E1000096859B9312808DB332806DC4C49087089
:104E200001214C4A1160494A116081E047490968F3
:104E300001297DD147490A680968491C454B196019
:104E40004349885419460968072971DB40490978A4
:104E5000302963DB3E49097839295FDC3C494978D0
:104E600030295BDB3A494978392957DC3849897858
:104E7000302953DB3649897839294FDC344909799F
:104E800030294BDB32490979392947DC30494979E6
:104E9000302943DB2E49497939293FDC2C4989796E
:104EA00030293BDB2A498979392937DC28490978B7
:104EB0003039294A116026494978303951602449EE
:104EC000897830399160224909793039234A116053
:104ED0001F494979303951601D49897930399160CC
:104EE0001D490968642251431B4A526802EB820241
:104EF00001EB4201184A92681144194A116017499E
:104F0000096864225143154A526802EB820201EBA0
:104F10004201124A92681144124A116000210B4A60
:104F200011600C4A11600A4900220A608A808A7165
:104F300008210D4A126811627047000000500040BD
:104F4000C4000020540F0020C8000020BC00002036
:104F5000D40E0020C0000020740F0020800F00201D
:104F6000D0000020D40000203405002010B50248F5
:104F7000FDF762FF10BD0000B805002010B5144811
:104F8000FDF7F4FE0F201249096808621048006816
:104F9000806940F008000E490968886100200C49CA
:104FA000C1F880002020C86700200866082209494F
:104FB0000748FDF78CFE48B90548006F0068006897
:104FC00020F008000249096F0968086010BD000060
:104FD000B80500206C00002070B53A48006800F069
:104FE0002000002869D0374808300068C4B2FD2C82
:104FF00008D13548007828B9012033490870334872
:1050000004705AE0EE2C0CD12F480078012808D10A
:1050100002202D4908702D48447002202C49087048
:105020004BE029480078022840D129480078102810
:105030003CDA264826490978445425480078401C23
:105040002349087008460078102836D100250E2222
:105050001E49002001F01EFA05461E490D70281257
:105060001D4908701948807B1A490978884215D172
:105070001648C07B1849097888420FD11348807AB6
:1050800000061249497A40EA01401049097A40EA8B
:1050900001200E49C97908431049086000200A49D7
:1050A000087014210948FBF757F906E0002006496B
:1050B000087014210548FBF74FF9082008490968D2
:1050C000086270BD1C7C00401E01002050110020B1
:1050D0001D010020290100202801002020010020BE
:1050E0003C06002090F8241001F0010139B101685C
:1050F000496821F40031826A11430268516090F8D6
:10510000241001F00201022907D10168496821F445
:105110008031C26A11430268516090F8241001F096
:105120000401042907D10168496821F48021026B38
:1051300011430268516090F8241001F00801082919
:1051400007D10168496821F40041426B11430268AC
:10515000516090F8241001F01001102907D1016866
:10516000896821F48051826B11430268916090F844
:10517000241001F02001202907D10168896821F459
:105180000051C26B11430268916090F8241001F045
:105190004001402913D10168496821F48011026C53
:1051A000114302685160016CB1F5801F07D101689D
:1051B000496821F4C001426C11430268516090F8C3
:1051C000241001F08001802907D10168496821F489
:1051D0000021826C114302685160704738B5044663
:1051E0000020C4F88000FCF753F8054620680068EA
:1051F00000F0080008280CD16FF07E402B460022FA
:105200004FF400110090204600F00EFB08B103207F
:1052100038BD2020A067E0670020206600BF84F82A
:10522000740000BF00BFF3E770B50546AC6B00200B
:10523000A4F85A00A4F852002046FDF7F1FD70BD15
:105240002DE9F0410546AC6BA66FE76F20688068DA
:1052500000F08000802807D1212E05D10020A4F87D
:105260005200204600F0C7F82068806800F0400037
:10527000402807D1222F05D10020A4F85A0020464B
:1052800000F070F8D4F8800040F01000C4F88000FE
:105290002046FDF7C5FDBDE8F08170B50546AC6B55
:1052A000E869B0F5807F3FD00020A4F85A0000BF25
:1052B00000BF216851E8001F21F48070226842E895
:1052C00000010029F5D100BF00BF00BF21680831EF
:1052D00051E8001F21F001002168083141E8000277
:1052E000002AF3D100BF00BF00BF2168083151E898
:1052F000001F21F040002168083141E80002002A27
:10530000F3D100BF2020E067206E01280CD100BF40
:1053100000BF216851E8001F21F01000226842E818
:1053200000010029F5D100BF206E012805D1B4F895
:1053300058102046FDF704FD02E02046FEF7DEF996
:1053400070BD70B50546AC6B206E012806D1B4F86F
:10535000580041082046FDF7F3FC02E02046FEF726
:10536000CEF970BD00BF00BF026852E8002F22F4E2
:105370009071036843E80012002AF5D100BF00BF16
:1053800000BF0268083252E8002F22F001010268D3
:10539000083242E80013002BF3D100BF016E01294F
:1053A0000CD100BF00BF026852E8002F22F01001AC
:1053B000036843E80012002AF5D100BF2021C1672D
:1053C000002101664166704710B5044600BF00BF6A
:1053D000216851E8001F21F04000226842E80001E6
:1053E0000029F5D100BF2020A0670020A06620463C
:1053F000FEF786F910BD00BF00BF026852E8002F1B
:1054000022F0C001036843E80012002AF5D100BF72
:1054100020218167704700002DE9F04705464FF0D5
:10542000000A2969A868084369690843E96940EAEC
:10543000010828680068BC49084040EA080029685B
:1054400008602868406820F44050E96808432968EB
:105450004860D5F81880286A40EA080828688068FB
:1054600020F4306040EA08002968886000BFAF4936
:105470002868884216D1AE48006800F0030030B1B9
:10548000012808D0022804D0032808D105E001240F
:1054900007E0022405E0042403E0082401E01024CE
:1054A00000BFC9E0A3492868884216D1A048006817
:1054B00000F00C0030B1042808D0082804D00C28D3
:1054C00008D105E0002407E0022405E0042403E0FD
:1054D000082401E0102400BFAEE097492868884204
:1054E00016D19348006800F0300030B1102808D081
:1054F000202804D0302808D105E0002407E0022449
:1055000005E0042403E0082401E0102400BF93E038
:105510008A492868884216D18548006800F0C00092
:1055200030B1402808D0802804D0C02808D105E038
:10553000002407E0022405E0042403E0082401E03D
:10554000102400BF78E07E492868884219D1784845
:10555000006800F4407048B1B0F5807F0AD0B0F523
:10556000007F05D0B0F5407F08D105E0002407E0BA
:10557000022405E0042403E0082401E0102400BF15
:105580005AE070492868884219D16948006800F4D7
:10559000406048B1B0F5806F0AD0B0F5006F05D01B
:1055A000B0F5406F08D105E0012407E0022405E0D2
:1055B000042403E0082401E0102400BF3CE0624919
:1055C0002868884219D15A48006800F4405048B110
:1055D000B0F5805F0AD0B0F5005F05D0B0F5405F50
:1055E00008D105E0002407E0022405E0042403E0DC
:1055F000082401E0102400BF1EE0544928688842B6
:1056000019D14B48006800F4404048B1B0F5804FD4
:105610000AD0B0F5004F05D0B0F5404F08D105E0F5
:10562000002407E0022405E0042403E0082401E04C
:10563000102400BF00E0102400BFE869B0F5004F5F
:1056400039D1092C17D2DFE804F005090D160F1621
:1056500016161300FCF7BCFB064610E0FCF7C8FB6F
:1056600006460CE03A4E0AE0FCF7D2FB064606E09E
:105670004FF4004603E000264FF0010A00BF00BFD0
:1056800086B37000696800EB5100B0FBF1F7102F92
:105690000ED3B7F5803F0BD24FF6F07007EA000942
:1056A000C7F3420049EA00092868C0F80C9034E0CA
:1056B0004FF0010A31E0092C18D2DFE804F00509A7
:1056C0000D170F1717171400FCF782FB064611E0A1
:1056D000FCF78EFB06460DE01D4E0BE0FCF798FB39
:1056E000064607E019E04FF4004603E000264FF0BD
:1056F000010A00BF00BF86B1686806EB5000696808
:10570000B0FBF1F7102F06D3B7F5803F03D2B8B244
:105710002968C86001E04FF0010A00206866A866A9
:105720005046BDE8F0870000F369FFEF001001402C
:10573000903802400044004000480040004C0040C7
:10574000005000400014014000780040007C004000
:105750000024F40070B504460E4615466665A4F8AC
:1057600058500020C4F880002220E067206F00B36A
:105770002A48216FC8632A48216F08642948216F8D
:10578000C8640020216F0865236803F124012B46BB
:10579000626D206FFBF7FEFB58B11020C4F880004B
:1057A00000BF002084F8740000BF2020E0670120C3
:1057B00070BD00BF002084F8740000BF206960B194
:1057C00000BF00BF216851E8001F41F480702268CB
:1057D00042E800010029F5D100BF00BF00BF2168E9
:1057E000083151E8001F41F001002168083141E80B
:1057F0000002002AF3D100BF00BF00BF21680831BA
:1058000051E8001F41F040002168083141E80002E2
:10581000002AF3D100BF0020CAE700009B52000815
:1058200043530008415200082DE9F04104460D465B
:1058300017469846069E67E0701C002864D0FBF768
:1058400027FDA0EB0800B04200D836BB00BF00BF68
:10585000216851E8001F21F4D070226842E800015D
:105860000029F5D100BF00BF00BF2168083151E811
:10587000001F21F001002168083141E80002002AE0
:10588000F3D100BF2020A067E06700BF002084F8AC
:10589000740000BF0320BDE8F0812068006800F0BC
:1058A000040080B32068C069C0F3C02058B34FF42F
:1058B00000602168086200BF00BF216851E8001F36
:1058C00021F4D070226842E800010029F5D100BF20
:1058D00000BF00BF2168083151E8001F21F001001E
:1058E0002168083141E80002002AF3D100BF2020DE
:1058F000A067E067C4F8800000BF002084F874004F
:1059000000BF0320C7E7FFE72068C0692840A8421E
:1059100001D1012000E00020B8428DD00020BAE77C
:105920000F480068C06900F00800082802D10C493F
:10593000096808620A480068C06900F00400042889
:1059400002D107490968086205480068C06900F08B
:105950000200022802D1024909680862704700006B
:105960004407002010B50248FDF766FA10BD00009C
:10597000C807002010B51748006800F0200020B3C9
:10598000144808300068C4B2552C08D11248006889
:1059900028B90120104908600020104908700E48FD
:1059A0000068012811D10D4801780078401C0B4A8D
:1059B00010700B484454AA2C07D1002006490860F7
:1059C00011460870064801F0F1F9082005490968F8
:1059D000086210BD1C140140FC00002000010020E2
:1059E000D80F00204C08002000BFFEE70FB41CB504
:1059F0000246002007AC00290BD0491ECDE900214A
:105A0000054B6A462146069800F00CF9009A0021E1
:105A100011701CBC5DF814FB536300087CB5044690
:105A200000201D46164600290BD0491ECDE9004135
:105A3000044B6A462946304600F0F4F8009A0021EB
:105A400011707CBD5363000802480068C0F3022057
:105A5000704700000CED00E010B5002804DB0A07D9
:105A6000130E054A135406E00A07140E034A00F009
:105A70000F031B1FD45410BD00E400E018ED00E03C
:105A800002E008C8121F08C1002AFAD17047704707
:105A9000002001E001C1121F002AFBD17047000065
:105AA0002DE9FF5F82B00021DDE90430020DDDF851
:105AB00040B0034318D044F61050A2F2FF324243E4
:105AC0001514119801281FD0A5EB0B00401C5FEAAC
:105AD000000A4FF000064E4FDFF83891B0465046AE
